{"contracts/Donation.sol":{"Donation":{"abi":[{"inputs":[{"internalType":"address","name":"companyaddress_","type":"address"}],"stateMutability":"nonpayable","type":"constructor"},{"anonymous":false,"inputs":[{"indexed":false,"internalType":"uint256","name":"_id","type":"uint256"},{"indexed":false,"internalType":"address","name":"_owner","type":"address"},{"indexed":false,"internalType":"uint256","name":"donersCount","type":"uint256"},{"indexed":false,"internalType":"uint256","name":"donationsRaised","type":"uint256"},{"indexed":false,"internalType":"uint256","name":"startDate","type":"uint256"},{"indexed":false,"internalType":"uint256","name":"endDate","type":"uint256"},{"indexed":false,"internalType":"uint256","name":"targetedAmount","type":"uint256"},{"indexed":false,"internalType":"string","name":"category","type":"string"},{"indexed":false,"internalType":"string","name":"title","type":"string"},{"indexed":false,"internalType":"string","name":"hash","type":"string"},{"indexed":false,"internalType":"string","name":"purpose","type":"string"},{"indexed":false,"internalType":"string","name":"description","type":"string"}],"name":"DonationAdded","type":"event"},{"inputs":[{"internalType":"uint256","name":"_id","type":"uint256"}],"name":"addDonation","outputs":[],"stateMutability":"payable","type":"function"},{"inputs":[],"name":"amountRaised","outputs":[{"internalType":"uint256","name":"","type":"uint256"}],"stateMutability":"view","type":"function"},{"inputs":[{"internalType":"uint256","name":"_id","type":"uint256"}],"name":"approveDonation","outputs":[],"stateMutability":"nonpayable","type":"function"},{"inputs":[{"components":[{"internalType":"uint256","name":"id","type":"uint256"},{"internalType":"address payable","name":"owner","type":"address"},{"components":[{"internalType":"uint256","name":"id","type":"uint256"},{"internalType":"address","name":"_address","type":"address"},{"internalType":"string","name":"userType","type":"string"},{"internalType":"string","name":"country","type":"string"},{"internalType":"string","name":"city","type":"string"},{"internalType":"string","name":"email","type":"string"},{"internalType":"string","name":"residenceAddress","type":"string"},{"internalType":"bool","name":"isRegistered","type":"bool"},{"internalType":"string","name":"website","type":"string"},{"internalType":"string","name":"facebookUrl","type":"string"},{"internalType":"string","name":"twitterUrl","type":"string"},{"internalType":"string","name":"instagramUrl","type":"string"},{"internalType":"string","name":"youtubeUrl","type":"string"},{"internalType":"string","name":"hash","type":"string"}],"internalType":"struct Donation.User","name":"user","type":"tuple"},{"internalType":"uint256","name":"donersCount","type":"uint256"},{"internalType":"uint256","name":"donationsRaised","type":"uint256"},{"internalType":"uint256","name":"startDate","type":"uint256"},{"internalType":"uint256","name":"endDate","type":"uint256"},{"internalType":"uint256","name":"targetedAmount","type":"uint256"},{"internalType":"string","name":"category","type":"string"},{"internalType":"string","name":"title","type":"string"},{"internalType":"string","name":"hash","type":"string"},{"internalType":"string","name":"purpose","type":"string"},{"internalType":"string","name":"description","type":"string"},{"components":[{"internalType":"bool","name":"completed","type":"bool"},{"internalType":"bool","name":"isPinned","type":"bool"},{"internalType":"uint256","name":"pinnedDuration","type":"uint256"},{"internalType":"uint256","name":"pinnedEndDate","type":"uint256"},{"internalType":"bool","name":"isVisible","type":"bool"},{"internalType":"bool","name":"isApproved","type":"bool"},{"internalType":"uint256","name":"approvedDate","type":"uint256"},{"internalType":"bool","name":"isRejected","type":"bool"}],"internalType":"struct Donation.DonationStatus","name":"donationstatus","type":"tuple"}],"internalType":"struct Donation.DonationItem","name":"donation_","type":"tuple"},{"internalType":"uint256","name":"id_","type":"uint256"}],"name":"createDonation","outputs":[],"stateMutability":"payable","type":"function"},{"inputs":[{"internalType":"uint256","name":"_id","type":"uint256"}],"name":"disablePinnedDonation","outputs":[],"stateMutability":"nonpayable","type":"function"},{"inputs":[],"name":"donationCount","outputs":[{"internalType":"uint256","name":"","type":"uint256"}],"stateMutability":"view","type":"function"},{"inputs":[{"internalType":"uint256","name":"","type":"uint256"},{"internalType":"uint256","name":"","type":"uint256"}],"name":"doners","outputs":[{"internalType":"uint256","name":"id","type":"uint256"},{"internalType":"uint256","name":"amount","type":"uint256"},{"internalType":"uint256","name":"date","type":"uint256"},{"internalType":"address","name":"doner","type":"address"}],"stateMutability":"view","type":"function"},{"inputs":[],"name":"donersCount","outputs":[{"internalType":"uint256","name":"","type":"uint256"}],"stateMutability":"view","type":"function"},{"inputs":[],"name":"fetchAllDonationItems","outputs":[{"components":[{"internalType":"uint256","name":"id","type":"uint256"},{"internalType":"address payable","name":"owner","type":"address"},{"components":[{"internalType":"uint256","name":"id","type":"uint256"},{"internalType":"address","name":"_address","type":"address"},{"internalType":"string","name":"userType","type":"string"},{"internalType":"string","name":"country","type":"string"},{"internalType":"string","name":"city","type":"string"},{"internalType":"string","name":"email","type":"string"},{"internalType":"string","name":"residenceAddress","type":"string"},{"internalType":"bool","name":"isRegistered","type":"bool"},{"internalType":"string","name":"website","type":"string"},{"internalType":"string","name":"facebookUrl","type":"string"},{"internalType":"string","name":"twitterUrl","type":"string"},{"internalType":"string","name":"instagramUrl","type":"string"},{"internalType":"string","name":"youtubeUrl","type":"string"},{"internalType":"string","name":"hash","type":"string"}],"internalType":"struct Donation.User","name":"user","type":"tuple"},{"internalType":"uint256","name":"donersCount","type":"uint256"},{"internalType":"uint256","name":"donationsRaised","type":"uint256"},{"internalType":"uint256","name":"startDate","type":"uint256"},{"internalType":"uint256","name":"endDate","type":"uint256"},{"internalType":"uint256","name":"targetedAmount","type":"uint256"},{"internalType":"string","name":"category","type":"string"},{"internalType":"string","name":"title","type":"string"},{"internalType":"string","name":"hash","type":"string"},{"internalType":"string","name":"purpose","type":"string"},{"internalType":"string","name":"description","type":"string"},{"components":[{"internalType":"bool","name":"completed","type":"bool"},{"internalType":"bool","name":"isPinned","type":"bool"},{"internalType":"uint256","name":"pinnedDuration","type":"uint256"},{"internalType":"uint256","name":"pinnedEndDate","type":"uint256"},{"internalType":"bool","name":"isVisible","type":"bool"},{"internalType":"bool","name":"isApproved","type":"bool"},{"internalType":"uint256","name":"approvedDate","type":"uint256"},{"internalType":"bool","name":"isRejected","type":"bool"}],"internalType":"struct Donation.DonationStatus","name":"donationstatus","type":"tuple"}],"internalType":"struct Donation.DonationItem[]","name":"","type":"tuple[]"}],"stateMutability":"view","type":"function"},{"inputs":[],"name":"fetchAllUsers","outputs":[{"components":[{"internalType":"uint256","name":"id","type":"uint256"},{"internalType":"address","name":"_address","type":"address"},{"internalType":"string","name":"userType","type":"string"},{"internalType":"string","name":"country","type":"string"},{"internalType":"string","name":"city","type":"string"},{"internalType":"string","name":"email","type":"string"},{"internalType":"string","name":"residenceAddress","type":"string"},{"internalType":"bool","name":"isRegistered","type":"bool"},{"internalType":"string","name":"website","type":"string"},{"internalType":"string","name":"facebookUrl","type":"string"},{"internalType":"string","name":"twitterUrl","type":"string"},{"internalType":"string","name":"instagramUrl","type":"string"},{"internalType":"string","name":"youtubeUrl","type":"string"},{"internalType":"string","name":"hash","type":"string"}],"internalType":"struct Donation.User[]","name":"","type":"tuple[]"}],"stateMutability":"view","type":"function"},{"inputs":[{"internalType":"uint256","name":"_id","type":"uint256"}],"name":"getDonation","outputs":[{"components":[{"internalType":"uint256","name":"id","type":"uint256"},{"internalType":"address payable","name":"owner","type":"address"},{"components":[{"internalType":"uint256","name":"id","type":"uint256"},{"internalType":"address","name":"_address","type":"address"},{"internalType":"string","name":"userType","type":"string"},{"internalType":"string","name":"country","type":"string"},{"internalType":"string","name":"city","type":"string"},{"internalType":"string","name":"email","type":"string"},{"internalType":"string","name":"residenceAddress","type":"string"},{"internalType":"bool","name":"isRegistered","type":"bool"},{"internalType":"string","name":"website","type":"string"},{"internalType":"string","name":"facebookUrl","type":"string"},{"internalType":"string","name":"twitterUrl","type":"string"},{"internalType":"string","name":"instagramUrl","type":"string"},{"internalType":"string","name":"youtubeUrl","type":"string"},{"internalType":"string","name":"hash","type":"string"}],"internalType":"struct Donation.User","name":"user","type":"tuple"},{"internalType":"uint256","name":"donersCount","type":"uint256"},{"internalType":"uint256","name":"donationsRaised","type":"uint256"},{"internalType":"uint256","name":"startDate","type":"uint256"},{"internalType":"uint256","name":"endDate","type":"uint256"},{"internalType":"uint256","name":"targetedAmount","type":"uint256"},{"internalType":"string","name":"category","type":"string"},{"internalType":"string","name":"title","type":"string"},{"internalType":"string","name":"hash","type":"string"},{"internalType":"string","name":"purpose","type":"string"},{"internalType":"string","name":"description","type":"string"},{"components":[{"internalType":"bool","name":"completed","type":"bool"},{"internalType":"bool","name":"isPinned","type":"bool"},{"internalType":"uint256","name":"pinnedDuration","type":"uint256"},{"internalType":"uint256","name":"pinnedEndDate","type":"uint256"},{"internalType":"bool","name":"isVisible","type":"bool"},{"internalType":"bool","name":"isApproved","type":"bool"},{"internalType":"uint256","name":"approvedDate","type":"uint256"},{"internalType":"bool","name":"isRejected","type":"bool"}],"internalType":"struct Donation.DonationStatus","name":"donationstatus","type":"tuple"}],"internalType":"struct Donation.DonationItem","name":"","type":"tuple"}],"stateMutability":"view","type":"function"},{"inputs":[{"internalType":"uint256","name":"_id","type":"uint256"}],"name":"getDonersOfDonation","outputs":[{"components":[{"internalType":"uint256","name":"id","type":"uint256"},{"internalType":"uint256","name":"amount","type":"uint256"},{"internalType":"uint256","name":"date","type":"uint256"},{"internalType":"address","name":"doner","type":"address"}],"internalType":"struct Donation.Doners[]","name":"","type":"tuple[]"}],"stateMutability":"view","type":"function"},{"inputs":[],"name":"getEthUsd","outputs":[{"internalType":"uint256","name":"","type":"uint256"}],"stateMutability":"view","type":"function"},{"inputs":[{"internalType":"uint256","name":"","type":"uint256"}],"name":"idToDonationItem","outputs":[{"internalType":"uint256","name":"id","type":"uint256"},{"internalType":"address payable","name":"owner","type":"address"},{"components":[{"internalType":"uint256","name":"id","type":"uint256"},{"internalType":"address","name":"_address","type":"address"},{"internalType":"string","name":"userType","type":"string"},{"internalType":"string","name":"country","type":"string"},{"internalType":"string","name":"city","type":"string"},{"internalType":"string","name":"email","type":"string"},{"internalType":"string","name":"residenceAddress","type":"string"},{"internalType":"bool","name":"isRegistered","type":"bool"},{"internalType":"string","name":"website","type":"string"},{"internalType":"string","name":"facebookUrl","type":"string"},{"internalType":"string","name":"twitterUrl","type":"string"},{"internalType":"string","name":"instagramUrl","type":"string"},{"internalType":"string","name":"youtubeUrl","type":"string"},{"internalType":"string","name":"hash","type":"string"}],"internalType":"struct Donation.User","name":"user","type":"tuple"},{"internalType":"uint256","name":"donersCount","type":"uint256"},{"internalType":"uint256","name":"donationsRaised","type":"uint256"},{"internalType":"uint256","name":"startDate","type":"uint256"},{"internalType":"uint256","name":"endDate","type":"uint256"},{"internalType":"uint256","name":"targetedAmount","type":"uint256"},{"internalType":"string","name":"category","type":"string"},{"internalType":"string","name":"title","type":"string"},{"internalType":"string","name":"hash","type":"string"},{"internalType":"string","name":"purpose","type":"string"},{"internalType":"string","name":"description","type":"string"},{"components":[{"internalType":"bool","name":"completed","type":"bool"},{"internalType":"bool","name":"isPinned","type":"bool"},{"internalType":"uint256","name":"pinnedDuration","type":"uint256"},{"internalType":"uint256","name":"pinnedEndDate","type":"uint256"},{"internalType":"bool","name":"isVisible","type":"bool"},{"internalType":"bool","name":"isApproved","type":"bool"},{"internalType":"uint256","name":"approvedDate","type":"uint256"},{"internalType":"bool","name":"isRejected","type":"bool"}],"internalType":"struct Donation.DonationStatus","name":"donationstatus","type":"tuple"}],"stateMutability":"view","type":"function"},{"inputs":[],"name":"isUserRegistered","outputs":[{"components":[{"internalType":"bool","name":"status","type":"bool"},{"internalType":"string","name":"userType","type":"string"},{"internalType":"uint256","name":"id","type":"uint256"}],"internalType":"struct Donation.IsRegistered","name":"","type":"tuple"}],"stateMutability":"view","type":"function"},{"inputs":[{"internalType":"uint256","name":"_id","type":"uint256"},{"internalType":"uint256","name":"_duration","type":"uint256"},{"internalType":"uint256","name":"_pinnedEndDate","type":"uint256"}],"name":"pinDonation","outputs":[],"stateMutability":"payable","type":"function"},{"inputs":[{"internalType":"address","name":"","type":"address"}],"name":"registeredUsers","outputs":[{"internalType":"bool","name":"status","type":"bool"},{"internalType":"string","name":"userType","type":"string"},{"internalType":"uint256","name":"id","type":"uint256"}],"stateMutability":"view","type":"function"},{"inputs":[{"internalType":"uint256","name":"_id","type":"uint256"}],"name":"rejectDonation","outputs":[],"stateMutability":"nonpayable","type":"function"},{"inputs":[{"internalType":"uint256","name":"","type":"uint256"}],"name":"users","outputs":[{"internalType":"uint256","name":"id","type":"uint256"},{"internalType":"address","name":"_address","type":"address"},{"internalType":"string","name":"userType","type":"string"},{"internalType":"string","name":"country","type":"string"},{"internalType":"string","name":"city","type":"string"},{"internalType":"string","name":"email","type":"string"},{"internalType":"string","name":"residenceAddress","type":"string"},{"internalType":"bool","name":"isRegistered","type":"bool"},{"internalType":"string","name":"website","type":"string"},{"internalType":"string","name":"facebookUrl","type":"string"},{"internalType":"string","name":"twitterUrl","type":"string"},{"internalType":"string","name":"instagramUrl","type":"string"},{"internalType":"string","name":"youtubeUrl","type":"string"},{"internalType":"string","name":"hash","type":"string"}],"stateMutability":"view","type":"function"},{"inputs":[],"name":"usersCount","outputs":[{"internalType":"uint256","name":"","type":"uint256"}],"stateMutability":"view","type":"function"}],"evm":{"bytecode":{"linkReferences":{},"object":"60806040523480156200001157600080fd5b5060405162005d4c38038062005d4c833981016040819052620000349162000077565b600580546001600160a01b039092166001600160a01b031992831617905560008054909116739326bfa02add2366b30bacb125260af641031331179055620000a7565b60006020828403121562000089578081fd5b81516001600160a01b0381168114620000a0578182fd5b9392505050565b615c9580620000b76000396000f3fe6080604052600436106100ef5760003560e01c80630e50cee5146100f45780632abfab4d1461012c57806332536a5314610150578063365b98b2146101655780633776eac61461019f5780633f27607d146101c157806343ae959c146101fb57806351c7bd4b14610211578063568fefbf146102315780635fc2a547146102af5780636ba13a82146102dc5780637b3e5e7b146102f2578063873138f314610308578063bb27e0ce1461032a578063c33743151461033f578063c69f34a314610361578063c6e251a914610381578063cac83cb114610394578063d8251a14146103b4578063ef07a81f146103c7575b600080fd5b34801561010057600080fd5b5061011461010f3660046150e7565b6103f4565b60405161012393929190615825565b60405180910390f35b34801561013857600080fd5b5061014260075481565b604051908152602001610123565b61016361015e3660046152ca565b6104a3565b005b34801561017157600080fd5b50610185610180366004615291565b6108e6565b6040516101239e9d9c9b9a999897969594939291906159a1565b3480156101ab57600080fd5b506101b4610f36565b6040516101239190615703565b3480156101cd57600080fd5b506101e16101dc366004615291565b611a56565b6040516101239e9d9c9b9a999897969594939291906158d0565b34801561020757600080fd5b5061014260065481565b34801561021d57600080fd5b5061016361022c366004615291565b612459565b34801561023d57600080fd5b5061028661024c3660046152a9565b600260208181526000938452604080852090915291835291208054600182015492820154600390920154909291906001600160a01b031684565b604080519485526020850193909352918301526001600160a01b03166060820152608001610123565b3480156102bb57600080fd5b506102cf6102ca366004615291565b6127ea565b6040516101239190615764565b3480156102e857600080fd5b5061014260085481565b3480156102fe57600080fd5b5061014260095481565b34801561031457600080fd5b5061031d612952565b6040516101239190615892565b34801561033657600080fd5b50610142612a98565b34801561034b57600080fd5b50610354612b2a565b60405161012391906157d1565b34801561036d57600080fd5b5061016361037c366004615291565b613294565b61016361038f366004615103565b613391565b3480156103a057600080fd5b506101636103af366004615291565b6139c9565b6101636103c2366004615291565b613a64565b3480156103d357600080fd5b506103e76103e2366004615291565b61405f565b604051610123919061587f565b6004602052600090815260409020805460018201805460ff909216929161041a90615bc5565b80601f016020809104026020016040519081016040528092919081815260200182805461044690615bc5565b80156104935780601f1061046857610100808354040283529160200191610493565b820191906000526020600020905b81548152906001019060200180831161047657829003601f168201915b5050505050908060020154905083565b6000831180156104b557506007548311155b6104da5760405162461bcd60e51b81526004016104d190615850565b60405180910390fd5b6000838152600160205260409020601a810154610100900460ff16156104ff57600080fd5b601d81015460ff61010090910416151560011461051b57600080fd5b601c810154421161052b57600080fd5b6005546040516001600160a01b039091169081903480156108fc02916000818181858888f19350505050158015610566573d6000803e3d6000fd5b50601b8201849055601c8201839055601a8201805461ff0019166101001790556000858152600160208190526040909120835481558184015491810180546001600160a01b03199081166001600160a01b03948516179091556002808601805491840191825560038088015490850180549094169516949094179091556004808601805487959392850191906105fb90615bc5565b610606929190614b3f565b50600382018160030190805461061b90615bc5565b610626929190614b3f565b50600482018160040190805461063b90615bc5565b610646929190614b3f565b50600582018160050190805461065b90615bc5565b610666929190614b3f565b50600682018160060190805461067b90615bc5565b610686929190614b3f565b50600782810154908201805460ff191660ff909216151591909117905560088083018054918301916106b790615bc5565b6106c2929190614b3f565b5060098201816009019080546106d790615bc5565b6106e2929190614b3f565b50600a820181600a019080546106f790615bc5565b610702929190614b3f565b50600b820181600b0190805461071790615bc5565b610722929190614b3f565b50600c820181600c0190805461073790615bc5565b610742929190614b3f565b50600d820181600d0190805461075790615bc5565b610762929190614b3f565b505050601082015481601001556011820154816011015560128201548160120155601382015481601301556014820154816014015560158201816015019080546107ab90615bc5565b6107b6929190614b3f565b5060168201816016019080546107cb90615bc5565b6107d6929190614b3f565b5060178201816017019080546107eb90615bc5565b6107f6929190614b3f565b50601882018160180190805461080b90615bc5565b610816929190614b3f565b50601982018160190190805461082b90615bc5565b610836929190614b3f565b50601a8281018054918301805460ff938416151560ff198083168217845593546101009081900486161515810261ff001992831661ffff199485161717909355601b8088015490870155601c8088015490870155601d808801805491880180549288161515838816811782559154869004881615159095029216921691909117179055601e8085015490840155601f93840154939092018054939091161515929091169190911790555050505050565b60036020526000908152604090208054600182015460028301805492936001600160a01b039092169261091890615bc5565b80601f016020809104026020016040519081016040528092919081815260200182805461094490615bc5565b80156109915780601f1061096657610100808354040283529160200191610991565b820191906000526020600020905b81548152906001019060200180831161097457829003601f168201915b5050505050908060030180546109a690615bc5565b80601f01602080910402602001604051908101604052809291908181526020018280546109d290615bc5565b8015610a1f5780601f106109f457610100808354040283529160200191610a1f565b820191906000526020600020905b815481529060010190602001808311610a0257829003601f168201915b505050505090806004018054610a3490615bc5565b80601f0160208091040260200160405190810160405280929190818152602001828054610a6090615bc5565b8015610aad5780601f10610a8257610100808354040283529160200191610aad565b820191906000526020600020905b815481529060010190602001808311610a9057829003601f168201915b505050505090806005018054610ac290615bc5565b80601f0160208091040260200160405190810160405280929190818152602001828054610aee90615bc5565b8015610b3b5780601f10610b1057610100808354040283529160200191610b3b565b820191906000526020600020905b815481529060010190602001808311610b1e57829003601f168201915b505050505090806006018054610b5090615bc5565b80601f0160208091040260200160405190810160405280929190818152602001828054610b7c90615bc5565b8015610bc95780601f10610b9e57610100808354040283529160200191610bc9565b820191906000526020600020905b815481529060010190602001808311610bac57829003601f168201915b5050506007840154600885018054949560ff909216949193509150610bed90615bc5565b80601f0160208091040260200160405190810160405280929190818152602001828054610c1990615bc5565b8015610c665780601f10610c3b57610100808354040283529160200191610c66565b820191906000526020600020905b815481529060010190602001808311610c4957829003601f168201915b505050505090806009018054610c7b90615bc5565b80601f0160208091040260200160405190810160405280929190818152602001828054610ca790615bc5565b8015610cf45780601f10610cc957610100808354040283529160200191610cf4565b820191906000526020600020905b815481529060010190602001808311610cd757829003601f168201915b50505050509080600a018054610d0990615bc5565b80601f0160208091040260200160405190810160405280929190818152602001828054610d3590615bc5565b8015610d825780601f10610d5757610100808354040283529160200191610d82565b820191906000526020600020905b815481529060010190602001808311610d6557829003601f168201915b50505050509080600b018054610d9790615bc5565b80601f0160208091040260200160405190810160405280929190818152602001828054610dc390615bc5565b8015610e105780601f10610de557610100808354040283529160200191610e10565b820191906000526020600020905b815481529060010190602001808311610df357829003601f168201915b50505050509080600c018054610e2590615bc5565b80601f0160208091040260200160405190810160405280929190818152602001828054610e5190615bc5565b8015610e9e5780601f10610e7357610100808354040283529160200191610e9e565b820191906000526020600020905b815481529060010190602001808311610e8157829003601f168201915b50505050509080600d018054610eb390615bc5565b80601f0160208091040260200160405190810160405280929190818152602001828054610edf90615bc5565b8015610f2c5780601f10610f0157610100808354040283529160200191610f2c565b820191906000526020600020905b815481529060010190602001808311610f0f57829003601f168201915b505050505090508e565b600754606090600080826001600160401b03811115610f6557634e487b7160e01b600052604160045260246000fd5b604051908082528060200260200182016040528015610f9e57816020015b610f8b614bc6565b815260200190600190039081610f835790505b50905060005b83811015611a4e576000610fb9826001615b76565b60008181526001602081815260409283902083516101c0808201865282548252938201546001600160a01b039081168285015285519485018652600283018054865260038401549091169385019390935260048201805496975091959094869486820194909390929184019161102e90615bc5565b80601f016020809104026020016040519081016040528092919081815260200182805461105a90615bc5565b80156110a75780601f1061107c576101008083540402835291602001916110a7565b820191906000526020600020905b81548152906001019060200180831161108a57829003601f168201915b505050505081526020016003820180546110c090615bc5565b80601f01602080910402602001604051908101604052809291908181526020018280546110ec90615bc5565b80156111395780601f1061110e57610100808354040283529160200191611139565b820191906000526020600020905b81548152906001019060200180831161111c57829003601f168201915b5050505050815260200160048201805461115290615bc5565b80601f016020809104026020016040519081016040528092919081815260200182805461117e90615bc5565b80156111cb5780601f106111a0576101008083540402835291602001916111cb565b820191906000526020600020905b8154815290600101906020018083116111ae57829003601f168201915b505050505081526020016005820180546111e490615bc5565b80601f016020809104026020016040519081016040528092919081815260200182805461121090615bc5565b801561125d5780601f106112325761010080835404028352916020019161125d565b820191906000526020600020905b81548152906001019060200180831161124057829003601f168201915b5050505050815260200160068201805461127690615bc5565b80601f01602080910402602001604051908101604052809291908181526020018280546112a290615bc5565b80156112ef5780601f106112c4576101008083540402835291602001916112ef565b820191906000526020600020905b8154815290600101906020018083116112d257829003601f168201915b5050509183525050600782015460ff161515602082015260088201805460409092019161131b90615bc5565b80601f016020809104026020016040519081016040528092919081815260200182805461134790615bc5565b80156113945780601f1061136957610100808354040283529160200191611394565b820191906000526020600020905b81548152906001019060200180831161137757829003601f168201915b505050505081526020016009820180546113ad90615bc5565b80601f01602080910402602001604051908101604052809291908181526020018280546113d990615bc5565b80156114265780601f106113fb57610100808354040283529160200191611426565b820191906000526020600020905b81548152906001019060200180831161140957829003601f168201915b50505050508152602001600a8201805461143f90615bc5565b80601f016020809104026020016040519081016040528092919081815260200182805461146b90615bc5565b80156114b85780601f1061148d576101008083540402835291602001916114b8565b820191906000526020600020905b81548152906001019060200180831161149b57829003601f168201915b50505050508152602001600b820180546114d190615bc5565b80601f01602080910402602001604051908101604052809291908181526020018280546114fd90615bc5565b801561154a5780601f1061151f5761010080835404028352916020019161154a565b820191906000526020600020905b81548152906001019060200180831161152d57829003601f168201915b50505050508152602001600c8201805461156390615bc5565b80601f016020809104026020016040519081016040528092919081815260200182805461158f90615bc5565b80156115dc5780601f106115b1576101008083540402835291602001916115dc565b820191906000526020600020905b8154815290600101906020018083116115bf57829003601f168201915b50505050508152602001600d820180546115f590615bc5565b80601f016020809104026020016040519081016040528092919081815260200182805461162190615bc5565b801561166e5780601f106116435761010080835404028352916020019161166e565b820191906000526020600020905b81548152906001019060200180831161165157829003601f168201915b505050505081525050815260200160108201548152602001601182015481526020016012820154815260200160138201548152602001601482015481526020016015820180546116bd90615bc5565b80601f01602080910402602001604051908101604052809291908181526020018280546116e990615bc5565b80156117365780601f1061170b57610100808354040283529160200191611736565b820191906000526020600020905b81548152906001019060200180831161171957829003601f168201915b5050505050815260200160168201805461174f90615bc5565b80601f016020809104026020016040519081016040528092919081815260200182805461177b90615bc5565b80156117c85780601f1061179d576101008083540402835291602001916117c8565b820191906000526020600020905b8154815290600101906020018083116117ab57829003601f168201915b505050505081526020016017820180546117e190615bc5565b80601f016020809104026020016040519081016040528092919081815260200182805461180d90615bc5565b801561185a5780601f1061182f5761010080835404028352916020019161185a565b820191906000526020600020905b81548152906001019060200180831161183d57829003601f168201915b5050505050815260200160188201805461187390615bc5565b80601f016020809104026020016040519081016040528092919081815260200182805461189f90615bc5565b80156118ec5780601f106118c1576101008083540402835291602001916118ec565b820191906000526020600020905b8154815290600101906020018083116118cf57829003601f168201915b5050505050815260200160198201805461190590615bc5565b80601f016020809104026020016040519081016040528092919081815260200182805461193190615bc5565b801561197e5780601f106119535761010080835404028352916020019161197e565b820191906000526020600020905b81548152906001019060200180831161196157829003601f168201915b5050509183525050604080516101008082018352601a85015460ff808216151584529082900481161515602084810191909152601b87015494840194909452601c8601546060840152601d86015480821615156080850152919091048116151560a0830152601e85015460c0830152601f90940154909316151560e084015201528451859087908110611a2157634e487b7160e01b600052603260045260246000fd5b6020908102919091010152611a37600186615b76565b945050508080611a4690615c00565b915050610fa4565b509392505050565b60016020818152600092835260409283902080549281015484516101c081018652600283018054825260038401546001600160a01b0390811695830195909552600484018054969795909316959394919390929184019190611ab790615bc5565b80601f0160208091040260200160405190810160405280929190818152602001828054611ae390615bc5565b8015611b305780601f10611b0557610100808354040283529160200191611b30565b820191906000526020600020905b815481529060010190602001808311611b1357829003601f168201915b50505050508152602001600382018054611b4990615bc5565b80601f0160208091040260200160405190810160405280929190818152602001828054611b7590615bc5565b8015611bc25780601f10611b9757610100808354040283529160200191611bc2565b820191906000526020600020905b815481529060010190602001808311611ba557829003601f168201915b50505050508152602001600482018054611bdb90615bc5565b80601f0160208091040260200160405190810160405280929190818152602001828054611c0790615bc5565b8015611c545780601f10611c2957610100808354040283529160200191611c54565b820191906000526020600020905b815481529060010190602001808311611c3757829003601f168201915b50505050508152602001600582018054611c6d90615bc5565b80601f0160208091040260200160405190810160405280929190818152602001828054611c9990615bc5565b8015611ce65780601f10611cbb57610100808354040283529160200191611ce6565b820191906000526020600020905b815481529060010190602001808311611cc957829003601f168201915b50505050508152602001600682018054611cff90615bc5565b80601f0160208091040260200160405190810160405280929190818152602001828054611d2b90615bc5565b8015611d785780601f10611d4d57610100808354040283529160200191611d78565b820191906000526020600020905b815481529060010190602001808311611d5b57829003601f168201915b5050509183525050600782015460ff1615156020820152600882018054604090920191611da490615bc5565b80601f0160208091040260200160405190810160405280929190818152602001828054611dd090615bc5565b8015611e1d5780601f10611df257610100808354040283529160200191611e1d565b820191906000526020600020905b815481529060010190602001808311611e0057829003601f168201915b50505050508152602001600982018054611e3690615bc5565b80601f0160208091040260200160405190810160405280929190818152602001828054611e6290615bc5565b8015611eaf5780601f10611e8457610100808354040283529160200191611eaf565b820191906000526020600020905b815481529060010190602001808311611e9257829003601f168201915b50505050508152602001600a82018054611ec890615bc5565b80601f0160208091040260200160405190810160405280929190818152602001828054611ef490615bc5565b8015611f415780601f10611f1657610100808354040283529160200191611f41565b820191906000526020600020905b815481529060010190602001808311611f2457829003601f168201915b50505050508152602001600b82018054611f5a90615bc5565b80601f0160208091040260200160405190810160405280929190818152602001828054611f8690615bc5565b8015611fd35780601f10611fa857610100808354040283529160200191611fd3565b820191906000526020600020905b815481529060010190602001808311611fb657829003601f168201915b50505050508152602001600c82018054611fec90615bc5565b80601f016020809104026020016040519081016040528092919081815260200182805461201890615bc5565b80156120655780601f1061203a57610100808354040283529160200191612065565b820191906000526020600020905b81548152906001019060200180831161204857829003601f168201915b50505050508152602001600d8201805461207e90615bc5565b80601f01602080910402602001604051908101604052809291908181526020018280546120aa90615bc5565b80156120f75780601f106120cc576101008083540402835291602001916120f7565b820191906000526020600020905b8154815290600101906020018083116120da57829003601f168201915b5050505050815250509080601001549080601101549080601201549080601301549080601401549080601501805461212e90615bc5565b80601f016020809104026020016040519081016040528092919081815260200182805461215a90615bc5565b80156121a75780601f1061217c576101008083540402835291602001916121a7565b820191906000526020600020905b81548152906001019060200180831161218a57829003601f168201915b5050505050908060160180546121bc90615bc5565b80601f01602080910402602001604051908101604052809291908181526020018280546121e890615bc5565b80156122355780601f1061220a57610100808354040283529160200191612235565b820191906000526020600020905b81548152906001019060200180831161221857829003601f168201915b50505050509080601701805461224a90615bc5565b80601f016020809104026020016040519081016040528092919081815260200182805461227690615bc5565b80156122c35780601f10612298576101008083540402835291602001916122c3565b820191906000526020600020905b8154815290600101906020018083116122a657829003601f168201915b5050505050908060180180546122d890615bc5565b80601f016020809104026020016040519081016040528092919081815260200182805461230490615bc5565b80156123515780601f1061232657610100808354040283529160200191612351565b820191906000526020600020905b81548152906001019060200180831161233457829003601f168201915b50505050509080601901805461236690615bc5565b80601f016020809104026020016040519081016040528092919081815260200182805461239290615bc5565b80156123df5780601f106123b4576101008083540402835291602001916123df565b820191906000526020600020905b8154815290600101906020018083116123c257829003601f168201915b5050604080516101008082018352601a88015460ff8082161515845290829004811615156020840152601b89015493830193909352601c8801546060830152601d88015480841615156080840152048216151560a0820152601e87015460c0820152601f9096015416151560e086015250919291508f9050565b60008111801561246b57506007548111155b6124875760405162461bcd60e51b81526004016104d190615850565b6000818152600160208190526040909120601d8101805461ffff19169055601f8101805460ff19168317905590810180546001600160a01b03198082166001600160a01b0392831617909255600383018054928316929091169190911790556004810180548291829160028301918291819061250290615bc5565b61250d929190614b3f565b50600382018160030190805461252290615bc5565b61252d929190614b3f565b50600482018160040190805461254290615bc5565b61254d929190614b3f565b50600582018160050190805461256290615bc5565b61256d929190614b3f565b50600682018160060190805461258290615bc5565b61258d929190614b3f565b50600782810154908201805460ff191660ff909216151591909117905560088083018054918301916125be90615bc5565b6125c9929190614b3f565b5060098201816009019080546125de90615bc5565b6125e9929190614b3f565b50600a820181600a019080546125fe90615bc5565b612609929190614b3f565b50600b820181600b0190805461261e90615bc5565b612629929190614b3f565b50600c820181600c0190805461263e90615bc5565b612649929190614b3f565b50600d820181600d0190805461265e90615bc5565b612669929190614b3f565b505050601082015481601001556011820154816011015560128201548160120155601382015481601301556014820154816014015560158201816015019080546126b290615bc5565b6126bd929190614b3f565b5060168201816016019080546126d290615bc5565b6126dd929190614b3f565b5060178201816017019080546126f290615bc5565b6126fd929190614b3f565b50601882018160180190805461271290615bc5565b61271d929190614b3f565b50601982018160190190805461273290615bc5565b61273d929190614b3f565b50601a8281018054918301805460ff938416151560ff198083168217845593546101009081900486161515810261ff001992831661ffff199485161717909355601b8088015490870155601c8088015490870155601d808801805491880180549288161515838816811782559154869004881615159095029216921691909117179055601e8085015490840155601f93840154939092018054939091161515929091169190911790555050565b60008181526001602052604081206010015460609180826001600160401b0381111561282657634e487b7160e01b600052604160045260246000fd5b60405190808252806020026020018201604052801561288b57816020015b612878604051806080016040528060008152602001600081526020016000815260200160006001600160a01b031681525090565b8152602001906001900390816128445790505b50905060005b838110156129495760006128a6826001615b76565b6000888152600260208181526040808420858552825292839020835160808101855281548152600182015492810192909252918201549281019290925260038101546001600160a01b0316606083015285519293509185908790811061291c57634e487b7160e01b600052603260045260246000fd5b6020908102919091010152612932600186615b76565b94505050808061294190615c00565b915050612891565b50949350505050565b612978604051806060016040528060001515815260200160608152602001600081525090565b3360009081526004602052604090205460ff16151560011415612a5f5733600090815260046020908152604091829020825160608101909352805460ff161515835260018101805491928401916129ce90615bc5565b80601f01602080910402602001604051908101604052809291908181526020018280546129fa90615bc5565b8015612a475780601f10612a1c57610100808354040283529160200191612a47565b820191906000526020600020905b815481529060010190602001808311612a2a57829003601f168201915b50505050508152602001600282015481525050905090565b33600090815260046020908152604091829020825160608101909352805460ff161515835260018101805491928401916129ce90615bc5565b6000805460408051633fabe5a360e21b8152905183926001600160a01b03169163feaf968c9160048083019260a0929190829003018186803b158015612add57600080fd5b505afa158015612af1573d6000803e3d6000fd5b505050506040513d601f19601f82011682018060405250810190612b1591906152f5565b505050915050612b2481614aca565b91505090565b600854606090600080826001600160401b03811115612b5957634e487b7160e01b600052604160045260246000fd5b604051908082528060200260200182016040528015612b9257816020015b612b7f614c88565b815260200190600190039081612b775790505b50905060005b83811015611a4e576000612bad826001615b76565b60008181526003602090815260409182902082516101c0810184528154815260018201546001600160a01b0316928101929092526002810180549495509093919284929084019190612bfe90615bc5565b80601f0160208091040260200160405190810160405280929190818152602001828054612c2a90615bc5565b8015612c775780601f10612c4c57610100808354040283529160200191612c77565b820191906000526020600020905b815481529060010190602001808311612c5a57829003601f168201915b50505050508152602001600382018054612c9090615bc5565b80601f0160208091040260200160405190810160405280929190818152602001828054612cbc90615bc5565b8015612d095780601f10612cde57610100808354040283529160200191612d09565b820191906000526020600020905b815481529060010190602001808311612cec57829003601f168201915b50505050508152602001600482018054612d2290615bc5565b80601f0160208091040260200160405190810160405280929190818152602001828054612d4e90615bc5565b8015612d9b5780601f10612d7057610100808354040283529160200191612d9b565b820191906000526020600020905b815481529060010190602001808311612d7e57829003601f168201915b50505050508152602001600582018054612db490615bc5565b80601f0160208091040260200160405190810160405280929190818152602001828054612de090615bc5565b8015612e2d5780601f10612e0257610100808354040283529160200191612e2d565b820191906000526020600020905b815481529060010190602001808311612e1057829003601f168201915b50505050508152602001600682018054612e4690615bc5565b80601f0160208091040260200160405190810160405280929190818152602001828054612e7290615bc5565b8015612ebf5780601f10612e9457610100808354040283529160200191612ebf565b820191906000526020600020905b815481529060010190602001808311612ea257829003601f168201915b5050509183525050600782015460ff1615156020820152600882018054604090920191612eeb90615bc5565b80601f0160208091040260200160405190810160405280929190818152602001828054612f1790615bc5565b8015612f645780601f10612f3957610100808354040283529160200191612f64565b820191906000526020600020905b815481529060010190602001808311612f4757829003601f168201915b50505050508152602001600982018054612f7d90615bc5565b80601f0160208091040260200160405190810160405280929190818152602001828054612fa990615bc5565b8015612ff65780601f10612fcb57610100808354040283529160200191612ff6565b820191906000526020600020905b815481529060010190602001808311612fd957829003601f168201915b50505050508152602001600a8201805461300f90615bc5565b80601f016020809104026020016040519081016040528092919081815260200182805461303b90615bc5565b80156130885780601f1061305d57610100808354040283529160200191613088565b820191906000526020600020905b81548152906001019060200180831161306b57829003601f168201915b50505050508152602001600b820180546130a190615bc5565b80601f01602080910402602001604051908101604052809291908181526020018280546130cd90615bc5565b801561311a5780601f106130ef5761010080835404028352916020019161311a565b820191906000526020600020905b8154815290600101906020018083116130fd57829003601f168201915b50505050508152602001600c8201805461313390615bc5565b80601f016020809104026020016040519081016040528092919081815260200182805461315f90615bc5565b80156131ac5780601f10613181576101008083540402835291602001916131ac565b820191906000526020600020905b81548152906001019060200180831161318f57829003601f168201915b50505050508152602001600d820180546131c590615bc5565b80601f01602080910402602001604051908101604052809291908181526020018280546131f190615bc5565b801561323e5780601f106132135761010080835404028352916020019161323e565b820191906000526020600020905b81548152906001019060200180831161322157829003601f168201915b50505050508152505084868151811061326757634e487b7160e01b600052603260045260246000fd5b602090810291909101015261327d600186615b76565b94505050808061328c90615c00565b915050612b98565b6000811180156132a657506007548111155b6132c25760405162461bcd60e51b81526004016104d190615850565b6000818152600160205260409020601d810154610100900460ff16156132e757600080fd5b601d81015460ff16156132f957600080fd5b601d8101805461ffff1916610101179055601f8101805460ff1916905542601e8201556000828152600160208190526040909120825481558183015491810180546001600160a01b039384166001600160a01b03199182161790915560028085018054918401918255600380870154908501805491909616931692909217909355600480850180548695928501919061250290615bc5565b3361339b57600080fd5b600780549060006133ab83615c00565b9091555050600754600081815260016020819052604090912091825581810180546001600160a01b031916331790556008546133e691615b76565b600881905560028201556003810180546001600160a01b0319163317905560408084015101518051613422916004840191602090910190614d02565b506040830151606001518051613442916005840191602090910190614d02565b506040830151608001518051613462916006840191602090910190614d02565b50604083015160a001518051613482916007840191602090910190614d02565b50604083015160c0015180516134a2916008840191602090910190614d02565b5060098101805460ff191660011790556040830151610100015180516134d291600a840191602090910190614d02565b506040830151610120015180516134f391600b840191602090910190614d02565b5060408301516101400151805161351491600c840191602090910190614d02565b5060408301516101600151805161353591600d840191602090910190614d02565b5060408301516101800151805161355691600e840191602090910190614d02565b5060408301516101a00151805161357791600f840191602090910190614d02565b50600880546000818152600360209081526040808320938455600190930180546001600160a01b03191633179055868301518301519354825291902082516135c9936002909201929190910190614d02565b50604080840151606001516008546000908152600360208181529390912082516135f99491909201920190614d02565b50826040015160800151600360006008548152602001908152602001600020600401908051906020019061362e929190614d02565b50826040015160a001516003600060085481526020019081526020016000206005019080519060200190613663929190614d02565b50826040015160c001516003600060085481526020019081526020016000206006019080519060200190613698929190614d02565b50600880546000908152600360209081526040808320600701805460ff1916600117905586810151610100015184548452922082516136df94919091019290910190614d02565b50826040015161012001516003600060085481526020019081526020016000206009019080519060200190613715929190614d02565b5082604001516101400151600360006008548152602001908152602001600020600a01908051906020019061374b929190614d02565b5082604001516101600151600360006008548152602001908152602001600020600b019080519060200190613781929190614d02565b5082604001516101800151600360006008548152602001908152602001600020600c0190805190602001906137b7929190614d02565b5082604001516101a00151600360006008548152602001908152602001600020600d0190805190602001906137ed929190614d02565b5033600090815260046020908152604091829020805460ff191660019081178255868401519093015180516138289492909201920190614d02565b5060085433600090815260046020908152604082206002019290925560118301819055601083015542601283015560c0840151601383015560e0840151601483015561010084015180516138829260158501920190614d02565b50610120830151805161389f916016840191602090910190614d02565b5061014083015180516138bc916017840191602090910190614d02565b5061010083015180516138d9916015840191602090910190614d02565b5061016083015180516138f6916018840191602090910190614d02565b506101808301518051613913916019840191602090910190614d02565b50601a8101805461ffff19908116909155601d820180549091169055601f8101805460ff191690556000601e8201819055601b8201819055601c8201556007546006546009546012840154601385015460148601546040517f7c8a17aaa539b5bb8a8ea1700d5c6e2008e7baa2a6f82e7cd29308dbba896d7d966139bc969095339591949093919290919060158b019060168c019060178d019060188e019060198f0190615ab3565b60405180910390a1505050565b6000811180156139db57506007548111155b6139f75760405162461bcd60e51b81526004016104d190615850565b6000818152600160208190526040909120601a8101805461ff001916905590810180546001600160a01b03198082166001600160a01b0392831617909255600383018054928316929091169190911790556004810180548291829160028301918291819061250290615bc5565b600081118015613a7657506007548111155b613a7f57600080fd5b60008181526001602052604090206014810154601182015410613aac57601a8101805460ff191660011790555b60018101546001600160a01b03166011600a6000613aca8383614b20565b905060646000613ada8284614b20565b90506000613ae83483614b20565b90506001600160a01b0387166108fc613b013484614b33565b6040518115909202916000818181858888f19350505050158015613b29573d6000803e3d6000fd5b506005546040516001600160a01b0390911690819083156108fc029084906000818181858888f19350505050158015613b66573d6000803e3d6000fd5b5034600954613b759190615b76565b6009556011890154613b88903490615b76565b60118a01556010890154613b9d906001615b76565b60108a015560068054906000613bb283615c00565b91905055508860100154600260008b60000154815260200190815260200160002060008b6010015481526020019081526020016000206000018190555034600260008b60000154815260200190815260200160002060008b6010015481526020019081526020016000206001018190555042600260008b60000154815260200190815260200160002060008b6010015481526020019081526020016000206002018190555033600260008b60000154815260200190815260200160002060008b60100154815260200190815260200160002060030160006101000a8154816001600160a01b0302191690836001600160a01b0316021790555088600160008c8152602001908152602001600020600082015481600001556001820160009054906101000a90046001600160a01b03168160010160006101000a8154816001600160a01b0302191690836001600160a01b031602179055506002820181600201600082015481600001556001820160009054906101000a90046001600160a01b03168160010160006101000a8154816001600160a01b0302191690836001600160a01b031602179055506002820181600201908054613d6f90615bc5565b613d7a929190614b3f565b506003820181600301908054613d8f90615bc5565b613d9a929190614b3f565b506004820181600401908054613daf90615bc5565b613dba929190614b3f565b506005820181600501908054613dcf90615bc5565b613dda929190614b3f565b506006820181600601908054613def90615bc5565b613dfa929190614b3f565b50600782810154908201805460ff191660ff90921615159190911790556008808301805491830191613e2b90615bc5565b613e36929190614b3f565b506009820181600901908054613e4b90615bc5565b613e56929190614b3f565b50600a820181600a01908054613e6b90615bc5565b613e76929190614b3f565b50600b820181600b01908054613e8b90615bc5565b613e96929190614b3f565b50600c820181600c01908054613eab90615bc5565b613eb6929190614b3f565b50600d820181600d01908054613ecb90615bc5565b613ed6929190614b3f565b50505060108201548160100155601182015481601101556012820154816012015560138201548160130155601482015481601401556015820181601501908054613f1f90615bc5565b613f2a929190614b3f565b506016820181601601908054613f3f90615bc5565b613f4a929190614b3f565b506017820181601701908054613f5f90615bc5565b613f6a929190614b3f565b506018820181601801908054613f7f90615bc5565b613f8a929190614b3f565b506019820181601901908054613f9f90615bc5565b613faa929190614b3f565b50601a8281018054918301805460ff938416151560ff198083168217845593546101009081900486161515810261ff001992831661ffff199485161717909355601b8088015490870155601c8088015490870155601d808801805491880180549288161515838816811782559154869004881615159095029216921691909117179055601e8085015490840155601f938401549390920180549390911615159290911691909117905550505050505050505050565b614067614bc6565b600082815260016020526040902054821415614ac55760008281526001602081815260409283902083516101c0808201865282548252938201546001600160a01b039081168285015285519485018652600283018054865260038401549091169385019390935260048201805491959294868401949093909290840191906140ee90615bc5565b80601f016020809104026020016040519081016040528092919081815260200182805461411a90615bc5565b80156141675780601f1061413c57610100808354040283529160200191614167565b820191906000526020600020905b81548152906001019060200180831161414a57829003601f168201915b5050505050815260200160038201805461418090615bc5565b80601f01602080910402602001604051908101604052809291908181526020018280546141ac90615bc5565b80156141f95780601f106141ce576101008083540402835291602001916141f9565b820191906000526020600020905b8154815290600101906020018083116141dc57829003601f168201915b5050505050815260200160048201805461421290615bc5565b80601f016020809104026020016040519081016040528092919081815260200182805461423e90615bc5565b801561428b5780601f106142605761010080835404028352916020019161428b565b820191906000526020600020905b81548152906001019060200180831161426e57829003601f168201915b505050505081526020016005820180546142a490615bc5565b80601f01602080910402602001604051908101604052809291908181526020018280546142d090615bc5565b801561431d5780601f106142f25761010080835404028352916020019161431d565b820191906000526020600020905b81548152906001019060200180831161430057829003601f168201915b5050505050815260200160068201805461433690615bc5565b80601f016020809104026020016040519081016040528092919081815260200182805461436290615bc5565b80156143af5780601f10614384576101008083540402835291602001916143af565b820191906000526020600020905b81548152906001019060200180831161439257829003601f168201915b5050509183525050600782015460ff16151560208201526008820180546040909201916143db90615bc5565b80601f016020809104026020016040519081016040528092919081815260200182805461440790615bc5565b80156144545780601f1061442957610100808354040283529160200191614454565b820191906000526020600020905b81548152906001019060200180831161443757829003601f168201915b5050505050815260200160098201805461446d90615bc5565b80601f016020809104026020016040519081016040528092919081815260200182805461449990615bc5565b80156144e65780601f106144bb576101008083540402835291602001916144e6565b820191906000526020600020905b8154815290600101906020018083116144c957829003601f168201915b50505050508152602001600a820180546144ff90615bc5565b80601f016020809104026020016040519081016040528092919081815260200182805461452b90615bc5565b80156145785780601f1061454d57610100808354040283529160200191614578565b820191906000526020600020905b81548152906001019060200180831161455b57829003601f168201915b50505050508152602001600b8201805461459190615bc5565b80601f01602080910402602001604051908101604052809291908181526020018280546145bd90615bc5565b801561460a5780601f106145df5761010080835404028352916020019161460a565b820191906000526020600020905b8154815290600101906020018083116145ed57829003601f168201915b50505050508152602001600c8201805461462390615bc5565b80601f016020809104026020016040519081016040528092919081815260200182805461464f90615bc5565b801561469c5780601f106146715761010080835404028352916020019161469c565b820191906000526020600020905b81548152906001019060200180831161467f57829003601f168201915b50505050508152602001600d820180546146b590615bc5565b80601f01602080910402602001604051908101604052809291908181526020018280546146e190615bc5565b801561472e5780601f106147035761010080835404028352916020019161472e565b820191906000526020600020905b81548152906001019060200180831161471157829003601f168201915b5050505050815250508152602001601082015481526020016011820154815260200160128201548152602001601382015481526020016014820154815260200160158201805461477d90615bc5565b80601f01602080910402602001604051908101604052809291908181526020018280546147a990615bc5565b80156147f65780601f106147cb576101008083540402835291602001916147f6565b820191906000526020600020905b8154815290600101906020018083116147d957829003601f168201915b5050505050815260200160168201805461480f90615bc5565b80601f016020809104026020016040519081016040528092919081815260200182805461483b90615bc5565b80156148885780601f1061485d57610100808354040283529160200191614888565b820191906000526020600020905b81548152906001019060200180831161486b57829003601f168201915b505050505081526020016017820180546148a190615bc5565b80601f01602080910402602001604051908101604052809291908181526020018280546148cd90615bc5565b801561491a5780601f106148ef5761010080835404028352916020019161491a565b820191906000526020600020905b8154815290600101906020018083116148fd57829003601f168201915b5050505050815260200160188201805461493390615bc5565b80601f016020809104026020016040519081016040528092919081815260200182805461495f90615bc5565b80156149ac5780601f10614981576101008083540402835291602001916149ac565b820191906000526020600020905b81548152906001019060200180831161498f57829003601f168201915b505050505081526020016019820180546149c590615bc5565b80601f01602080910402602001604051908101604052809291908181526020018280546149f190615bc5565b8015614a3e5780601f10614a1357610100808354040283529160200191614a3e565b820191906000526020600020905b815481529060010190602001808311614a2157829003601f168201915b5050509183525050604080516101008082018352601a85015460ff808216151584529082900481161515602084810191909152601b87015494840194909452601c8601546060840152601d86015480821615156080850152919091048116151560a0830152601e85015460c0830152601f90940154909316151560e0840152015292915050565b919050565b600080821215614b1c5760405162461bcd60e51b815260206004820181905260248201527f53616665436173743a2076616c7565206d75737420626520706f73697469766560448201526064016104d1565b5090565b6000614b2c8284615b8e565b9392505050565b6000614b2c8284615bae565b828054614b4b90615bc5565b90600052602060002090601f016020900481019282614b6d5760008555614bba565b82601f10614b7e5780548555614bba565b82800160010185558215614bba57600052602060002091601f016020900482015b82811115614bba578254825591600101919060010190614b9f565b50614b1c929150614d76565b604080516101c08101825260008082526020820152908101614be6614c88565b815260200160008152602001600081526020016000815260200160008152602001600081526020016060815260200160608152602001606081526020016060815260200160608152602001614c836040518061010001604052806000151581526020016000151581526020016000815260200160008152602001600015158152602001600015158152602001600081526020016000151581525090565b905290565b604051806101c001604052806000815260200160006001600160a01b0316815260200160608152602001606081526020016060815260200160608152602001606081526020016000151581526020016060815260200160608152602001606081526020016060815260200160608152602001606081525090565b828054614d0e90615bc5565b90600052602060002090601f016020900481019282614d305760008555614bba565b82601f10614d4957805160ff1916838001178555614bba565b82800160010185558215614bba579182015b82811115614bba578251825591602001919060010190614d5b565b5b80821115614b1c5760008155600101614d77565b8035614ac581615c47565b80358015158114614ac557600080fd5b600082601f830112614db6578081fd5b81356001600160401b0380821115614dd057614dd0615c31565b604051601f8301601f19908116603f01168101908282118183101715614df857614df8615c31565b81604052838152866020858801011115614e10578485fd5b8360208701602083013792830160200193909352509392505050565b6000610100808385031215614e3f578182fd5b604051908101906001600160401b0382118183101715614e6157614e61615c31565b81604052809250614e7184614d96565b8152614e7f60208501614d96565b60208201526040840135604082015260608401356060820152614ea460808501614d96565b6080820152614eb560a08501614d96565b60a082015260c084013560c0820152614ed060e08501614d96565b60e0820152505092915050565b60006101c08284031215614eef578081fd5b614ef7615b4d565b905081358152614f0960208301614d8b565b602082015260408201356001600160401b0380821115614f2857600080fd5b614f3485838601614da6565b60408401526060840135915080821115614f4d57600080fd5b614f5985838601614da6565b60608401526080840135915080821115614f7257600080fd5b614f7e85838601614da6565b608084015260a0840135915080821115614f9757600080fd5b614fa385838601614da6565b60a084015260c0840135915080821115614fbc57600080fd5b614fc885838601614da6565b60c0840152614fd960e08501614d96565b60e084015261010091508184013581811115614ff457600080fd5b61500086828701614da6565b83850152506101209150818401358181111561501b57600080fd5b61502786828701614da6565b83850152506101409150818401358181111561504257600080fd5b61504e86828701614da6565b83850152506101609150818401358181111561506957600080fd5b61507586828701614da6565b83850152506101809150818401358181111561509057600080fd5b61509c86828701614da6565b83850152506101a0915081840135818111156150b757600080fd5b6150c386828701614da6565b8385015250505092915050565b80516001600160501b0381168114614ac557600080fd5b6000602082840312156150f8578081fd5b8135614b2c81615c47565b60008060408385031215615115578081fd5b82356001600160401b038082111561512b578283fd5b908401906102a0828703121561513f578283fd5b615147615b4d565b8235815261515760208401614d8b565b602082015260408301358281111561516d578485fd5b61517988828601614edd565b604083015250606083013560608201526080830135608082015260a083013560a082015260c083013560c082015260e083013560e082015261010080840135838111156151c4578586fd5b6151d089828701614da6565b82840152505061012080840135838111156151e9578586fd5b6151f589828701614da6565b828401525050610140808401358381111561520e578586fd5b61521a89828701614da6565b8284015250506101608084013583811115615233578586fd5b61523f89828701614da6565b8284015250506101808084013583811115615258578586fd5b61526489828701614da6565b8284015250506101a0915061527b87838501614e2c565b9181019190915295602094909401359450505050565b6000602082840312156152a2578081fd5b5035919050565b600080604083850312156152bb578182fd5b50508035926020909101359150565b6000806000606084860312156152de578081fd5b505081359360208301359350604090920135919050565b600080600080600060a0868803121561530c578081fd5b615315866150d0565b9450602086015193506040860151925060608601519150615338608087016150d0565b90509295509295909350565b6001600160a01b03169052565b60008151808452815b818110156153765760208185018101518683018201520161535a565b818111156153875782602083870101525b50601f01601f19169290920160200192915050565b8054600090600181811c90808316806153b657607f831692505b60208084108214156153d657634e487b7160e01b86526022600452602486fd5b838852602088018280156153f157600181146154025761542d565b60ff1987168252828201975061542d565b60008981526020902060005b878110156154275781548482015290860190840161540e565b83019850505b5050505050505092915050565b60006102a08251845260208301516154556020860182615344565b50604083015181604086015261546d828601826155a3565b915050606083015160608501526080830151608085015260a083015160a085015260c083015160c085015260e083015160e085015261010080840151858303828701526154ba8382615351565b9250505061012080840151858303828701526154d68382615351565b9250505061014080840151858303828701526154f28382615351565b92505050610160808401518583038287015261550e8382615351565b92505050610180808401518583038287015261552a8382615351565b925050506101a0808401516155418287018261554b565b5090949350505050565b805115158252602081015115156020830152604081015160408301526060810151606083015260808101511515608083015260a0810151151560a083015260c081015160c083015260e0810151151560e08301525050565b60006101c08251845260208301516155be6020860182615344565b5060408301518160408601526155d682860182615351565b915050606083015184820360608601526155f08282615351565b9150506080830151848203608086015261560a8282615351565b91505060a083015184820360a08601526156248282615351565b91505060c083015184820360c086015261563e8282615351565b91505060e083015161565460e086018215159052565b50610100808401518583038287015261566d8382615351565b9250505061012080840151858303828701526156898382615351565b9250505061014080840151858303828701526156a58382615351565b9250505061016080840151858303828701526156c18382615351565b9250505061018080840151858303828701526156dd8382615351565b925050506101a080840151858303828701526156f98382615351565b9695505050505050565b6000602080830181845280855180835260408601915060408160051b8701019250838701855b8281101561575757603f1988860301845261574585835161543a565b94509285019290850190600101615729565b5092979650505050505050565b602080825282518282018190526000919060409081850190868401855b828110156157c457815180518552868101518786015285810151868601526060908101516001600160a01b03169085015260809093019290850190600101615781565b5091979650505050505050565b6000602080830181845280855180835260408601915060408160051b8701019250838701855b8281101561575757603f198886030184526158138583516155a3565b945092850192908501906001016157f7565b83151581526060602082015260006158406060830185615351565b9050826040830152949350505050565b602080825260159082015274191bdb985d1a5bdb881a59081b9bdd081d985b1a59605a1b604082015260600190565b602081526000614b2c602083018461543a565b6020815281511515602082015260006020830151606060408401526158ba6080840182615351565b9050604084015160608401528091505092915050565b8e81526158e0602082018f615344565b6102a0604082015260006158f86102a083018f6155a3565b8d60608401528c60808401528b60a08401528a60c08401528960e0840152828103610100840152615929818a615351565b905082810361012084015261593e8189615351565b90508281036101408401526159538188615351565b90508281036101608401526159688187615351565b905082810361018084015261597d8186615351565b91505061598e6101a083018461554b565b9f9e505050505050505050505050505050565b8e81526159b1602082018f615344565b6101c0604082015260006159c96101c083018f615351565b82810360608401526159db818f615351565b905082810360808401526159ef818e615351565b905082810360a0840152615a03818d615351565b905082810360c0840152615a17818c615351565b8a151560e08501529050828103610100840152615a34818a615351565b9050828103610120840152615a498189615351565b9050828103610140840152615a5e8188615351565b9050828103610160840152615a738187615351565b9050828103610180840152615a888186615351565b90508281036101a0840152615a9d8185615351565b9150509f9e505050505050505050505050505050565b60006101808e835260018060a01b038e1660208401528c60408401528b60608401528a60808401528960a08401528860c08401528060e0840152615af98184018961539c565b9050828103610100840152615b0e818861539c565b9050828103610120840152615b23818761539c565b9050828103610140840152615b38818661539c565b905082810361016084015261598e818561539c565b6040516101c081016001600160401b0381118282101715615b7057615b70615c31565b60405290565b60008219821115615b8957615b89615c1b565b500190565b600082615ba957634e487b7160e01b81526012600452602481fd5b500490565b600082821015615bc057615bc0615c1b565b500390565b600181811c90821680615bd957607f821691505b60208210811415615bfa57634e487b7160e01b600052602260045260246000fd5b50919050565b6000600019821415615c1457615c14615c1b565b5060010190565b634e487b7160e01b600052601160045260246000fd5b634e487b7160e01b600052604160045260246000fd5b6001600160a01b0381168114615c5c57600080fd5b5056fea2646970667358221220fbe1b8bb1536ecfd5ae521990b97c8628e8abc8d52970b77b8458b7c58a4fa2964736f6c63430008040033","opcodes":"PUSH1 0x80 PUSH1 0x40 MSTORE CALLVALUE DUP1 ISZERO PUSH3 0x11 JUMPI PUSH1 0x0 DUP1 REVERT JUMPDEST POP PUSH1 0x40 MLOAD PUSH3 0x5D4C CODESIZE SUB DUP1 PUSH3 0x5D4C DUP4 CODECOPY DUP2 ADD PUSH1 0x40 DUP2 SWAP1 MSTORE PUSH3 0x34 SWAP2 PUSH3 0x77 JUMP JUMPDEST PUSH1 0x5 DUP1 SLOAD PUSH1 0x1 PUSH1 0x1 PUSH1 0xA0 SHL SUB SWAP1 SWAP3 AND PUSH1 0x1 PUSH1 0x1 PUSH1 0xA0 SHL SUB NOT SWAP3 DUP4 AND OR SWAP1 SSTORE PUSH1 0x0 DUP1 SLOAD SWAP1 SWAP2 AND PUSH20 0x9326BFA02ADD2366B30BACB125260AF641031331 OR SWAP1 SSTORE PUSH3 0xA7 JUMP JUMPDEST PUSH1 0x0 PUSH1 0x20 DUP3 DUP5 SUB SLT ISZERO PUSH3 0x89 JUMPI DUP1 DUP2 REVERT JUMPDEST DUP2 MLOAD PUSH1 0x1 PUSH1 0x1 PUSH1 0xA0 SHL SUB DUP2 AND DUP2 EQ PUSH3 0xA0 JUMPI DUP2 DUP3 REVERT JUMPDEST SWAP4 SWAP3 POP POP POP JUMP JUMPDEST PUSH2 0x5C95 DUP1 PUSH3 0xB7 PUSH1 0x0 CODECOPY PUSH1 0x0 RETURN INVALID PUSH1 0x80 PUSH1 0x40 MSTORE PUSH1 0x4 CALLDATASIZE LT PUSH2 0xEF JUMPI PUSH1 0x0 CALLDATALOAD PUSH1 0xE0 SHR DUP1 PUSH4 0xE50CEE5 EQ PUSH2 0xF4 JUMPI DUP1 PUSH4 0x2ABFAB4D EQ PUSH2 0x12C JUMPI DUP1 PUSH4 0x32536A53 EQ PUSH2 0x150 JUMPI DUP1 PUSH4 0x365B98B2 EQ PUSH2 0x165 JUMPI DUP1 PUSH4 0x3776EAC6 EQ PUSH2 0x19F JUMPI DUP1 PUSH4 0x3F27607D EQ PUSH2 0x1C1 JUMPI DUP1 PUSH4 0x43AE959C EQ PUSH2 0x1FB JUMPI DUP1 PUSH4 0x51C7BD4B EQ PUSH2 0x211 JUMPI DUP1 PUSH4 0x568FEFBF EQ PUSH2 0x231 JUMPI DUP1 PUSH4 0x5FC2A547 EQ PUSH2 0x2AF JUMPI DUP1 PUSH4 0x6BA13A82 EQ PUSH2 0x2DC JUMPI DUP1 PUSH4 0x7B3E5E7B EQ PUSH2 0x2F2 JUMPI DUP1 PUSH4 0x873138F3 EQ PUSH2 0x308 JUMPI DUP1 PUSH4 0xBB27E0CE EQ PUSH2 0x32A JUMPI DUP1 PUSH4 0xC3374315 EQ PUSH2 0x33F JUMPI DUP1 PUSH4 0xC69F34A3 EQ PUSH2 0x361 JUMPI DUP1 PUSH4 0xC6E251A9 EQ PUSH2 0x381 JUMPI DUP1 PUSH4 0xCAC83CB1 EQ PUSH2 0x394 JUMPI DUP1 PUSH4 0xD8251A14 EQ PUSH2 0x3B4 JUMPI DUP1 PUSH4 0xEF07A81F EQ PUSH2 0x3C7 JUMPI JUMPDEST PUSH1 0x0 DUP1 REVERT JUMPDEST CALLVALUE DUP1 ISZERO PUSH2 0x100 JUMPI PUSH1 0x0 DUP1 REVERT JUMPDEST POP PUSH2 0x114 PUSH2 0x10F CALLDATASIZE PUSH1 0x4 PUSH2 0x50E7 JUMP JUMPDEST PUSH2 0x3F4 JUMP JUMPDEST PUSH1 0x40 MLOAD PUSH2 0x123 SWAP4 SWAP3 SWAP2 SWAP1 PUSH2 0x5825 JUMP JUMPDEST PUSH1 0x40 MLOAD DUP1 SWAP2 SUB SWAP1 RETURN JUMPDEST CALLVALUE DUP1 ISZERO PUSH2 0x138 JUMPI PUSH1 0x0 DUP1 REVERT JUMPDEST POP PUSH2 0x142 PUSH1 0x7 SLOAD DUP2 JUMP JUMPDEST PUSH1 0x40 MLOAD SWAP1 DUP2 MSTORE PUSH1 0x20 ADD PUSH2 0x123 JUMP JUMPDEST PUSH2 0x163 PUSH2 0x15E CALLDATASIZE PUSH1 0x4 PUSH2 0x52CA JUMP JUMPDEST PUSH2 0x4A3 JUMP JUMPDEST STOP JUMPDEST CALLVALUE DUP1 ISZERO PUSH2 0x171 JUMPI PUSH1 0x0 DUP1 REVERT JUMPDEST POP PUSH2 0x185 PUSH2 0x180 CALLDATASIZE PUSH1 0x4 PUSH2 0x5291 JUMP JUMPDEST PUSH2 0x8E6 JUMP JUMPDEST PUSH1 0x40 MLOAD PUSH2 0x123 SWAP15 SWAP14 SWAP13 SWAP12 SWAP11 SWAP10 SWAP9 SWAP8 SWAP7 SWAP6 SWAP5 SWAP4 SWAP3 SWAP2 SWAP1 PUSH2 0x59A1 JUMP JUMPDEST CALLVALUE DUP1 ISZERO PUSH2 0x1AB JUMPI PUSH1 0x0 DUP1 REVERT JUMPDEST POP PUSH2 0x1B4 PUSH2 0xF36 JUMP JUMPDEST PUSH1 0x40 MLOAD PUSH2 0x123 SWAP2 SWAP1 PUSH2 0x5703 JUMP JUMPDEST CALLVALUE DUP1 ISZERO PUSH2 0x1CD JUMPI PUSH1 0x0 DUP1 REVERT JUMPDEST POP PUSH2 0x1E1 PUSH2 0x1DC CALLDATASIZE PUSH1 0x4 PUSH2 0x5291 JUMP JUMPDEST PUSH2 0x1A56 JUMP JUMPDEST PUSH1 0x40 MLOAD PUSH2 0x123 SWAP15 SWAP14 SWAP13 SWAP12 SWAP11 SWAP10 SWAP9 SWAP8 SWAP7 SWAP6 SWAP5 SWAP4 SWAP3 SWAP2 SWAP1 PUSH2 0x58D0 JUMP JUMPDEST CALLVALUE DUP1 ISZERO PUSH2 0x207 JUMPI PUSH1 0x0 DUP1 REVERT JUMPDEST POP PUSH2 0x142 PUSH1 0x6 SLOAD DUP2 JUMP JUMPDEST CALLVALUE DUP1 ISZERO PUSH2 0x21D JUMPI PUSH1 0x0 DUP1 REVERT JUMPDEST POP PUSH2 0x163 PUSH2 0x22C CALLDATASIZE PUSH1 0x4 PUSH2 0x5291 JUMP JUMPDEST PUSH2 0x2459 JUMP JUMPDEST CALLVALUE DUP1 ISZERO PUSH2 0x23D JUMPI PUSH1 0x0 DUP1 REVERT JUMPDEST POP PUSH2 0x286 PUSH2 0x24C CALLDATASIZE PUSH1 0x4 PUSH2 0x52A9 JUMP JUMPDEST PUSH1 0x2 PUSH1 0x20 DUP2 DUP2 MSTORE PUSH1 0x0 SWAP4 DUP5 MSTORE PUSH1 0x40 DUP1 DUP6 KECCAK256 SWAP1 SWAP2 MSTORE SWAP2 DUP4 MSTORE SWAP2 KECCAK256 DUP1 SLOAD PUSH1 0x1 DUP3 ADD SLOAD SWAP3 DUP3 ADD SLOAD PUSH1 0x3 SWAP1 SWAP3 ADD SLOAD SWAP1 SWAP3 SWAP2 SWAP1 PUSH1 0x1 PUSH1 0x1 PUSH1 0xA0 SHL SUB AND DUP5 JUMP JUMPDEST PUSH1 0x40 DUP1 MLOAD SWAP5 DUP6 MSTORE PUSH1 0x20 DUP6 ADD SWAP4 SWAP1 SWAP4 MSTORE SWAP2 DUP4 ADD MSTORE PUSH1 0x1 PUSH1 0x1 PUSH1 0xA0 SHL SUB AND PUSH1 0x60 DUP3 ADD MSTORE PUSH1 0x80 ADD PUSH2 0x123 JUMP JUMPDEST CALLVALUE DUP1 ISZERO PUSH2 0x2BB JUMPI PUSH1 0x0 DUP1 REVERT JUMPDEST POP PUSH2 0x2CF PUSH2 0x2CA CALLDATASIZE PUSH1 0x4 PUSH2 0x5291 JUMP JUMPDEST PUSH2 0x27EA JUMP JUMPDEST PUSH1 0x40 MLOAD PUSH2 0x123 SWAP2 SWAP1 PUSH2 0x5764 JUMP JUMPDEST CALLVALUE DUP1 ISZERO PUSH2 0x2E8 JUMPI PUSH1 0x0 DUP1 REVERT JUMPDEST POP PUSH2 0x142 PUSH1 0x8 SLOAD DUP2 JUMP JUMPDEST CALLVALUE DUP1 ISZERO PUSH2 0x2FE JUMPI PUSH1 0x0 DUP1 REVERT JUMPDEST POP PUSH2 0x142 PUSH1 0x9 SLOAD DUP2 JUMP JUMPDEST CALLVALUE DUP1 ISZERO PUSH2 0x314 JUMPI PUSH1 0x0 DUP1 REVERT JUMPDEST POP PUSH2 0x31D PUSH2 0x2952 JUMP JUMPDEST PUSH1 0x40 MLOAD PUSH2 0x123 SWAP2 SWAP1 PUSH2 0x5892 JUMP JUMPDEST CALLVALUE DUP1 ISZERO PUSH2 0x336 JUMPI PUSH1 0x0 DUP1 REVERT JUMPDEST POP PUSH2 0x142 PUSH2 0x2A98 JUMP JUMPDEST CALLVALUE DUP1 ISZERO PUSH2 0x34B JUMPI PUSH1 0x0 DUP1 REVERT JUMPDEST POP PUSH2 0x354 PUSH2 0x2B2A JUMP JUMPDEST PUSH1 0x40 MLOAD PUSH2 0x123 SWAP2 SWAP1 PUSH2 0x57D1 JUMP JUMPDEST CALLVALUE DUP1 ISZERO PUSH2 0x36D JUMPI PUSH1 0x0 DUP1 REVERT JUMPDEST POP PUSH2 0x163 PUSH2 0x37C CALLDATASIZE PUSH1 0x4 PUSH2 0x5291 JUMP JUMPDEST PUSH2 0x3294 JUMP JUMPDEST PUSH2 0x163 PUSH2 0x38F CALLDATASIZE PUSH1 0x4 PUSH2 0x5103 JUMP JUMPDEST PUSH2 0x3391 JUMP JUMPDEST CALLVALUE DUP1 ISZERO PUSH2 0x3A0 JUMPI PUSH1 0x0 DUP1 REVERT JUMPDEST POP PUSH2 0x163 PUSH2 0x3AF CALLDATASIZE PUSH1 0x4 PUSH2 0x5291 JUMP JUMPDEST PUSH2 0x39C9 JUMP JUMPDEST PUSH2 0x163 PUSH2 0x3C2 CALLDATASIZE PUSH1 0x4 PUSH2 0x5291 JUMP JUMPDEST PUSH2 0x3A64 JUMP JUMPDEST CALLVALUE DUP1 ISZERO PUSH2 0x3D3 JUMPI PUSH1 0x0 DUP1 REVERT JUMPDEST POP PUSH2 0x3E7 PUSH2 0x3E2 CALLDATASIZE PUSH1 0x4 PUSH2 0x5291 JUMP JUMPDEST PUSH2 0x405F JUMP JUMPDEST PUSH1 0x40 MLOAD PUSH2 0x123 SWAP2 SWAP1 PUSH2 0x587F JUMP JUMPDEST PUSH1 0x4 PUSH1 0x20 MSTORE PUSH1 0x0 SWAP1 DUP2 MSTORE PUSH1 0x40 SWAP1 KECCAK256 DUP1 SLOAD PUSH1 0x1 DUP3 ADD DUP1 SLOAD PUSH1 0xFF SWAP1 SWAP3 AND SWAP3 SWAP2 PUSH2 0x41A SWAP1 PUSH2 0x5BC5 JUMP JUMPDEST DUP1 PUSH1 0x1F ADD PUSH1 0x20 DUP1 SWAP2 DIV MUL PUSH1 0x20 ADD PUSH1 0x40 MLOAD SWAP1 DUP2 ADD PUSH1 0x40 MSTORE DUP1 SWAP3 SWAP2 SWAP1 DUP2 DUP2 MSTORE PUSH1 0x20 ADD DUP3 DUP1 SLOAD PUSH2 0x446 SWAP1 PUSH2 0x5BC5 JUMP JUMPDEST DUP1 ISZERO PUSH2 0x493 JUMPI DUP1 PUSH1 0x1F LT PUSH2 0x468 JUMPI PUSH2 0x100 DUP1 DUP4 SLOAD DIV MUL DUP4 MSTORE SWAP2 PUSH1 0x20 ADD SWAP2 PUSH2 0x493 JUMP JUMPDEST DUP3 ADD SWAP2 SWAP1 PUSH1 0x0 MSTORE PUSH1 0x20 PUSH1 0x0 KECCAK256 SWAP1 JUMPDEST DUP2 SLOAD DUP2 MSTORE SWAP1 PUSH1 0x1 ADD SWAP1 PUSH1 0x20 ADD DUP1 DUP4 GT PUSH2 0x476 JUMPI DUP3 SWAP1 SUB PUSH1 0x1F AND DUP3 ADD SWAP2 JUMPDEST POP POP POP POP POP SWAP1 DUP1 PUSH1 0x2 ADD SLOAD SWAP1 POP DUP4 JUMP JUMPDEST PUSH1 0x0 DUP4 GT DUP1 ISZERO PUSH2 0x4B5 JUMPI POP PUSH1 0x7 SLOAD DUP4 GT ISZERO JUMPDEST PUSH2 0x4DA JUMPI PUSH1 0x40 MLOAD PUSH3 0x461BCD PUSH1 0xE5 SHL DUP2 MSTORE PUSH1 0x4 ADD PUSH2 0x4D1 SWAP1 PUSH2 0x5850 JUMP JUMPDEST PUSH1 0x40 MLOAD DUP1 SWAP2 SUB SWAP1 REVERT JUMPDEST PUSH1 0x0 DUP4 DUP2 MSTORE PUSH1 0x1 PUSH1 0x20 MSTORE PUSH1 0x40 SWAP1 KECCAK256 PUSH1 0x1A DUP2 ADD SLOAD PUSH2 0x100 SWAP1 DIV PUSH1 0xFF AND ISZERO PUSH2 0x4FF JUMPI PUSH1 0x0 DUP1 REVERT JUMPDEST PUSH1 0x1D DUP2 ADD SLOAD PUSH1 0xFF PUSH2 0x100 SWAP1 SWAP2 DIV AND ISZERO ISZERO PUSH1 0x1 EQ PUSH2 0x51B JUMPI PUSH1 0x0 DUP1 REVERT JUMPDEST PUSH1 0x1C DUP2 ADD SLOAD TIMESTAMP GT PUSH2 0x52B JUMPI PUSH1 0x0 DUP1 REVERT JUMPDEST PUSH1 0x5 SLOAD PUSH1 0x40 MLOAD PUSH1 0x1 PUSH1 0x1 PUSH1 0xA0 SHL SUB SWAP1 SWAP2 AND SWAP1 DUP2 SWAP1 CALLVALUE DUP1 ISZERO PUSH2 0x8FC MUL SWAP2 PUSH1 0x0 DUP2 DUP2 DUP2 DUP6 DUP9 DUP9 CALL SWAP4 POP POP POP POP ISZERO DUP1 ISZERO PUSH2 0x566 JUMPI RETURNDATASIZE PUSH1 0x0 DUP1 RETURNDATACOPY RETURNDATASIZE PUSH1 0x0 REVERT JUMPDEST POP PUSH1 0x1B DUP3 ADD DUP5 SWAP1 SSTORE PUSH1 0x1C DUP3 ADD DUP4 SWAP1 SSTORE PUSH1 0x1A DUP3 ADD DUP1 SLOAD PUSH2 0xFF00 NOT AND PUSH2 0x100 OR SWAP1 SSTORE PUSH1 0x0 DUP6 DUP2 MSTORE PUSH1 0x1 PUSH1 0x20 DUP2 SWAP1 MSTORE PUSH1 0x40 SWAP1 SWAP2 KECCAK256 DUP4 SLOAD DUP2 SSTORE DUP2 DUP5 ADD SLOAD SWAP2 DUP2 ADD DUP1 SLOAD PUSH1 0x1 PUSH1 0x1 PUSH1 0xA0 SHL SUB NOT SWAP1 DUP2 AND PUSH1 0x1 PUSH1 0x1 PUSH1 0xA0 SHL SUB SWAP5 DUP6 AND OR SWAP1 SWAP2 SSTORE PUSH1 0x2 DUP1 DUP7 ADD DUP1 SLOAD SWAP2 DUP5 ADD SWAP2 DUP3 SSTORE PUSH1 0x3 DUP1 DUP9 ADD SLOAD SWAP1 DUP6 ADD DUP1 SLOAD SWAP1 SWAP5 AND SWAP6 AND SWAP5 SWAP1 SWAP5 OR SWAP1 SWAP2 SSTORE PUSH1 0x4 DUP1 DUP7 ADD DUP1 SLOAD DUP8 SWAP6 SWAP4 SWAP3 DUP6 ADD SWAP2 SWAP1 PUSH2 0x5FB SWAP1 PUSH2 0x5BC5 JUMP JUMPDEST PUSH2 0x606 SWAP3 SWAP2 SWAP1 PUSH2 0x4B3F JUMP JUMPDEST POP PUSH1 0x3 DUP3 ADD DUP2 PUSH1 0x3 ADD SWAP1 DUP1 SLOAD PUSH2 0x61B SWAP1 PUSH2 0x5BC5 JUMP JUMPDEST PUSH2 0x626 SWAP3 SWAP2 SWAP1 PUSH2 0x4B3F JUMP JUMPDEST POP PUSH1 0x4 DUP3 ADD DUP2 PUSH1 0x4 ADD SWAP1 DUP1 SLOAD PUSH2 0x63B SWAP1 PUSH2 0x5BC5 JUMP JUMPDEST PUSH2 0x646 SWAP3 SWAP2 SWAP1 PUSH2 0x4B3F JUMP JUMPDEST POP PUSH1 0x5 DUP3 ADD DUP2 PUSH1 0x5 ADD SWAP1 DUP1 SLOAD PUSH2 0x65B SWAP1 PUSH2 0x5BC5 JUMP JUMPDEST PUSH2 0x666 SWAP3 SWAP2 SWAP1 PUSH2 0x4B3F JUMP JUMPDEST POP PUSH1 0x6 DUP3 ADD DUP2 PUSH1 0x6 ADD SWAP1 DUP1 SLOAD PUSH2 0x67B SWAP1 PUSH2 0x5BC5 JUMP JUMPDEST PUSH2 0x686 SWAP3 SWAP2 SWAP1 PUSH2 0x4B3F JUMP JUMPDEST POP PUSH1 0x7 DUP3 DUP2 ADD SLOAD SWAP1 DUP3 ADD DUP1 SLOAD PUSH1 0xFF NOT AND PUSH1 0xFF SWAP1 SWAP3 AND ISZERO ISZERO SWAP2 SWAP1 SWAP2 OR SWAP1 SSTORE PUSH1 0x8 DUP1 DUP4 ADD DUP1 SLOAD SWAP2 DUP4 ADD SWAP2 PUSH2 0x6B7 SWAP1 PUSH2 0x5BC5 JUMP JUMPDEST PUSH2 0x6C2 SWAP3 SWAP2 SWAP1 PUSH2 0x4B3F JUMP JUMPDEST POP PUSH1 0x9 DUP3 ADD DUP2 PUSH1 0x9 ADD SWAP1 DUP1 SLOAD PUSH2 0x6D7 SWAP1 PUSH2 0x5BC5 JUMP JUMPDEST PUSH2 0x6E2 SWAP3 SWAP2 SWAP1 PUSH2 0x4B3F JUMP JUMPDEST POP PUSH1 0xA DUP3 ADD DUP2 PUSH1 0xA ADD SWAP1 DUP1 SLOAD PUSH2 0x6F7 SWAP1 PUSH2 0x5BC5 JUMP JUMPDEST PUSH2 0x702 SWAP3 SWAP2 SWAP1 PUSH2 0x4B3F JUMP JUMPDEST POP PUSH1 0xB DUP3 ADD DUP2 PUSH1 0xB ADD SWAP1 DUP1 SLOAD PUSH2 0x717 SWAP1 PUSH2 0x5BC5 JUMP JUMPDEST PUSH2 0x722 SWAP3 SWAP2 SWAP1 PUSH2 0x4B3F JUMP JUMPDEST POP PUSH1 0xC DUP3 ADD DUP2 PUSH1 0xC ADD SWAP1 DUP1 SLOAD PUSH2 0x737 SWAP1 PUSH2 0x5BC5 JUMP JUMPDEST PUSH2 0x742 SWAP3 SWAP2 SWAP1 PUSH2 0x4B3F JUMP JUMPDEST POP PUSH1 0xD DUP3 ADD DUP2 PUSH1 0xD ADD SWAP1 DUP1 SLOAD PUSH2 0x757 SWAP1 PUSH2 0x5BC5 JUMP JUMPDEST PUSH2 0x762 SWAP3 SWAP2 SWAP1 PUSH2 0x4B3F JUMP JUMPDEST POP POP POP PUSH1 0x10 DUP3 ADD SLOAD DUP2 PUSH1 0x10 ADD SSTORE PUSH1 0x11 DUP3 ADD SLOAD DUP2 PUSH1 0x11 ADD SSTORE PUSH1 0x12 DUP3 ADD SLOAD DUP2 PUSH1 0x12 ADD SSTORE PUSH1 0x13 DUP3 ADD SLOAD DUP2 PUSH1 0x13 ADD SSTORE PUSH1 0x14 DUP3 ADD SLOAD DUP2 PUSH1 0x14 ADD SSTORE PUSH1 0x15 DUP3 ADD DUP2 PUSH1 0x15 ADD SWAP1 DUP1 SLOAD PUSH2 0x7AB SWAP1 PUSH2 0x5BC5 JUMP JUMPDEST PUSH2 0x7B6 SWAP3 SWAP2 SWAP1 PUSH2 0x4B3F JUMP JUMPDEST POP PUSH1 0x16 DUP3 ADD DUP2 PUSH1 0x16 ADD SWAP1 DUP1 SLOAD PUSH2 0x7CB SWAP1 PUSH2 0x5BC5 JUMP JUMPDEST PUSH2 0x7D6 SWAP3 SWAP2 SWAP1 PUSH2 0x4B3F JUMP JUMPDEST POP PUSH1 0x17 DUP3 ADD DUP2 PUSH1 0x17 ADD SWAP1 DUP1 SLOAD PUSH2 0x7EB SWAP1 PUSH2 0x5BC5 JUMP JUMPDEST PUSH2 0x7F6 SWAP3 SWAP2 SWAP1 PUSH2 0x4B3F JUMP JUMPDEST POP PUSH1 0x18 DUP3 ADD DUP2 PUSH1 0x18 ADD SWAP1 DUP1 SLOAD PUSH2 0x80B SWAP1 PUSH2 0x5BC5 JUMP JUMPDEST PUSH2 0x816 SWAP3 SWAP2 SWAP1 PUSH2 0x4B3F JUMP JUMPDEST POP PUSH1 0x19 DUP3 ADD DUP2 PUSH1 0x19 ADD SWAP1 DUP1 SLOAD PUSH2 0x82B SWAP1 PUSH2 0x5BC5 JUMP JUMPDEST PUSH2 0x836 SWAP3 SWAP2 SWAP1 PUSH2 0x4B3F JUMP JUMPDEST POP PUSH1 0x1A DUP3 DUP2 ADD DUP1 SLOAD SWAP2 DUP4 ADD DUP1 SLOAD PUSH1 0xFF SWAP4 DUP5 AND ISZERO ISZERO PUSH1 0xFF NOT DUP1 DUP4 AND DUP3 OR DUP5 SSTORE SWAP4 SLOAD PUSH2 0x100 SWAP1 DUP2 SWAP1 DIV DUP7 AND ISZERO ISZERO DUP2 MUL PUSH2 0xFF00 NOT SWAP3 DUP4 AND PUSH2 0xFFFF NOT SWAP5 DUP6 AND OR OR SWAP1 SWAP4 SSTORE PUSH1 0x1B DUP1 DUP9 ADD SLOAD SWAP1 DUP8 ADD SSTORE PUSH1 0x1C DUP1 DUP9 ADD SLOAD SWAP1 DUP8 ADD SSTORE PUSH1 0x1D DUP1 DUP9 ADD DUP1 SLOAD SWAP2 DUP9 ADD DUP1 SLOAD SWAP3 DUP9 AND ISZERO ISZERO DUP4 DUP9 AND DUP2 OR DUP3 SSTORE SWAP2 SLOAD DUP7 SWAP1 DIV DUP9 AND ISZERO ISZERO SWAP1 SWAP6 MUL SWAP3 AND SWAP3 AND SWAP2 SWAP1 SWAP2 OR OR SWAP1 SSTORE PUSH1 0x1E DUP1 DUP6 ADD SLOAD SWAP1 DUP5 ADD SSTORE PUSH1 0x1F SWAP4 DUP5 ADD SLOAD SWAP4 SWAP1 SWAP3 ADD DUP1 SLOAD SWAP4 SWAP1 SWAP2 AND ISZERO ISZERO SWAP3 SWAP1 SWAP2 AND SWAP2 SWAP1 SWAP2 OR SWAP1 SSTORE POP POP POP POP POP JUMP JUMPDEST PUSH1 0x3 PUSH1 0x20 MSTORE PUSH1 0x0 SWAP1 DUP2 MSTORE PUSH1 0x40 SWAP1 KECCAK256 DUP1 SLOAD PUSH1 0x1 DUP3 ADD SLOAD PUSH1 0x2 DUP4 ADD DUP1 SLOAD SWAP3 SWAP4 PUSH1 0x1 PUSH1 0x1 PUSH1 0xA0 SHL SUB SWAP1 SWAP3 AND SWAP3 PUSH2 0x918 SWAP1 PUSH2 0x5BC5 JUMP JUMPDEST DUP1 PUSH1 0x1F ADD PUSH1 0x20 DUP1 SWAP2 DIV MUL PUSH1 0x20 ADD PUSH1 0x40 MLOAD SWAP1 DUP2 ADD PUSH1 0x40 MSTORE DUP1 SWAP3 SWAP2 SWAP1 DUP2 DUP2 MSTORE PUSH1 0x20 ADD DUP3 DUP1 SLOAD PUSH2 0x944 SWAP1 PUSH2 0x5BC5 JUMP JUMPDEST DUP1 ISZERO PUSH2 0x991 JUMPI DUP1 PUSH1 0x1F LT PUSH2 0x966 JUMPI PUSH2 0x100 DUP1 DUP4 SLOAD DIV MUL DUP4 MSTORE SWAP2 PUSH1 0x20 ADD SWAP2 PUSH2 0x991 JUMP JUMPDEST DUP3 ADD SWAP2 SWAP1 PUSH1 0x0 MSTORE PUSH1 0x20 PUSH1 0x0 KECCAK256 SWAP1 JUMPDEST DUP2 SLOAD DUP2 MSTORE SWAP1 PUSH1 0x1 ADD SWAP1 PUSH1 0x20 ADD DUP1 DUP4 GT PUSH2 0x974 JUMPI DUP3 SWAP1 SUB PUSH1 0x1F AND DUP3 ADD SWAP2 JUMPDEST POP POP POP POP POP SWAP1 DUP1 PUSH1 0x3 ADD DUP1 SLOAD PUSH2 0x9A6 SWAP1 PUSH2 0x5BC5 JUMP JUMPDEST DUP1 PUSH1 0x1F ADD PUSH1 0x20 DUP1 SWAP2 DIV MUL PUSH1 0x20 ADD PUSH1 0x40 MLOAD SWAP1 DUP2 ADD PUSH1 0x40 MSTORE DUP1 SWAP3 SWAP2 SWAP1 DUP2 DUP2 MSTORE PUSH1 0x20 ADD DUP3 DUP1 SLOAD PUSH2 0x9D2 SWAP1 PUSH2 0x5BC5 JUMP JUMPDEST DUP1 ISZERO PUSH2 0xA1F JUMPI DUP1 PUSH1 0x1F LT PUSH2 0x9F4 JUMPI PUSH2 0x100 DUP1 DUP4 SLOAD DIV MUL DUP4 MSTORE SWAP2 PUSH1 0x20 ADD SWAP2 PUSH2 0xA1F JUMP JUMPDEST DUP3 ADD SWAP2 SWAP1 PUSH1 0x0 MSTORE PUSH1 0x20 PUSH1 0x0 KECCAK256 SWAP1 JUMPDEST DUP2 SLOAD DUP2 MSTORE SWAP1 PUSH1 0x1 ADD SWAP1 PUSH1 0x20 ADD DUP1 DUP4 GT PUSH2 0xA02 JUMPI DUP3 SWAP1 SUB PUSH1 0x1F AND DUP3 ADD SWAP2 JUMPDEST POP POP POP POP POP SWAP1 DUP1 PUSH1 0x4 ADD DUP1 SLOAD PUSH2 0xA34 SWAP1 PUSH2 0x5BC5 JUMP JUMPDEST DUP1 PUSH1 0x1F ADD PUSH1 0x20 DUP1 SWAP2 DIV MUL PUSH1 0x20 ADD PUSH1 0x40 MLOAD SWAP1 DUP2 ADD PUSH1 0x40 MSTORE DUP1 SWAP3 SWAP2 SWAP1 DUP2 DUP2 MSTORE PUSH1 0x20 ADD DUP3 DUP1 SLOAD PUSH2 0xA60 SWAP1 PUSH2 0x5BC5 JUMP JUMPDEST DUP1 ISZERO PUSH2 0xAAD JUMPI DUP1 PUSH1 0x1F LT PUSH2 0xA82 JUMPI PUSH2 0x100 DUP1 DUP4 SLOAD DIV MUL DUP4 MSTORE SWAP2 PUSH1 0x20 ADD SWAP2 PUSH2 0xAAD JUMP JUMPDEST DUP3 ADD SWAP2 SWAP1 PUSH1 0x0 MSTORE PUSH1 0x20 PUSH1 0x0 KECCAK256 SWAP1 JUMPDEST DUP2 SLOAD DUP2 MSTORE SWAP1 PUSH1 0x1 ADD SWAP1 PUSH1 0x20 ADD DUP1 DUP4 GT PUSH2 0xA90 JUMPI DUP3 SWAP1 SUB PUSH1 0x1F AND DUP3 ADD SWAP2 JUMPDEST POP POP POP POP POP SWAP1 DUP1 PUSH1 0x5 ADD DUP1 SLOAD PUSH2 0xAC2 SWAP1 PUSH2 0x5BC5 JUMP JUMPDEST DUP1 PUSH1 0x1F ADD PUSH1 0x20 DUP1 SWAP2 DIV MUL PUSH1 0x20 ADD PUSH1 0x40 MLOAD SWAP1 DUP2 ADD PUSH1 0x40 MSTORE DUP1 SWAP3 SWAP2 SWAP1 DUP2 DUP2 MSTORE PUSH1 0x20 ADD DUP3 DUP1 SLOAD PUSH2 0xAEE SWAP1 PUSH2 0x5BC5 JUMP JUMPDEST DUP1 ISZERO PUSH2 0xB3B JUMPI DUP1 PUSH1 0x1F LT PUSH2 0xB10 JUMPI PUSH2 0x100 DUP1 DUP4 SLOAD DIV MUL DUP4 MSTORE SWAP2 PUSH1 0x20 ADD SWAP2 PUSH2 0xB3B JUMP JUMPDEST DUP3 ADD SWAP2 SWAP1 PUSH1 0x0 MSTORE PUSH1 0x20 PUSH1 0x0 KECCAK256 SWAP1 JUMPDEST DUP2 SLOAD DUP2 MSTORE SWAP1 PUSH1 0x1 ADD SWAP1 PUSH1 0x20 ADD DUP1 DUP4 GT PUSH2 0xB1E JUMPI DUP3 SWAP1 SUB PUSH1 0x1F AND DUP3 ADD SWAP2 JUMPDEST POP POP POP POP POP SWAP1 DUP1 PUSH1 0x6 ADD DUP1 SLOAD PUSH2 0xB50 SWAP1 PUSH2 0x5BC5 JUMP JUMPDEST DUP1 PUSH1 0x1F ADD PUSH1 0x20 DUP1 SWAP2 DIV MUL PUSH1 0x20 ADD PUSH1 0x40 MLOAD SWAP1 DUP2 ADD PUSH1 0x40 MSTORE DUP1 SWAP3 SWAP2 SWAP1 DUP2 DUP2 MSTORE PUSH1 0x20 ADD DUP3 DUP1 SLOAD PUSH2 0xB7C SWAP1 PUSH2 0x5BC5 JUMP JUMPDEST DUP1 ISZERO PUSH2 0xBC9 JUMPI DUP1 PUSH1 0x1F LT PUSH2 0xB9E JUMPI PUSH2 0x100 DUP1 DUP4 SLOAD DIV MUL DUP4 MSTORE SWAP2 PUSH1 0x20 ADD SWAP2 PUSH2 0xBC9 JUMP JUMPDEST DUP3 ADD SWAP2 SWAP1 PUSH1 0x0 MSTORE PUSH1 0x20 PUSH1 0x0 KECCAK256 SWAP1 JUMPDEST DUP2 SLOAD DUP2 MSTORE SWAP1 PUSH1 0x1 ADD SWAP1 PUSH1 0x20 ADD DUP1 DUP4 GT PUSH2 0xBAC JUMPI DUP3 SWAP1 SUB PUSH1 0x1F AND DUP3 ADD SWAP2 JUMPDEST POP POP POP PUSH1 0x7 DUP5 ADD SLOAD PUSH1 0x8 DUP6 ADD DUP1 SLOAD SWAP5 SWAP6 PUSH1 0xFF SWAP1 SWAP3 AND SWAP5 SWAP2 SWAP4 POP SWAP2 POP PUSH2 0xBED SWAP1 PUSH2 0x5BC5 JUMP JUMPDEST DUP1 PUSH1 0x1F ADD PUSH1 0x20 DUP1 SWAP2 DIV MUL PUSH1 0x20 ADD PUSH1 0x40 MLOAD SWAP1 DUP2 ADD PUSH1 0x40 MSTORE DUP1 SWAP3 SWAP2 SWAP1 DUP2 DUP2 MSTORE PUSH1 0x20 ADD DUP3 DUP1 SLOAD PUSH2 0xC19 SWAP1 PUSH2 0x5BC5 JUMP JUMPDEST DUP1 ISZERO PUSH2 0xC66 JUMPI DUP1 PUSH1 0x1F LT PUSH2 0xC3B JUMPI PUSH2 0x100 DUP1 DUP4 SLOAD DIV MUL DUP4 MSTORE SWAP2 PUSH1 0x20 ADD SWAP2 PUSH2 0xC66 JUMP JUMPDEST DUP3 ADD SWAP2 SWAP1 PUSH1 0x0 MSTORE PUSH1 0x20 PUSH1 0x0 KECCAK256 SWAP1 JUMPDEST DUP2 SLOAD DUP2 MSTORE SWAP1 PUSH1 0x1 ADD SWAP1 PUSH1 0x20 ADD DUP1 DUP4 GT PUSH2 0xC49 JUMPI DUP3 SWAP1 SUB PUSH1 0x1F AND DUP3 ADD SWAP2 JUMPDEST POP POP POP POP POP SWAP1 DUP1 PUSH1 0x9 ADD DUP1 SLOAD PUSH2 0xC7B SWAP1 PUSH2 0x5BC5 JUMP JUMPDEST DUP1 PUSH1 0x1F ADD PUSH1 0x20 DUP1 SWAP2 DIV MUL PUSH1 0x20 ADD PUSH1 0x40 MLOAD SWAP1 DUP2 ADD PUSH1 0x40 MSTORE DUP1 SWAP3 SWAP2 SWAP1 DUP2 DUP2 MSTORE PUSH1 0x20 ADD DUP3 DUP1 SLOAD PUSH2 0xCA7 SWAP1 PUSH2 0x5BC5 JUMP JUMPDEST DUP1 ISZERO PUSH2 0xCF4 JUMPI DUP1 PUSH1 0x1F LT PUSH2 0xCC9 JUMPI PUSH2 0x100 DUP1 DUP4 SLOAD DIV MUL DUP4 MSTORE SWAP2 PUSH1 0x20 ADD SWAP2 PUSH2 0xCF4 JUMP JUMPDEST DUP3 ADD SWAP2 SWAP1 PUSH1 0x0 MSTORE PUSH1 0x20 PUSH1 0x0 KECCAK256 SWAP1 JUMPDEST DUP2 SLOAD DUP2 MSTORE SWAP1 PUSH1 0x1 ADD SWAP1 PUSH1 0x20 ADD DUP1 DUP4 GT PUSH2 0xCD7 JUMPI DUP3 SWAP1 SUB PUSH1 0x1F AND DUP3 ADD SWAP2 JUMPDEST POP POP POP POP POP SWAP1 DUP1 PUSH1 0xA ADD DUP1 SLOAD PUSH2 0xD09 SWAP1 PUSH2 0x5BC5 JUMP JUMPDEST DUP1 PUSH1 0x1F ADD PUSH1 0x20 DUP1 SWAP2 DIV MUL PUSH1 0x20 ADD PUSH1 0x40 MLOAD SWAP1 DUP2 ADD PUSH1 0x40 MSTORE DUP1 SWAP3 SWAP2 SWAP1 DUP2 DUP2 MSTORE PUSH1 0x20 ADD DUP3 DUP1 SLOAD PUSH2 0xD35 SWAP1 PUSH2 0x5BC5 JUMP JUMPDEST DUP1 ISZERO PUSH2 0xD82 JUMPI DUP1 PUSH1 0x1F LT PUSH2 0xD57 JUMPI PUSH2 0x100 DUP1 DUP4 SLOAD DIV MUL DUP4 MSTORE SWAP2 PUSH1 0x20 ADD SWAP2 PUSH2 0xD82 JUMP JUMPDEST DUP3 ADD SWAP2 SWAP1 PUSH1 0x0 MSTORE PUSH1 0x20 PUSH1 0x0 KECCAK256 SWAP1 JUMPDEST DUP2 SLOAD DUP2 MSTORE SWAP1 PUSH1 0x1 ADD SWAP1 PUSH1 0x20 ADD DUP1 DUP4 GT PUSH2 0xD65 JUMPI DUP3 SWAP1 SUB PUSH1 0x1F AND DUP3 ADD SWAP2 JUMPDEST POP POP POP POP POP SWAP1 DUP1 PUSH1 0xB ADD DUP1 SLOAD PUSH2 0xD97 SWAP1 PUSH2 0x5BC5 JUMP JUMPDEST DUP1 PUSH1 0x1F ADD PUSH1 0x20 DUP1 SWAP2 DIV MUL PUSH1 0x20 ADD PUSH1 0x40 MLOAD SWAP1 DUP2 ADD PUSH1 0x40 MSTORE DUP1 SWAP3 SWAP2 SWAP1 DUP2 DUP2 MSTORE PUSH1 0x20 ADD DUP3 DUP1 SLOAD PUSH2 0xDC3 SWAP1 PUSH2 0x5BC5 JUMP JUMPDEST DUP1 ISZERO PUSH2 0xE10 JUMPI DUP1 PUSH1 0x1F LT PUSH2 0xDE5 JUMPI PUSH2 0x100 DUP1 DUP4 SLOAD DIV MUL DUP4 MSTORE SWAP2 PUSH1 0x20 ADD SWAP2 PUSH2 0xE10 JUMP JUMPDEST DUP3 ADD SWAP2 SWAP1 PUSH1 0x0 MSTORE PUSH1 0x20 PUSH1 0x0 KECCAK256 SWAP1 JUMPDEST DUP2 SLOAD DUP2 MSTORE SWAP1 PUSH1 0x1 ADD SWAP1 PUSH1 0x20 ADD DUP1 DUP4 GT PUSH2 0xDF3 JUMPI DUP3 SWAP1 SUB PUSH1 0x1F AND DUP3 ADD SWAP2 JUMPDEST POP POP POP POP POP SWAP1 DUP1 PUSH1 0xC ADD DUP1 SLOAD PUSH2 0xE25 SWAP1 PUSH2 0x5BC5 JUMP JUMPDEST DUP1 PUSH1 0x1F ADD PUSH1 0x20 DUP1 SWAP2 DIV MUL PUSH1 0x20 ADD PUSH1 0x40 MLOAD SWAP1 DUP2 ADD PUSH1 0x40 MSTORE DUP1 SWAP3 SWAP2 SWAP1 DUP2 DUP2 MSTORE PUSH1 0x20 ADD DUP3 DUP1 SLOAD PUSH2 0xE51 SWAP1 PUSH2 0x5BC5 JUMP JUMPDEST DUP1 ISZERO PUSH2 0xE9E JUMPI DUP1 PUSH1 0x1F LT PUSH2 0xE73 JUMPI PUSH2 0x100 DUP1 DUP4 SLOAD DIV MUL DUP4 MSTORE SWAP2 PUSH1 0x20 ADD SWAP2 PUSH2 0xE9E JUMP JUMPDEST DUP3 ADD SWAP2 SWAP1 PUSH1 0x0 MSTORE PUSH1 0x20 PUSH1 0x0 KECCAK256 SWAP1 JUMPDEST DUP2 SLOAD DUP2 MSTORE SWAP1 PUSH1 0x1 ADD SWAP1 PUSH1 0x20 ADD DUP1 DUP4 GT PUSH2 0xE81 JUMPI DUP3 SWAP1 SUB PUSH1 0x1F AND DUP3 ADD SWAP2 JUMPDEST POP POP POP POP POP SWAP1 DUP1 PUSH1 0xD ADD DUP1 SLOAD PUSH2 0xEB3 SWAP1 PUSH2 0x5BC5 JUMP JUMPDEST DUP1 PUSH1 0x1F ADD PUSH1 0x20 DUP1 SWAP2 DIV MUL PUSH1 0x20 ADD PUSH1 0x40 MLOAD SWAP1 DUP2 ADD PUSH1 0x40 MSTORE DUP1 SWAP3 SWAP2 SWAP1 DUP2 DUP2 MSTORE PUSH1 0x20 ADD DUP3 DUP1 SLOAD PUSH2 0xEDF SWAP1 PUSH2 0x5BC5 JUMP JUMPDEST DUP1 ISZERO PUSH2 0xF2C JUMPI DUP1 PUSH1 0x1F LT PUSH2 0xF01 JUMPI PUSH2 0x100 DUP1 DUP4 SLOAD DIV MUL DUP4 MSTORE SWAP2 PUSH1 0x20 ADD SWAP2 PUSH2 0xF2C JUMP JUMPDEST DUP3 ADD SWAP2 SWAP1 PUSH1 0x0 MSTORE PUSH1 0x20 PUSH1 0x0 KECCAK256 SWAP1 JUMPDEST DUP2 SLOAD DUP2 MSTORE SWAP1 PUSH1 0x1 ADD SWAP1 PUSH1 0x20 ADD DUP1 DUP4 GT PUSH2 0xF0F JUMPI DUP3 SWAP1 SUB PUSH1 0x1F AND DUP3 ADD SWAP2 JUMPDEST POP POP POP POP POP SWAP1 POP DUP15 JUMP JUMPDEST PUSH1 0x7 SLOAD PUSH1 0x60 SWAP1 PUSH1 0x0 DUP1 DUP3 PUSH1 0x1 PUSH1 0x1 PUSH1 0x40 SHL SUB DUP2 GT ISZERO PUSH2 0xF65 JUMPI PUSH4 0x4E487B71 PUSH1 0xE0 SHL PUSH1 0x0 MSTORE PUSH1 0x41 PUSH1 0x4 MSTORE PUSH1 0x24 PUSH1 0x0 REVERT JUMPDEST PUSH1 0x40 MLOAD SWAP1 DUP1 DUP3 MSTORE DUP1 PUSH1 0x20 MUL PUSH1 0x20 ADD DUP3 ADD PUSH1 0x40 MSTORE DUP1 ISZERO PUSH2 0xF9E JUMPI DUP2 PUSH1 0x20 ADD JUMPDEST PUSH2 0xF8B PUSH2 0x4BC6 JUMP JUMPDEST DUP2 MSTORE PUSH1 0x20 ADD SWAP1 PUSH1 0x1 SWAP1 SUB SWAP1 DUP2 PUSH2 0xF83 JUMPI SWAP1 POP JUMPDEST POP SWAP1 POP PUSH1 0x0 JUMPDEST DUP4 DUP2 LT ISZERO PUSH2 0x1A4E JUMPI PUSH1 0x0 PUSH2 0xFB9 DUP3 PUSH1 0x1 PUSH2 0x5B76 JUMP JUMPDEST PUSH1 0x0 DUP2 DUP2 MSTORE PUSH1 0x1 PUSH1 0x20 DUP2 DUP2 MSTORE PUSH1 0x40 SWAP3 DUP4 SWAP1 KECCAK256 DUP4 MLOAD PUSH2 0x1C0 DUP1 DUP3 ADD DUP7 MSTORE DUP3 SLOAD DUP3 MSTORE SWAP4 DUP3 ADD SLOAD PUSH1 0x1 PUSH1 0x1 PUSH1 0xA0 SHL SUB SWAP1 DUP2 AND DUP3 DUP6 ADD MSTORE DUP6 MLOAD SWAP5 DUP6 ADD DUP7 MSTORE PUSH1 0x2 DUP4 ADD DUP1 SLOAD DUP7 MSTORE PUSH1 0x3 DUP5 ADD SLOAD SWAP1 SWAP2 AND SWAP4 DUP6 ADD SWAP4 SWAP1 SWAP4 MSTORE PUSH1 0x4 DUP3 ADD DUP1 SLOAD SWAP7 SWAP8 POP SWAP2 SWAP6 SWAP1 SWAP5 DUP7 SWAP5 DUP7 DUP3 ADD SWAP5 SWAP1 SWAP4 SWAP1 SWAP3 SWAP2 DUP5 ADD SWAP2 PUSH2 0x102E SWAP1 PUSH2 0x5BC5 JUMP JUMPDEST DUP1 PUSH1 0x1F ADD PUSH1 0x20 DUP1 SWAP2 DIV MUL PUSH1 0x20 ADD PUSH1 0x40 MLOAD SWAP1 DUP2 ADD PUSH1 0x40 MSTORE DUP1 SWAP3 SWAP2 SWAP1 DUP2 DUP2 MSTORE PUSH1 0x20 ADD DUP3 DUP1 SLOAD PUSH2 0x105A SWAP1 PUSH2 0x5BC5 JUMP JUMPDEST DUP1 ISZERO PUSH2 0x10A7 JUMPI DUP1 PUSH1 0x1F LT PUSH2 0x107C JUMPI PUSH2 0x100 DUP1 DUP4 SLOAD DIV MUL DUP4 MSTORE SWAP2 PUSH1 0x20 ADD SWAP2 PUSH2 0x10A7 JUMP JUMPDEST DUP3 ADD SWAP2 SWAP1 PUSH1 0x0 MSTORE PUSH1 0x20 PUSH1 0x0 KECCAK256 SWAP1 JUMPDEST DUP2 SLOAD DUP2 MSTORE SWAP1 PUSH1 0x1 ADD SWAP1 PUSH1 0x20 ADD DUP1 DUP4 GT PUSH2 0x108A JUMPI DUP3 SWAP1 SUB PUSH1 0x1F AND DUP3 ADD SWAP2 JUMPDEST POP POP POP POP POP DUP2 MSTORE PUSH1 0x20 ADD PUSH1 0x3 DUP3 ADD DUP1 SLOAD PUSH2 0x10C0 SWAP1 PUSH2 0x5BC5 JUMP JUMPDEST DUP1 PUSH1 0x1F ADD PUSH1 0x20 DUP1 SWAP2 DIV MUL PUSH1 0x20 ADD PUSH1 0x40 MLOAD SWAP1 DUP2 ADD PUSH1 0x40 MSTORE DUP1 SWAP3 SWAP2 SWAP1 DUP2 DUP2 MSTORE PUSH1 0x20 ADD DUP3 DUP1 SLOAD PUSH2 0x10EC SWAP1 PUSH2 0x5BC5 JUMP JUMPDEST DUP1 ISZERO PUSH2 0x1139 JUMPI DUP1 PUSH1 0x1F LT PUSH2 0x110E JUMPI PUSH2 0x100 DUP1 DUP4 SLOAD DIV MUL DUP4 MSTORE SWAP2 PUSH1 0x20 ADD SWAP2 PUSH2 0x1139 JUMP JUMPDEST DUP3 ADD SWAP2 SWAP1 PUSH1 0x0 MSTORE PUSH1 0x20 PUSH1 0x0 KECCAK256 SWAP1 JUMPDEST DUP2 SLOAD DUP2 MSTORE SWAP1 PUSH1 0x1 ADD SWAP1 PUSH1 0x20 ADD DUP1 DUP4 GT PUSH2 0x111C JUMPI DUP3 SWAP1 SUB PUSH1 0x1F AND DUP3 ADD SWAP2 JUMPDEST POP POP POP POP POP DUP2 MSTORE PUSH1 0x20 ADD PUSH1 0x4 DUP3 ADD DUP1 SLOAD PUSH2 0x1152 SWAP1 PUSH2 0x5BC5 JUMP JUMPDEST DUP1 PUSH1 0x1F ADD PUSH1 0x20 DUP1 SWAP2 DIV MUL PUSH1 0x20 ADD PUSH1 0x40 MLOAD SWAP1 DUP2 ADD PUSH1 0x40 MSTORE DUP1 SWAP3 SWAP2 SWAP1 DUP2 DUP2 MSTORE PUSH1 0x20 ADD DUP3 DUP1 SLOAD PUSH2 0x117E SWAP1 PUSH2 0x5BC5 JUMP JUMPDEST DUP1 ISZERO PUSH2 0x11CB JUMPI DUP1 PUSH1 0x1F LT PUSH2 0x11A0 JUMPI PUSH2 0x100 DUP1 DUP4 SLOAD DIV MUL DUP4 MSTORE SWAP2 PUSH1 0x20 ADD SWAP2 PUSH2 0x11CB JUMP JUMPDEST DUP3 ADD SWAP2 SWAP1 PUSH1 0x0 MSTORE PUSH1 0x20 PUSH1 0x0 KECCAK256 SWAP1 JUMPDEST DUP2 SLOAD DUP2 MSTORE SWAP1 PUSH1 0x1 ADD SWAP1 PUSH1 0x20 ADD DUP1 DUP4 GT PUSH2 0x11AE JUMPI DUP3 SWAP1 SUB PUSH1 0x1F AND DUP3 ADD SWAP2 JUMPDEST POP POP POP POP POP DUP2 MSTORE PUSH1 0x20 ADD PUSH1 0x5 DUP3 ADD DUP1 SLOAD PUSH2 0x11E4 SWAP1 PUSH2 0x5BC5 JUMP JUMPDEST DUP1 PUSH1 0x1F ADD PUSH1 0x20 DUP1 SWAP2 DIV MUL PUSH1 0x20 ADD PUSH1 0x40 MLOAD SWAP1 DUP2 ADD PUSH1 0x40 MSTORE DUP1 SWAP3 SWAP2 SWAP1 DUP2 DUP2 MSTORE PUSH1 0x20 ADD DUP3 DUP1 SLOAD PUSH2 0x1210 SWAP1 PUSH2 0x5BC5 JUMP JUMPDEST DUP1 ISZERO PUSH2 0x125D JUMPI DUP1 PUSH1 0x1F LT PUSH2 0x1232 JUMPI PUSH2 0x100 DUP1 DUP4 SLOAD DIV MUL DUP4 MSTORE SWAP2 PUSH1 0x20 ADD SWAP2 PUSH2 0x125D JUMP JUMPDEST DUP3 ADD SWAP2 SWAP1 PUSH1 0x0 MSTORE PUSH1 0x20 PUSH1 0x0 KECCAK256 SWAP1 JUMPDEST DUP2 SLOAD DUP2 MSTORE SWAP1 PUSH1 0x1 ADD SWAP1 PUSH1 0x20 ADD DUP1 DUP4 GT PUSH2 0x1240 JUMPI DUP3 SWAP1 SUB PUSH1 0x1F AND DUP3 ADD SWAP2 JUMPDEST POP POP POP POP POP DUP2 MSTORE PUSH1 0x20 ADD PUSH1 0x6 DUP3 ADD DUP1 SLOAD PUSH2 0x1276 SWAP1 PUSH2 0x5BC5 JUMP JUMPDEST DUP1 PUSH1 0x1F ADD PUSH1 0x20 DUP1 SWAP2 DIV MUL PUSH1 0x20 ADD PUSH1 0x40 MLOAD SWAP1 DUP2 ADD PUSH1 0x40 MSTORE DUP1 SWAP3 SWAP2 SWAP1 DUP2 DUP2 MSTORE PUSH1 0x20 ADD DUP3 DUP1 SLOAD PUSH2 0x12A2 SWAP1 PUSH2 0x5BC5 JUMP JUMPDEST DUP1 ISZERO PUSH2 0x12EF JUMPI DUP1 PUSH1 0x1F LT PUSH2 0x12C4 JUMPI PUSH2 0x100 DUP1 DUP4 SLOAD DIV MUL DUP4 MSTORE SWAP2 PUSH1 0x20 ADD SWAP2 PUSH2 0x12EF JUMP JUMPDEST DUP3 ADD SWAP2 SWAP1 PUSH1 0x0 MSTORE PUSH1 0x20 PUSH1 0x0 KECCAK256 SWAP1 JUMPDEST DUP2 SLOAD DUP2 MSTORE SWAP1 PUSH1 0x1 ADD SWAP1 PUSH1 0x20 ADD DUP1 DUP4 GT PUSH2 0x12D2 JUMPI DUP3 SWAP1 SUB PUSH1 0x1F AND DUP3 ADD SWAP2 JUMPDEST POP POP POP SWAP2 DUP4 MSTORE POP POP PUSH1 0x7 DUP3 ADD SLOAD PUSH1 0xFF AND ISZERO ISZERO PUSH1 0x20 DUP3 ADD MSTORE PUSH1 0x8 DUP3 ADD DUP1 SLOAD PUSH1 0x40 SWAP1 SWAP3 ADD SWAP2 PUSH2 0x131B SWAP1 PUSH2 0x5BC5 JUMP JUMPDEST DUP1 PUSH1 0x1F ADD PUSH1 0x20 DUP1 SWAP2 DIV MUL PUSH1 0x20 ADD PUSH1 0x40 MLOAD SWAP1 DUP2 ADD PUSH1 0x40 MSTORE DUP1 SWAP3 SWAP2 SWAP1 DUP2 DUP2 MSTORE PUSH1 0x20 ADD DUP3 DUP1 SLOAD PUSH2 0x1347 SWAP1 PUSH2 0x5BC5 JUMP JUMPDEST DUP1 ISZERO PUSH2 0x1394 JUMPI DUP1 PUSH1 0x1F LT PUSH2 0x1369 JUMPI PUSH2 0x100 DUP1 DUP4 SLOAD DIV MUL DUP4 MSTORE SWAP2 PUSH1 0x20 ADD SWAP2 PUSH2 0x1394 JUMP JUMPDEST DUP3 ADD SWAP2 SWAP1 PUSH1 0x0 MSTORE PUSH1 0x20 PUSH1 0x0 KECCAK256 SWAP1 JUMPDEST DUP2 SLOAD DUP2 MSTORE SWAP1 PUSH1 0x1 ADD SWAP1 PUSH1 0x20 ADD DUP1 DUP4 GT PUSH2 0x1377 JUMPI DUP3 SWAP1 SUB PUSH1 0x1F AND DUP3 ADD SWAP2 JUMPDEST POP POP POP POP POP DUP2 MSTORE PUSH1 0x20 ADD PUSH1 0x9 DUP3 ADD DUP1 SLOAD PUSH2 0x13AD SWAP1 PUSH2 0x5BC5 JUMP JUMPDEST DUP1 PUSH1 0x1F ADD PUSH1 0x20 DUP1 SWAP2 DIV MUL PUSH1 0x20 ADD PUSH1 0x40 MLOAD SWAP1 DUP2 ADD PUSH1 0x40 MSTORE DUP1 SWAP3 SWAP2 SWAP1 DUP2 DUP2 MSTORE PUSH1 0x20 ADD DUP3 DUP1 SLOAD PUSH2 0x13D9 SWAP1 PUSH2 0x5BC5 JUMP JUMPDEST DUP1 ISZERO PUSH2 0x1426 JUMPI DUP1 PUSH1 0x1F LT PUSH2 0x13FB JUMPI PUSH2 0x100 DUP1 DUP4 SLOAD DIV MUL DUP4 MSTORE SWAP2 PUSH1 0x20 ADD SWAP2 PUSH2 0x1426 JUMP JUMPDEST DUP3 ADD SWAP2 SWAP1 PUSH1 0x0 MSTORE PUSH1 0x20 PUSH1 0x0 KECCAK256 SWAP1 JUMPDEST DUP2 SLOAD DUP2 MSTORE SWAP1 PUSH1 0x1 ADD SWAP1 PUSH1 0x20 ADD DUP1 DUP4 GT PUSH2 0x1409 JUMPI DUP3 SWAP1 SUB PUSH1 0x1F AND DUP3 ADD SWAP2 JUMPDEST POP POP POP POP POP DUP2 MSTORE PUSH1 0x20 ADD PUSH1 0xA DUP3 ADD DUP1 SLOAD PUSH2 0x143F SWAP1 PUSH2 0x5BC5 JUMP JUMPDEST DUP1 PUSH1 0x1F ADD PUSH1 0x20 DUP1 SWAP2 DIV MUL PUSH1 0x20 ADD PUSH1 0x40 MLOAD SWAP1 DUP2 ADD PUSH1 0x40 MSTORE DUP1 SWAP3 SWAP2 SWAP1 DUP2 DUP2 MSTORE PUSH1 0x20 ADD DUP3 DUP1 SLOAD PUSH2 0x146B SWAP1 PUSH2 0x5BC5 JUMP JUMPDEST DUP1 ISZERO PUSH2 0x14B8 JUMPI DUP1 PUSH1 0x1F LT PUSH2 0x148D JUMPI PUSH2 0x100 DUP1 DUP4 SLOAD DIV MUL DUP4 MSTORE SWAP2 PUSH1 0x20 ADD SWAP2 PUSH2 0x14B8 JUMP JUMPDEST DUP3 ADD SWAP2 SWAP1 PUSH1 0x0 MSTORE PUSH1 0x20 PUSH1 0x0 KECCAK256 SWAP1 JUMPDEST DUP2 SLOAD DUP2 MSTORE SWAP1 PUSH1 0x1 ADD SWAP1 PUSH1 0x20 ADD DUP1 DUP4 GT PUSH2 0x149B JUMPI DUP3 SWAP1 SUB PUSH1 0x1F AND DUP3 ADD SWAP2 JUMPDEST POP POP POP POP POP DUP2 MSTORE PUSH1 0x20 ADD PUSH1 0xB DUP3 ADD DUP1 SLOAD PUSH2 0x14D1 SWAP1 PUSH2 0x5BC5 JUMP JUMPDEST DUP1 PUSH1 0x1F ADD PUSH1 0x20 DUP1 SWAP2 DIV MUL PUSH1 0x20 ADD PUSH1 0x40 MLOAD SWAP1 DUP2 ADD PUSH1 0x40 MSTORE DUP1 SWAP3 SWAP2 SWAP1 DUP2 DUP2 MSTORE PUSH1 0x20 ADD DUP3 DUP1 SLOAD PUSH2 0x14FD SWAP1 PUSH2 0x5BC5 JUMP JUMPDEST DUP1 ISZERO PUSH2 0x154A JUMPI DUP1 PUSH1 0x1F LT PUSH2 0x151F JUMPI PUSH2 0x100 DUP1 DUP4 SLOAD DIV MUL DUP4 MSTORE SWAP2 PUSH1 0x20 ADD SWAP2 PUSH2 0x154A JUMP JUMPDEST DUP3 ADD SWAP2 SWAP1 PUSH1 0x0 MSTORE PUSH1 0x20 PUSH1 0x0 KECCAK256 SWAP1 JUMPDEST DUP2 SLOAD DUP2 MSTORE SWAP1 PUSH1 0x1 ADD SWAP1 PUSH1 0x20 ADD DUP1 DUP4 GT PUSH2 0x152D JUMPI DUP3 SWAP1 SUB PUSH1 0x1F AND DUP3 ADD SWAP2 JUMPDEST POP POP POP POP POP DUP2 MSTORE PUSH1 0x20 ADD PUSH1 0xC DUP3 ADD DUP1 SLOAD PUSH2 0x1563 SWAP1 PUSH2 0x5BC5 JUMP JUMPDEST DUP1 PUSH1 0x1F ADD PUSH1 0x20 DUP1 SWAP2 DIV MUL PUSH1 0x20 ADD PUSH1 0x40 MLOAD SWAP1 DUP2 ADD PUSH1 0x40 MSTORE DUP1 SWAP3 SWAP2 SWAP1 DUP2 DUP2 MSTORE PUSH1 0x20 ADD DUP3 DUP1 SLOAD PUSH2 0x158F SWAP1 PUSH2 0x5BC5 JUMP JUMPDEST DUP1 ISZERO PUSH2 0x15DC JUMPI DUP1 PUSH1 0x1F LT PUSH2 0x15B1 JUMPI PUSH2 0x100 DUP1 DUP4 SLOAD DIV MUL DUP4 MSTORE SWAP2 PUSH1 0x20 ADD SWAP2 PUSH2 0x15DC JUMP JUMPDEST DUP3 ADD SWAP2 SWAP1 PUSH1 0x0 MSTORE PUSH1 0x20 PUSH1 0x0 KECCAK256 SWAP1 JUMPDEST DUP2 SLOAD DUP2 MSTORE SWAP1 PUSH1 0x1 ADD SWAP1 PUSH1 0x20 ADD DUP1 DUP4 GT PUSH2 0x15BF JUMPI DUP3 SWAP1 SUB PUSH1 0x1F AND DUP3 ADD SWAP2 JUMPDEST POP POP POP POP POP DUP2 MSTORE PUSH1 0x20 ADD PUSH1 0xD DUP3 ADD DUP1 SLOAD PUSH2 0x15F5 SWAP1 PUSH2 0x5BC5 JUMP JUMPDEST DUP1 PUSH1 0x1F ADD PUSH1 0x20 DUP1 SWAP2 DIV MUL PUSH1 0x20 ADD PUSH1 0x40 MLOAD SWAP1 DUP2 ADD PUSH1 0x40 MSTORE DUP1 SWAP3 SWAP2 SWAP1 DUP2 DUP2 MSTORE PUSH1 0x20 ADD DUP3 DUP1 SLOAD PUSH2 0x1621 SWAP1 PUSH2 0x5BC5 JUMP JUMPDEST DUP1 ISZERO PUSH2 0x166E JUMPI DUP1 PUSH1 0x1F LT PUSH2 0x1643 JUMPI PUSH2 0x100 DUP1 DUP4 SLOAD DIV MUL DUP4 MSTORE SWAP2 PUSH1 0x20 ADD SWAP2 PUSH2 0x166E JUMP JUMPDEST DUP3 ADD SWAP2 SWAP1 PUSH1 0x0 MSTORE PUSH1 0x20 PUSH1 0x0 KECCAK256 SWAP1 JUMPDEST DUP2 SLOAD DUP2 MSTORE SWAP1 PUSH1 0x1 ADD SWAP1 PUSH1 0x20 ADD DUP1 DUP4 GT PUSH2 0x1651 JUMPI DUP3 SWAP1 SUB PUSH1 0x1F AND DUP3 ADD SWAP2 JUMPDEST POP POP POP POP POP DUP2 MSTORE POP POP DUP2 MSTORE PUSH1 0x20 ADD PUSH1 0x10 DUP3 ADD SLOAD DUP2 MSTORE PUSH1 0x20 ADD PUSH1 0x11 DUP3 ADD SLOAD DUP2 MSTORE PUSH1 0x20 ADD PUSH1 0x12 DUP3 ADD SLOAD DUP2 MSTORE PUSH1 0x20 ADD PUSH1 0x13 DUP3 ADD SLOAD DUP2 MSTORE PUSH1 0x20 ADD PUSH1 0x14 DUP3 ADD SLOAD DUP2 MSTORE PUSH1 0x20 ADD PUSH1 0x15 DUP3 ADD DUP1 SLOAD PUSH2 0x16BD SWAP1 PUSH2 0x5BC5 JUMP JUMPDEST DUP1 PUSH1 0x1F ADD PUSH1 0x20 DUP1 SWAP2 DIV MUL PUSH1 0x20 ADD PUSH1 0x40 MLOAD SWAP1 DUP2 ADD PUSH1 0x40 MSTORE DUP1 SWAP3 SWAP2 SWAP1 DUP2 DUP2 MSTORE PUSH1 0x20 ADD DUP3 DUP1 SLOAD PUSH2 0x16E9 SWAP1 PUSH2 0x5BC5 JUMP JUMPDEST DUP1 ISZERO PUSH2 0x1736 JUMPI DUP1 PUSH1 0x1F LT PUSH2 0x170B JUMPI PUSH2 0x100 DUP1 DUP4 SLOAD DIV MUL DUP4 MSTORE SWAP2 PUSH1 0x20 ADD SWAP2 PUSH2 0x1736 JUMP JUMPDEST DUP3 ADD SWAP2 SWAP1 PUSH1 0x0 MSTORE PUSH1 0x20 PUSH1 0x0 KECCAK256 SWAP1 JUMPDEST DUP2 SLOAD DUP2 MSTORE SWAP1 PUSH1 0x1 ADD SWAP1 PUSH1 0x20 ADD DUP1 DUP4 GT PUSH2 0x1719 JUMPI DUP3 SWAP1 SUB PUSH1 0x1F AND DUP3 ADD SWAP2 JUMPDEST POP POP POP POP POP DUP2 MSTORE PUSH1 0x20 ADD PUSH1 0x16 DUP3 ADD DUP1 SLOAD PUSH2 0x174F SWAP1 PUSH2 0x5BC5 JUMP JUMPDEST DUP1 PUSH1 0x1F ADD PUSH1 0x20 DUP1 SWAP2 DIV MUL PUSH1 0x20 ADD PUSH1 0x40 MLOAD SWAP1 DUP2 ADD PUSH1 0x40 MSTORE DUP1 SWAP3 SWAP2 SWAP1 DUP2 DUP2 MSTORE PUSH1 0x20 ADD DUP3 DUP1 SLOAD PUSH2 0x177B SWAP1 PUSH2 0x5BC5 JUMP JUMPDEST DUP1 ISZERO PUSH2 0x17C8 JUMPI DUP1 PUSH1 0x1F LT PUSH2 0x179D JUMPI PUSH2 0x100 DUP1 DUP4 SLOAD DIV MUL DUP4 MSTORE SWAP2 PUSH1 0x20 ADD SWAP2 PUSH2 0x17C8 JUMP JUMPDEST DUP3 ADD SWAP2 SWAP1 PUSH1 0x0 MSTORE PUSH1 0x20 PUSH1 0x0 KECCAK256 SWAP1 JUMPDEST DUP2 SLOAD DUP2 MSTORE SWAP1 PUSH1 0x1 ADD SWAP1 PUSH1 0x20 ADD DUP1 DUP4 GT PUSH2 0x17AB JUMPI DUP3 SWAP1 SUB PUSH1 0x1F AND DUP3 ADD SWAP2 JUMPDEST POP POP POP POP POP DUP2 MSTORE PUSH1 0x20 ADD PUSH1 0x17 DUP3 ADD DUP1 SLOAD PUSH2 0x17E1 SWAP1 PUSH2 0x5BC5 JUMP JUMPDEST DUP1 PUSH1 0x1F ADD PUSH1 0x20 DUP1 SWAP2 DIV MUL PUSH1 0x20 ADD PUSH1 0x40 MLOAD SWAP1 DUP2 ADD PUSH1 0x40 MSTORE DUP1 SWAP3 SWAP2 SWAP1 DUP2 DUP2 MSTORE PUSH1 0x20 ADD DUP3 DUP1 SLOAD PUSH2 0x180D SWAP1 PUSH2 0x5BC5 JUMP JUMPDEST DUP1 ISZERO PUSH2 0x185A JUMPI DUP1 PUSH1 0x1F LT PUSH2 0x182F JUMPI PUSH2 0x100 DUP1 DUP4 SLOAD DIV MUL DUP4 MSTORE SWAP2 PUSH1 0x20 ADD SWAP2 PUSH2 0x185A JUMP JUMPDEST DUP3 ADD SWAP2 SWAP1 PUSH1 0x0 MSTORE PUSH1 0x20 PUSH1 0x0 KECCAK256 SWAP1 JUMPDEST DUP2 SLOAD DUP2 MSTORE SWAP1 PUSH1 0x1 ADD SWAP1 PUSH1 0x20 ADD DUP1 DUP4 GT PUSH2 0x183D JUMPI DUP3 SWAP1 SUB PUSH1 0x1F AND DUP3 ADD SWAP2 JUMPDEST POP POP POP POP POP DUP2 MSTORE PUSH1 0x20 ADD PUSH1 0x18 DUP3 ADD DUP1 SLOAD PUSH2 0x1873 SWAP1 PUSH2 0x5BC5 JUMP JUMPDEST DUP1 PUSH1 0x1F ADD PUSH1 0x20 DUP1 SWAP2 DIV MUL PUSH1 0x20 ADD PUSH1 0x40 MLOAD SWAP1 DUP2 ADD PUSH1 0x40 MSTORE DUP1 SWAP3 SWAP2 SWAP1 DUP2 DUP2 MSTORE PUSH1 0x20 ADD DUP3 DUP1 SLOAD PUSH2 0x189F SWAP1 PUSH2 0x5BC5 JUMP JUMPDEST DUP1 ISZERO PUSH2 0x18EC JUMPI DUP1 PUSH1 0x1F LT PUSH2 0x18C1 JUMPI PUSH2 0x100 DUP1 DUP4 SLOAD DIV MUL DUP4 MSTORE SWAP2 PUSH1 0x20 ADD SWAP2 PUSH2 0x18EC JUMP JUMPDEST DUP3 ADD SWAP2 SWAP1 PUSH1 0x0 MSTORE PUSH1 0x20 PUSH1 0x0 KECCAK256 SWAP1 JUMPDEST DUP2 SLOAD DUP2 MSTORE SWAP1 PUSH1 0x1 ADD SWAP1 PUSH1 0x20 ADD DUP1 DUP4 GT PUSH2 0x18CF JUMPI DUP3 SWAP1 SUB PUSH1 0x1F AND DUP3 ADD SWAP2 JUMPDEST POP POP POP POP POP DUP2 MSTORE PUSH1 0x20 ADD PUSH1 0x19 DUP3 ADD DUP1 SLOAD PUSH2 0x1905 SWAP1 PUSH2 0x5BC5 JUMP JUMPDEST DUP1 PUSH1 0x1F ADD PUSH1 0x20 DUP1 SWAP2 DIV MUL PUSH1 0x20 ADD PUSH1 0x40 MLOAD SWAP1 DUP2 ADD PUSH1 0x40 MSTORE DUP1 SWAP3 SWAP2 SWAP1 DUP2 DUP2 MSTORE PUSH1 0x20 ADD DUP3 DUP1 SLOAD PUSH2 0x1931 SWAP1 PUSH2 0x5BC5 JUMP JUMPDEST DUP1 ISZERO PUSH2 0x197E JUMPI DUP1 PUSH1 0x1F LT PUSH2 0x1953 JUMPI PUSH2 0x100 DUP1 DUP4 SLOAD DIV MUL DUP4 MSTORE SWAP2 PUSH1 0x20 ADD SWAP2 PUSH2 0x197E JUMP JUMPDEST DUP3 ADD SWAP2 SWAP1 PUSH1 0x0 MSTORE PUSH1 0x20 PUSH1 0x0 KECCAK256 SWAP1 JUMPDEST DUP2 SLOAD DUP2 MSTORE SWAP1 PUSH1 0x1 ADD SWAP1 PUSH1 0x20 ADD DUP1 DUP4 GT PUSH2 0x1961 JUMPI DUP3 SWAP1 SUB PUSH1 0x1F AND DUP3 ADD SWAP2 JUMPDEST POP POP POP SWAP2 DUP4 MSTORE POP POP PUSH1 0x40 DUP1 MLOAD PUSH2 0x100 DUP1 DUP3 ADD DUP4 MSTORE PUSH1 0x1A DUP6 ADD SLOAD PUSH1 0xFF DUP1 DUP3 AND ISZERO ISZERO DUP5 MSTORE SWAP1 DUP3 SWAP1 DIV DUP2 AND ISZERO ISZERO PUSH1 0x20 DUP5 DUP2 ADD SWAP2 SWAP1 SWAP2 MSTORE PUSH1 0x1B DUP8 ADD SLOAD SWAP5 DUP5 ADD SWAP5 SWAP1 SWAP5 MSTORE PUSH1 0x1C DUP7 ADD SLOAD PUSH1 0x60 DUP5 ADD MSTORE PUSH1 0x1D DUP7 ADD SLOAD DUP1 DUP3 AND ISZERO ISZERO PUSH1 0x80 DUP6 ADD MSTORE SWAP2 SWAP1 SWAP2 DIV DUP2 AND ISZERO ISZERO PUSH1 0xA0 DUP4 ADD MSTORE PUSH1 0x1E DUP6 ADD SLOAD PUSH1 0xC0 DUP4 ADD MSTORE PUSH1 0x1F SWAP1 SWAP5 ADD SLOAD SWAP1 SWAP4 AND ISZERO ISZERO PUSH1 0xE0 DUP5 ADD MSTORE ADD MSTORE DUP5 MLOAD DUP6 SWAP1 DUP8 SWAP1 DUP2 LT PUSH2 0x1A21 JUMPI PUSH4 0x4E487B71 PUSH1 0xE0 SHL PUSH1 0x0 MSTORE PUSH1 0x32 PUSH1 0x4 MSTORE PUSH1 0x24 PUSH1 0x0 REVERT JUMPDEST PUSH1 0x20 SWAP1 DUP2 MUL SWAP2 SWAP1 SWAP2 ADD ADD MSTORE PUSH2 0x1A37 PUSH1 0x1 DUP7 PUSH2 0x5B76 JUMP JUMPDEST SWAP5 POP POP POP DUP1 DUP1 PUSH2 0x1A46 SWAP1 PUSH2 0x5C00 JUMP JUMPDEST SWAP2 POP POP PUSH2 0xFA4 JUMP JUMPDEST POP SWAP4 SWAP3 POP POP POP JUMP JUMPDEST PUSH1 0x1 PUSH1 0x20 DUP2 DUP2 MSTORE PUSH1 0x0 SWAP3 DUP4 MSTORE PUSH1 0x40 SWAP3 DUP4 SWAP1 KECCAK256 DUP1 SLOAD SWAP3 DUP2 ADD SLOAD DUP5 MLOAD PUSH2 0x1C0 DUP2 ADD DUP7 MSTORE PUSH1 0x2 DUP4 ADD DUP1 SLOAD DUP3 MSTORE PUSH1 0x3 DUP5 ADD SLOAD PUSH1 0x1 PUSH1 0x1 PUSH1 0xA0 SHL SUB SWAP1 DUP2 AND SWAP6 DUP4 ADD SWAP6 SWAP1 SWAP6 MSTORE PUSH1 0x4 DUP5 ADD DUP1 SLOAD SWAP7 SWAP8 SWAP6 SWAP1 SWAP4 AND SWAP6 SWAP4 SWAP5 SWAP2 SWAP4 SWAP1 SWAP3 SWAP2 DUP5 ADD SWAP2 SWAP1 PUSH2 0x1AB7 SWAP1 PUSH2 0x5BC5 JUMP JUMPDEST DUP1 PUSH1 0x1F ADD PUSH1 0x20 DUP1 SWAP2 DIV MUL PUSH1 0x20 ADD PUSH1 0x40 MLOAD SWAP1 DUP2 ADD PUSH1 0x40 MSTORE DUP1 SWAP3 SWAP2 SWAP1 DUP2 DUP2 MSTORE PUSH1 0x20 ADD DUP3 DUP1 SLOAD PUSH2 0x1AE3 SWAP1 PUSH2 0x5BC5 JUMP JUMPDEST DUP1 ISZERO PUSH2 0x1B30 JUMPI DUP1 PUSH1 0x1F LT PUSH2 0x1B05 JUMPI PUSH2 0x100 DUP1 DUP4 SLOAD DIV MUL DUP4 MSTORE SWAP2 PUSH1 0x20 ADD SWAP2 PUSH2 0x1B30 JUMP JUMPDEST DUP3 ADD SWAP2 SWAP1 PUSH1 0x0 MSTORE PUSH1 0x20 PUSH1 0x0 KECCAK256 SWAP1 JUMPDEST DUP2 SLOAD DUP2 MSTORE SWAP1 PUSH1 0x1 ADD SWAP1 PUSH1 0x20 ADD DUP1 DUP4 GT PUSH2 0x1B13 JUMPI DUP3 SWAP1 SUB PUSH1 0x1F AND DUP3 ADD SWAP2 JUMPDEST POP POP POP POP POP DUP2 MSTORE PUSH1 0x20 ADD PUSH1 0x3 DUP3 ADD DUP1 SLOAD PUSH2 0x1B49 SWAP1 PUSH2 0x5BC5 JUMP JUMPDEST DUP1 PUSH1 0x1F ADD PUSH1 0x20 DUP1 SWAP2 DIV MUL PUSH1 0x20 ADD PUSH1 0x40 MLOAD SWAP1 DUP2 ADD PUSH1 0x40 MSTORE DUP1 SWAP3 SWAP2 SWAP1 DUP2 DUP2 MSTORE PUSH1 0x20 ADD DUP3 DUP1 SLOAD PUSH2 0x1B75 SWAP1 PUSH2 0x5BC5 JUMP JUMPDEST DUP1 ISZERO PUSH2 0x1BC2 JUMPI DUP1 PUSH1 0x1F LT PUSH2 0x1B97 JUMPI PUSH2 0x100 DUP1 DUP4 SLOAD DIV MUL DUP4 MSTORE SWAP2 PUSH1 0x20 ADD SWAP2 PUSH2 0x1BC2 JUMP JUMPDEST DUP3 ADD SWAP2 SWAP1 PUSH1 0x0 MSTORE PUSH1 0x20 PUSH1 0x0 KECCAK256 SWAP1 JUMPDEST DUP2 SLOAD DUP2 MSTORE SWAP1 PUSH1 0x1 ADD SWAP1 PUSH1 0x20 ADD DUP1 DUP4 GT PUSH2 0x1BA5 JUMPI DUP3 SWAP1 SUB PUSH1 0x1F AND DUP3 ADD SWAP2 JUMPDEST POP POP POP POP POP DUP2 MSTORE PUSH1 0x20 ADD PUSH1 0x4 DUP3 ADD DUP1 SLOAD PUSH2 0x1BDB SWAP1 PUSH2 0x5BC5 JUMP JUMPDEST DUP1 PUSH1 0x1F ADD PUSH1 0x20 DUP1 SWAP2 DIV MUL PUSH1 0x20 ADD PUSH1 0x40 MLOAD SWAP1 DUP2 ADD PUSH1 0x40 MSTORE DUP1 SWAP3 SWAP2 SWAP1 DUP2 DUP2 MSTORE PUSH1 0x20 ADD DUP3 DUP1 SLOAD PUSH2 0x1C07 SWAP1 PUSH2 0x5BC5 JUMP JUMPDEST DUP1 ISZERO PUSH2 0x1C54 JUMPI DUP1 PUSH1 0x1F LT PUSH2 0x1C29 JUMPI PUSH2 0x100 DUP1 DUP4 SLOAD DIV MUL DUP4 MSTORE SWAP2 PUSH1 0x20 ADD SWAP2 PUSH2 0x1C54 JUMP JUMPDEST DUP3 ADD SWAP2 SWAP1 PUSH1 0x0 MSTORE PUSH1 0x20 PUSH1 0x0 KECCAK256 SWAP1 JUMPDEST DUP2 SLOAD DUP2 MSTORE SWAP1 PUSH1 0x1 ADD SWAP1 PUSH1 0x20 ADD DUP1 DUP4 GT PUSH2 0x1C37 JUMPI DUP3 SWAP1 SUB PUSH1 0x1F AND DUP3 ADD SWAP2 JUMPDEST POP POP POP POP POP DUP2 MSTORE PUSH1 0x20 ADD PUSH1 0x5 DUP3 ADD DUP1 SLOAD PUSH2 0x1C6D SWAP1 PUSH2 0x5BC5 JUMP JUMPDEST DUP1 PUSH1 0x1F ADD PUSH1 0x20 DUP1 SWAP2 DIV MUL PUSH1 0x20 ADD PUSH1 0x40 MLOAD SWAP1 DUP2 ADD PUSH1 0x40 MSTORE DUP1 SWAP3 SWAP2 SWAP1 DUP2 DUP2 MSTORE PUSH1 0x20 ADD DUP3 DUP1 SLOAD PUSH2 0x1C99 SWAP1 PUSH2 0x5BC5 JUMP JUMPDEST DUP1 ISZERO PUSH2 0x1CE6 JUMPI DUP1 PUSH1 0x1F LT PUSH2 0x1CBB JUMPI PUSH2 0x100 DUP1 DUP4 SLOAD DIV MUL DUP4 MSTORE SWAP2 PUSH1 0x20 ADD SWAP2 PUSH2 0x1CE6 JUMP JUMPDEST DUP3 ADD SWAP2 SWAP1 PUSH1 0x0 MSTORE PUSH1 0x20 PUSH1 0x0 KECCAK256 SWAP1 JUMPDEST DUP2 SLOAD DUP2 MSTORE SWAP1 PUSH1 0x1 ADD SWAP1 PUSH1 0x20 ADD DUP1 DUP4 GT PUSH2 0x1CC9 JUMPI DUP3 SWAP1 SUB PUSH1 0x1F AND DUP3 ADD SWAP2 JUMPDEST POP POP POP POP POP DUP2 MSTORE PUSH1 0x20 ADD PUSH1 0x6 DUP3 ADD DUP1 SLOAD PUSH2 0x1CFF SWAP1 PUSH2 0x5BC5 JUMP JUMPDEST DUP1 PUSH1 0x1F ADD PUSH1 0x20 DUP1 SWAP2 DIV MUL PUSH1 0x20 ADD PUSH1 0x40 MLOAD SWAP1 DUP2 ADD PUSH1 0x40 MSTORE DUP1 SWAP3 SWAP2 SWAP1 DUP2 DUP2 MSTORE PUSH1 0x20 ADD DUP3 DUP1 SLOAD PUSH2 0x1D2B SWAP1 PUSH2 0x5BC5 JUMP JUMPDEST DUP1 ISZERO PUSH2 0x1D78 JUMPI DUP1 PUSH1 0x1F LT PUSH2 0x1D4D JUMPI PUSH2 0x100 DUP1 DUP4 SLOAD DIV MUL DUP4 MSTORE SWAP2 PUSH1 0x20 ADD SWAP2 PUSH2 0x1D78 JUMP JUMPDEST DUP3 ADD SWAP2 SWAP1 PUSH1 0x0 MSTORE PUSH1 0x20 PUSH1 0x0 KECCAK256 SWAP1 JUMPDEST DUP2 SLOAD DUP2 MSTORE SWAP1 PUSH1 0x1 ADD SWAP1 PUSH1 0x20 ADD DUP1 DUP4 GT PUSH2 0x1D5B JUMPI DUP3 SWAP1 SUB PUSH1 0x1F AND DUP3 ADD SWAP2 JUMPDEST POP POP POP SWAP2 DUP4 MSTORE POP POP PUSH1 0x7 DUP3 ADD SLOAD PUSH1 0xFF AND ISZERO ISZERO PUSH1 0x20 DUP3 ADD MSTORE PUSH1 0x8 DUP3 ADD DUP1 SLOAD PUSH1 0x40 SWAP1 SWAP3 ADD SWAP2 PUSH2 0x1DA4 SWAP1 PUSH2 0x5BC5 JUMP JUMPDEST DUP1 PUSH1 0x1F ADD PUSH1 0x20 DUP1 SWAP2 DIV MUL PUSH1 0x20 ADD PUSH1 0x40 MLOAD SWAP1 DUP2 ADD PUSH1 0x40 MSTORE DUP1 SWAP3 SWAP2 SWAP1 DUP2 DUP2 MSTORE PUSH1 0x20 ADD DUP3 DUP1 SLOAD PUSH2 0x1DD0 SWAP1 PUSH2 0x5BC5 JUMP JUMPDEST DUP1 ISZERO PUSH2 0x1E1D JUMPI DUP1 PUSH1 0x1F LT PUSH2 0x1DF2 JUMPI PUSH2 0x100 DUP1 DUP4 SLOAD DIV MUL DUP4 MSTORE SWAP2 PUSH1 0x20 ADD SWAP2 PUSH2 0x1E1D JUMP JUMPDEST DUP3 ADD SWAP2 SWAP1 PUSH1 0x0 MSTORE PUSH1 0x20 PUSH1 0x0 KECCAK256 SWAP1 JUMPDEST DUP2 SLOAD DUP2 MSTORE SWAP1 PUSH1 0x1 ADD SWAP1 PUSH1 0x20 ADD DUP1 DUP4 GT PUSH2 0x1E00 JUMPI DUP3 SWAP1 SUB PUSH1 0x1F AND DUP3 ADD SWAP2 JUMPDEST POP POP POP POP POP DUP2 MSTORE PUSH1 0x20 ADD PUSH1 0x9 DUP3 ADD DUP1 SLOAD PUSH2 0x1E36 SWAP1 PUSH2 0x5BC5 JUMP JUMPDEST DUP1 PUSH1 0x1F ADD PUSH1 0x20 DUP1 SWAP2 DIV MUL PUSH1 0x20 ADD PUSH1 0x40 MLOAD SWAP1 DUP2 ADD PUSH1 0x40 MSTORE DUP1 SWAP3 SWAP2 SWAP1 DUP2 DUP2 MSTORE PUSH1 0x20 ADD DUP3 DUP1 SLOAD PUSH2 0x1E62 SWAP1 PUSH2 0x5BC5 JUMP JUMPDEST DUP1 ISZERO PUSH2 0x1EAF JUMPI DUP1 PUSH1 0x1F LT PUSH2 0x1E84 JUMPI PUSH2 0x100 DUP1 DUP4 SLOAD DIV MUL DUP4 MSTORE SWAP2 PUSH1 0x20 ADD SWAP2 PUSH2 0x1EAF JUMP JUMPDEST DUP3 ADD SWAP2 SWAP1 PUSH1 0x0 MSTORE PUSH1 0x20 PUSH1 0x0 KECCAK256 SWAP1 JUMPDEST DUP2 SLOAD DUP2 MSTORE SWAP1 PUSH1 0x1 ADD SWAP1 PUSH1 0x20 ADD DUP1 DUP4 GT PUSH2 0x1E92 JUMPI DUP3 SWAP1 SUB PUSH1 0x1F AND DUP3 ADD SWAP2 JUMPDEST POP POP POP POP POP DUP2 MSTORE PUSH1 0x20 ADD PUSH1 0xA DUP3 ADD DUP1 SLOAD PUSH2 0x1EC8 SWAP1 PUSH2 0x5BC5 JUMP JUMPDEST DUP1 PUSH1 0x1F ADD PUSH1 0x20 DUP1 SWAP2 DIV MUL PUSH1 0x20 ADD PUSH1 0x40 MLOAD SWAP1 DUP2 ADD PUSH1 0x40 MSTORE DUP1 SWAP3 SWAP2 SWAP1 DUP2 DUP2 MSTORE PUSH1 0x20 ADD DUP3 DUP1 SLOAD PUSH2 0x1EF4 SWAP1 PUSH2 0x5BC5 JUMP JUMPDEST DUP1 ISZERO PUSH2 0x1F41 JUMPI DUP1 PUSH1 0x1F LT PUSH2 0x1F16 JUMPI PUSH2 0x100 DUP1 DUP4 SLOAD DIV MUL DUP4 MSTORE SWAP2 PUSH1 0x20 ADD SWAP2 PUSH2 0x1F41 JUMP JUMPDEST DUP3 ADD SWAP2 SWAP1 PUSH1 0x0 MSTORE PUSH1 0x20 PUSH1 0x0 KECCAK256 SWAP1 JUMPDEST DUP2 SLOAD DUP2 MSTORE SWAP1 PUSH1 0x1 ADD SWAP1 PUSH1 0x20 ADD DUP1 DUP4 GT PUSH2 0x1F24 JUMPI DUP3 SWAP1 SUB PUSH1 0x1F AND DUP3 ADD SWAP2 JUMPDEST POP POP POP POP POP DUP2 MSTORE PUSH1 0x20 ADD PUSH1 0xB DUP3 ADD DUP1 SLOAD PUSH2 0x1F5A SWAP1 PUSH2 0x5BC5 JUMP JUMPDEST DUP1 PUSH1 0x1F ADD PUSH1 0x20 DUP1 SWAP2 DIV MUL PUSH1 0x20 ADD PUSH1 0x40 MLOAD SWAP1 DUP2 ADD PUSH1 0x40 MSTORE DUP1 SWAP3 SWAP2 SWAP1 DUP2 DUP2 MSTORE PUSH1 0x20 ADD DUP3 DUP1 SLOAD PUSH2 0x1F86 SWAP1 PUSH2 0x5BC5 JUMP JUMPDEST DUP1 ISZERO PUSH2 0x1FD3 JUMPI DUP1 PUSH1 0x1F LT PUSH2 0x1FA8 JUMPI PUSH2 0x100 DUP1 DUP4 SLOAD DIV MUL DUP4 MSTORE SWAP2 PUSH1 0x20 ADD SWAP2 PUSH2 0x1FD3 JUMP JUMPDEST DUP3 ADD SWAP2 SWAP1 PUSH1 0x0 MSTORE PUSH1 0x20 PUSH1 0x0 KECCAK256 SWAP1 JUMPDEST DUP2 SLOAD DUP2 MSTORE SWAP1 PUSH1 0x1 ADD SWAP1 PUSH1 0x20 ADD DUP1 DUP4 GT PUSH2 0x1FB6 JUMPI DUP3 SWAP1 SUB PUSH1 0x1F AND DUP3 ADD SWAP2 JUMPDEST POP POP POP POP POP DUP2 MSTORE PUSH1 0x20 ADD PUSH1 0xC DUP3 ADD DUP1 SLOAD PUSH2 0x1FEC SWAP1 PUSH2 0x5BC5 JUMP JUMPDEST DUP1 PUSH1 0x1F ADD PUSH1 0x20 DUP1 SWAP2 DIV MUL PUSH1 0x20 ADD PUSH1 0x40 MLOAD SWAP1 DUP2 ADD PUSH1 0x40 MSTORE DUP1 SWAP3 SWAP2 SWAP1 DUP2 DUP2 MSTORE PUSH1 0x20 ADD DUP3 DUP1 SLOAD PUSH2 0x2018 SWAP1 PUSH2 0x5BC5 JUMP JUMPDEST DUP1 ISZERO PUSH2 0x2065 JUMPI DUP1 PUSH1 0x1F LT PUSH2 0x203A JUMPI PUSH2 0x100 DUP1 DUP4 SLOAD DIV MUL DUP4 MSTORE SWAP2 PUSH1 0x20 ADD SWAP2 PUSH2 0x2065 JUMP JUMPDEST DUP3 ADD SWAP2 SWAP1 PUSH1 0x0 MSTORE PUSH1 0x20 PUSH1 0x0 KECCAK256 SWAP1 JUMPDEST DUP2 SLOAD DUP2 MSTORE SWAP1 PUSH1 0x1 ADD SWAP1 PUSH1 0x20 ADD DUP1 DUP4 GT PUSH2 0x2048 JUMPI DUP3 SWAP1 SUB PUSH1 0x1F AND DUP3 ADD SWAP2 JUMPDEST POP POP POP POP POP DUP2 MSTORE PUSH1 0x20 ADD PUSH1 0xD DUP3 ADD DUP1 SLOAD PUSH2 0x207E SWAP1 PUSH2 0x5BC5 JUMP JUMPDEST DUP1 PUSH1 0x1F ADD PUSH1 0x20 DUP1 SWAP2 DIV MUL PUSH1 0x20 ADD PUSH1 0x40 MLOAD SWAP1 DUP2 ADD PUSH1 0x40 MSTORE DUP1 SWAP3 SWAP2 SWAP1 DUP2 DUP2 MSTORE PUSH1 0x20 ADD DUP3 DUP1 SLOAD PUSH2 0x20AA SWAP1 PUSH2 0x5BC5 JUMP JUMPDEST DUP1 ISZERO PUSH2 0x20F7 JUMPI DUP1 PUSH1 0x1F LT PUSH2 0x20CC JUMPI PUSH2 0x100 DUP1 DUP4 SLOAD DIV MUL DUP4 MSTORE SWAP2 PUSH1 0x20 ADD SWAP2 PUSH2 0x20F7 JUMP JUMPDEST DUP3 ADD SWAP2 SWAP1 PUSH1 0x0 MSTORE PUSH1 0x20 PUSH1 0x0 KECCAK256 SWAP1 JUMPDEST DUP2 SLOAD DUP2 MSTORE SWAP1 PUSH1 0x1 ADD SWAP1 PUSH1 0x20 ADD DUP1 DUP4 GT PUSH2 0x20DA JUMPI DUP3 SWAP1 SUB PUSH1 0x1F AND DUP3 ADD SWAP2 JUMPDEST POP POP POP POP POP DUP2 MSTORE POP POP SWAP1 DUP1 PUSH1 0x10 ADD SLOAD SWAP1 DUP1 PUSH1 0x11 ADD SLOAD SWAP1 DUP1 PUSH1 0x12 ADD SLOAD SWAP1 DUP1 PUSH1 0x13 ADD SLOAD SWAP1 DUP1 PUSH1 0x14 ADD SLOAD SWAP1 DUP1 PUSH1 0x15 ADD DUP1 SLOAD PUSH2 0x212E SWAP1 PUSH2 0x5BC5 JUMP JUMPDEST DUP1 PUSH1 0x1F ADD PUSH1 0x20 DUP1 SWAP2 DIV MUL PUSH1 0x20 ADD PUSH1 0x40 MLOAD SWAP1 DUP2 ADD PUSH1 0x40 MSTORE DUP1 SWAP3 SWAP2 SWAP1 DUP2 DUP2 MSTORE PUSH1 0x20 ADD DUP3 DUP1 SLOAD PUSH2 0x215A SWAP1 PUSH2 0x5BC5 JUMP JUMPDEST DUP1 ISZERO PUSH2 0x21A7 JUMPI DUP1 PUSH1 0x1F LT PUSH2 0x217C JUMPI PUSH2 0x100 DUP1 DUP4 SLOAD DIV MUL DUP4 MSTORE SWAP2 PUSH1 0x20 ADD SWAP2 PUSH2 0x21A7 JUMP JUMPDEST DUP3 ADD SWAP2 SWAP1 PUSH1 0x0 MSTORE PUSH1 0x20 PUSH1 0x0 KECCAK256 SWAP1 JUMPDEST DUP2 SLOAD DUP2 MSTORE SWAP1 PUSH1 0x1 ADD SWAP1 PUSH1 0x20 ADD DUP1 DUP4 GT PUSH2 0x218A JUMPI DUP3 SWAP1 SUB PUSH1 0x1F AND DUP3 ADD SWAP2 JUMPDEST POP POP POP POP POP SWAP1 DUP1 PUSH1 0x16 ADD DUP1 SLOAD PUSH2 0x21BC SWAP1 PUSH2 0x5BC5 JUMP JUMPDEST DUP1 PUSH1 0x1F ADD PUSH1 0x20 DUP1 SWAP2 DIV MUL PUSH1 0x20 ADD PUSH1 0x40 MLOAD SWAP1 DUP2 ADD PUSH1 0x40 MSTORE DUP1 SWAP3 SWAP2 SWAP1 DUP2 DUP2 MSTORE PUSH1 0x20 ADD DUP3 DUP1 SLOAD PUSH2 0x21E8 SWAP1 PUSH2 0x5BC5 JUMP JUMPDEST DUP1 ISZERO PUSH2 0x2235 JUMPI DUP1 PUSH1 0x1F LT PUSH2 0x220A JUMPI PUSH2 0x100 DUP1 DUP4 SLOAD DIV MUL DUP4 MSTORE SWAP2 PUSH1 0x20 ADD SWAP2 PUSH2 0x2235 JUMP JUMPDEST DUP3 ADD SWAP2 SWAP1 PUSH1 0x0 MSTORE PUSH1 0x20 PUSH1 0x0 KECCAK256 SWAP1 JUMPDEST DUP2 SLOAD DUP2 MSTORE SWAP1 PUSH1 0x1 ADD SWAP1 PUSH1 0x20 ADD DUP1 DUP4 GT PUSH2 0x2218 JUMPI DUP3 SWAP1 SUB PUSH1 0x1F AND DUP3 ADD SWAP2 JUMPDEST POP POP POP POP POP SWAP1 DUP1 PUSH1 0x17 ADD DUP1 SLOAD PUSH2 0x224A SWAP1 PUSH2 0x5BC5 JUMP JUMPDEST DUP1 PUSH1 0x1F ADD PUSH1 0x20 DUP1 SWAP2 DIV MUL PUSH1 0x20 ADD PUSH1 0x40 MLOAD SWAP1 DUP2 ADD PUSH1 0x40 MSTORE DUP1 SWAP3 SWAP2 SWAP1 DUP2 DUP2 MSTORE PUSH1 0x20 ADD DUP3 DUP1 SLOAD PUSH2 0x2276 SWAP1 PUSH2 0x5BC5 JUMP JUMPDEST DUP1 ISZERO PUSH2 0x22C3 JUMPI DUP1 PUSH1 0x1F LT PUSH2 0x2298 JUMPI PUSH2 0x100 DUP1 DUP4 SLOAD DIV MUL DUP4 MSTORE SWAP2 PUSH1 0x20 ADD SWAP2 PUSH2 0x22C3 JUMP JUMPDEST DUP3 ADD SWAP2 SWAP1 PUSH1 0x0 MSTORE PUSH1 0x20 PUSH1 0x0 KECCAK256 SWAP1 JUMPDEST DUP2 SLOAD DUP2 MSTORE SWAP1 PUSH1 0x1 ADD SWAP1 PUSH1 0x20 ADD DUP1 DUP4 GT PUSH2 0x22A6 JUMPI DUP3 SWAP1 SUB PUSH1 0x1F AND DUP3 ADD SWAP2 JUMPDEST POP POP POP POP POP SWAP1 DUP1 PUSH1 0x18 ADD DUP1 SLOAD PUSH2 0x22D8 SWAP1 PUSH2 0x5BC5 JUMP JUMPDEST DUP1 PUSH1 0x1F ADD PUSH1 0x20 DUP1 SWAP2 DIV MUL PUSH1 0x20 ADD PUSH1 0x40 MLOAD SWAP1 DUP2 ADD PUSH1 0x40 MSTORE DUP1 SWAP3 SWAP2 SWAP1 DUP2 DUP2 MSTORE PUSH1 0x20 ADD DUP3 DUP1 SLOAD PUSH2 0x2304 SWAP1 PUSH2 0x5BC5 JUMP JUMPDEST DUP1 ISZERO PUSH2 0x2351 JUMPI DUP1 PUSH1 0x1F LT PUSH2 0x2326 JUMPI PUSH2 0x100 DUP1 DUP4 SLOAD DIV MUL DUP4 MSTORE SWAP2 PUSH1 0x20 ADD SWAP2 PUSH2 0x2351 JUMP JUMPDEST DUP3 ADD SWAP2 SWAP1 PUSH1 0x0 MSTORE PUSH1 0x20 PUSH1 0x0 KECCAK256 SWAP1 JUMPDEST DUP2 SLOAD DUP2 MSTORE SWAP1 PUSH1 0x1 ADD SWAP1 PUSH1 0x20 ADD DUP1 DUP4 GT PUSH2 0x2334 JUMPI DUP3 SWAP1 SUB PUSH1 0x1F AND DUP3 ADD SWAP2 JUMPDEST POP POP POP POP POP SWAP1 DUP1 PUSH1 0x19 ADD DUP1 SLOAD PUSH2 0x2366 SWAP1 PUSH2 0x5BC5 JUMP JUMPDEST DUP1 PUSH1 0x1F ADD PUSH1 0x20 DUP1 SWAP2 DIV MUL PUSH1 0x20 ADD PUSH1 0x40 MLOAD SWAP1 DUP2 ADD PUSH1 0x40 MSTORE DUP1 SWAP3 SWAP2 SWAP1 DUP2 DUP2 MSTORE PUSH1 0x20 ADD DUP3 DUP1 SLOAD PUSH2 0x2392 SWAP1 PUSH2 0x5BC5 JUMP JUMPDEST DUP1 ISZERO PUSH2 0x23DF JUMPI DUP1 PUSH1 0x1F LT PUSH2 0x23B4 JUMPI PUSH2 0x100 DUP1 DUP4 SLOAD DIV MUL DUP4 MSTORE SWAP2 PUSH1 0x20 ADD SWAP2 PUSH2 0x23DF JUMP JUMPDEST DUP3 ADD SWAP2 SWAP1 PUSH1 0x0 MSTORE PUSH1 0x20 PUSH1 0x0 KECCAK256 SWAP1 JUMPDEST DUP2 SLOAD DUP2 MSTORE SWAP1 PUSH1 0x1 ADD SWAP1 PUSH1 0x20 ADD DUP1 DUP4 GT PUSH2 0x23C2 JUMPI DUP3 SWAP1 SUB PUSH1 0x1F AND DUP3 ADD SWAP2 JUMPDEST POP POP PUSH1 0x40 DUP1 MLOAD PUSH2 0x100 DUP1 DUP3 ADD DUP4 MSTORE PUSH1 0x1A DUP9 ADD SLOAD PUSH1 0xFF DUP1 DUP3 AND ISZERO ISZERO DUP5 MSTORE SWAP1 DUP3 SWAP1 DIV DUP2 AND ISZERO ISZERO PUSH1 0x20 DUP5 ADD MSTORE PUSH1 0x1B DUP10 ADD SLOAD SWAP4 DUP4 ADD SWAP4 SWAP1 SWAP4 MSTORE PUSH1 0x1C DUP9 ADD SLOAD PUSH1 0x60 DUP4 ADD MSTORE PUSH1 0x1D DUP9 ADD SLOAD DUP1 DUP5 AND ISZERO ISZERO PUSH1 0x80 DUP5 ADD MSTORE DIV DUP3 AND ISZERO ISZERO PUSH1 0xA0 DUP3 ADD MSTORE PUSH1 0x1E DUP8 ADD SLOAD PUSH1 0xC0 DUP3 ADD MSTORE PUSH1 0x1F SWAP1 SWAP7 ADD SLOAD AND ISZERO ISZERO PUSH1 0xE0 DUP7 ADD MSTORE POP SWAP2 SWAP3 SWAP2 POP DUP16 SWAP1 POP JUMP JUMPDEST PUSH1 0x0 DUP2 GT DUP1 ISZERO PUSH2 0x246B JUMPI POP PUSH1 0x7 SLOAD DUP2 GT ISZERO JUMPDEST PUSH2 0x2487 JUMPI PUSH1 0x40 MLOAD PUSH3 0x461BCD PUSH1 0xE5 SHL DUP2 MSTORE PUSH1 0x4 ADD PUSH2 0x4D1 SWAP1 PUSH2 0x5850 JUMP JUMPDEST PUSH1 0x0 DUP2 DUP2 MSTORE PUSH1 0x1 PUSH1 0x20 DUP2 SWAP1 MSTORE PUSH1 0x40 SWAP1 SWAP2 KECCAK256 PUSH1 0x1D DUP2 ADD DUP1 SLOAD PUSH2 0xFFFF NOT AND SWAP1 SSTORE PUSH1 0x1F DUP2 ADD DUP1 SLOAD PUSH1 0xFF NOT AND DUP4 OR SWAP1 SSTORE SWAP1 DUP2 ADD DUP1 SLOAD PUSH1 0x1 PUSH1 0x1 PUSH1 0xA0 SHL SUB NOT DUP1 DUP3 AND PUSH1 0x1 PUSH1 0x1 PUSH1 0xA0 SHL SUB SWAP3 DUP4 AND OR SWAP1 SWAP3 SSTORE PUSH1 0x3 DUP4 ADD DUP1 SLOAD SWAP3 DUP4 AND SWAP3 SWAP1 SWAP2 AND SWAP2 SWAP1 SWAP2 OR SWAP1 SSTORE PUSH1 0x4 DUP2 ADD DUP1 SLOAD DUP3 SWAP2 DUP3 SWAP2 PUSH1 0x2 DUP4 ADD SWAP2 DUP3 SWAP2 DUP2 SWAP1 PUSH2 0x2502 SWAP1 PUSH2 0x5BC5 JUMP JUMPDEST PUSH2 0x250D SWAP3 SWAP2 SWAP1 PUSH2 0x4B3F JUMP JUMPDEST POP PUSH1 0x3 DUP3 ADD DUP2 PUSH1 0x3 ADD SWAP1 DUP1 SLOAD PUSH2 0x2522 SWAP1 PUSH2 0x5BC5 JUMP JUMPDEST PUSH2 0x252D SWAP3 SWAP2 SWAP1 PUSH2 0x4B3F JUMP JUMPDEST POP PUSH1 0x4 DUP3 ADD DUP2 PUSH1 0x4 ADD SWAP1 DUP1 SLOAD PUSH2 0x2542 SWAP1 PUSH2 0x5BC5 JUMP JUMPDEST PUSH2 0x254D SWAP3 SWAP2 SWAP1 PUSH2 0x4B3F JUMP JUMPDEST POP PUSH1 0x5 DUP3 ADD DUP2 PUSH1 0x5 ADD SWAP1 DUP1 SLOAD PUSH2 0x2562 SWAP1 PUSH2 0x5BC5 JUMP JUMPDEST PUSH2 0x256D SWAP3 SWAP2 SWAP1 PUSH2 0x4B3F JUMP JUMPDEST POP PUSH1 0x6 DUP3 ADD DUP2 PUSH1 0x6 ADD SWAP1 DUP1 SLOAD PUSH2 0x2582 SWAP1 PUSH2 0x5BC5 JUMP JUMPDEST PUSH2 0x258D SWAP3 SWAP2 SWAP1 PUSH2 0x4B3F JUMP JUMPDEST POP PUSH1 0x7 DUP3 DUP2 ADD SLOAD SWAP1 DUP3 ADD DUP1 SLOAD PUSH1 0xFF NOT AND PUSH1 0xFF SWAP1 SWAP3 AND ISZERO ISZERO SWAP2 SWAP1 SWAP2 OR SWAP1 SSTORE PUSH1 0x8 DUP1 DUP4 ADD DUP1 SLOAD SWAP2 DUP4 ADD SWAP2 PUSH2 0x25BE SWAP1 PUSH2 0x5BC5 JUMP JUMPDEST PUSH2 0x25C9 SWAP3 SWAP2 SWAP1 PUSH2 0x4B3F JUMP JUMPDEST POP PUSH1 0x9 DUP3 ADD DUP2 PUSH1 0x9 ADD SWAP1 DUP1 SLOAD PUSH2 0x25DE SWAP1 PUSH2 0x5BC5 JUMP JUMPDEST PUSH2 0x25E9 SWAP3 SWAP2 SWAP1 PUSH2 0x4B3F JUMP JUMPDEST POP PUSH1 0xA DUP3 ADD DUP2 PUSH1 0xA ADD SWAP1 DUP1 SLOAD PUSH2 0x25FE SWAP1 PUSH2 0x5BC5 JUMP JUMPDEST PUSH2 0x2609 SWAP3 SWAP2 SWAP1 PUSH2 0x4B3F JUMP JUMPDEST POP PUSH1 0xB DUP3 ADD DUP2 PUSH1 0xB ADD SWAP1 DUP1 SLOAD PUSH2 0x261E SWAP1 PUSH2 0x5BC5 JUMP JUMPDEST PUSH2 0x2629 SWAP3 SWAP2 SWAP1 PUSH2 0x4B3F JUMP JUMPDEST POP PUSH1 0xC DUP3 ADD DUP2 PUSH1 0xC ADD SWAP1 DUP1 SLOAD PUSH2 0x263E SWAP1 PUSH2 0x5BC5 JUMP JUMPDEST PUSH2 0x2649 SWAP3 SWAP2 SWAP1 PUSH2 0x4B3F JUMP JUMPDEST POP PUSH1 0xD DUP3 ADD DUP2 PUSH1 0xD ADD SWAP1 DUP1 SLOAD PUSH2 0x265E SWAP1 PUSH2 0x5BC5 JUMP JUMPDEST PUSH2 0x2669 SWAP3 SWAP2 SWAP1 PUSH2 0x4B3F JUMP JUMPDEST POP POP POP PUSH1 0x10 DUP3 ADD SLOAD DUP2 PUSH1 0x10 ADD SSTORE PUSH1 0x11 DUP3 ADD SLOAD DUP2 PUSH1 0x11 ADD SSTORE PUSH1 0x12 DUP3 ADD SLOAD DUP2 PUSH1 0x12 ADD SSTORE PUSH1 0x13 DUP3 ADD SLOAD DUP2 PUSH1 0x13 ADD SSTORE PUSH1 0x14 DUP3 ADD SLOAD DUP2 PUSH1 0x14 ADD SSTORE PUSH1 0x15 DUP3 ADD DUP2 PUSH1 0x15 ADD SWAP1 DUP1 SLOAD PUSH2 0x26B2 SWAP1 PUSH2 0x5BC5 JUMP JUMPDEST PUSH2 0x26BD SWAP3 SWAP2 SWAP1 PUSH2 0x4B3F JUMP JUMPDEST POP PUSH1 0x16 DUP3 ADD DUP2 PUSH1 0x16 ADD SWAP1 DUP1 SLOAD PUSH2 0x26D2 SWAP1 PUSH2 0x5BC5 JUMP JUMPDEST PUSH2 0x26DD SWAP3 SWAP2 SWAP1 PUSH2 0x4B3F JUMP JUMPDEST POP PUSH1 0x17 DUP3 ADD DUP2 PUSH1 0x17 ADD SWAP1 DUP1 SLOAD PUSH2 0x26F2 SWAP1 PUSH2 0x5BC5 JUMP JUMPDEST PUSH2 0x26FD SWAP3 SWAP2 SWAP1 PUSH2 0x4B3F JUMP JUMPDEST POP PUSH1 0x18 DUP3 ADD DUP2 PUSH1 0x18 ADD SWAP1 DUP1 SLOAD PUSH2 0x2712 SWAP1 PUSH2 0x5BC5 JUMP JUMPDEST PUSH2 0x271D SWAP3 SWAP2 SWAP1 PUSH2 0x4B3F JUMP JUMPDEST POP PUSH1 0x19 DUP3 ADD DUP2 PUSH1 0x19 ADD SWAP1 DUP1 SLOAD PUSH2 0x2732 SWAP1 PUSH2 0x5BC5 JUMP JUMPDEST PUSH2 0x273D SWAP3 SWAP2 SWAP1 PUSH2 0x4B3F JUMP JUMPDEST POP PUSH1 0x1A DUP3 DUP2 ADD DUP1 SLOAD SWAP2 DUP4 ADD DUP1 SLOAD PUSH1 0xFF SWAP4 DUP5 AND ISZERO ISZERO PUSH1 0xFF NOT DUP1 DUP4 AND DUP3 OR DUP5 SSTORE SWAP4 SLOAD PUSH2 0x100 SWAP1 DUP2 SWAP1 DIV DUP7 AND ISZERO ISZERO DUP2 MUL PUSH2 0xFF00 NOT SWAP3 DUP4 AND PUSH2 0xFFFF NOT SWAP5 DUP6 AND OR OR SWAP1 SWAP4 SSTORE PUSH1 0x1B DUP1 DUP9 ADD SLOAD SWAP1 DUP8 ADD SSTORE PUSH1 0x1C DUP1 DUP9 ADD SLOAD SWAP1 DUP8 ADD SSTORE PUSH1 0x1D DUP1 DUP9 ADD DUP1 SLOAD SWAP2 DUP9 ADD DUP1 SLOAD SWAP3 DUP9 AND ISZERO ISZERO DUP4 DUP9 AND DUP2 OR DUP3 SSTORE SWAP2 SLOAD DUP7 SWAP1 DIV DUP9 AND ISZERO ISZERO SWAP1 SWAP6 MUL SWAP3 AND SWAP3 AND SWAP2 SWAP1 SWAP2 OR OR SWAP1 SSTORE PUSH1 0x1E DUP1 DUP6 ADD SLOAD SWAP1 DUP5 ADD SSTORE PUSH1 0x1F SWAP4 DUP5 ADD SLOAD SWAP4 SWAP1 SWAP3 ADD DUP1 SLOAD SWAP4 SWAP1 SWAP2 AND ISZERO ISZERO SWAP3 SWAP1 SWAP2 AND SWAP2 SWAP1 SWAP2 OR SWAP1 SSTORE POP POP JUMP JUMPDEST PUSH1 0x0 DUP2 DUP2 MSTORE PUSH1 0x1 PUSH1 0x20 MSTORE PUSH1 0x40 DUP2 KECCAK256 PUSH1 0x10 ADD SLOAD PUSH1 0x60 SWAP2 DUP1 DUP3 PUSH1 0x1 PUSH1 0x1 PUSH1 0x40 SHL SUB DUP2 GT ISZERO PUSH2 0x2826 JUMPI PUSH4 0x4E487B71 PUSH1 0xE0 SHL PUSH1 0x0 MSTORE PUSH1 0x41 PUSH1 0x4 MSTORE PUSH1 0x24 PUSH1 0x0 REVERT JUMPDEST PUSH1 0x40 MLOAD SWAP1 DUP1 DUP3 MSTORE DUP1 PUSH1 0x20 MUL PUSH1 0x20 ADD DUP3 ADD PUSH1 0x40 MSTORE DUP1 ISZERO PUSH2 0x288B JUMPI DUP2 PUSH1 0x20 ADD JUMPDEST PUSH2 0x2878 PUSH1 0x40 MLOAD DUP1 PUSH1 0x80 ADD PUSH1 0x40 MSTORE DUP1 PUSH1 0x0 DUP2 MSTORE PUSH1 0x20 ADD PUSH1 0x0 DUP2 MSTORE PUSH1 0x20 ADD PUSH1 0x0 DUP2 MSTORE PUSH1 0x20 ADD PUSH1 0x0 PUSH1 0x1 PUSH1 0x1 PUSH1 0xA0 SHL SUB AND DUP2 MSTORE POP SWAP1 JUMP JUMPDEST DUP2 MSTORE PUSH1 0x20 ADD SWAP1 PUSH1 0x1 SWAP1 SUB SWAP1 DUP2 PUSH2 0x2844 JUMPI SWAP1 POP JUMPDEST POP SWAP1 POP PUSH1 0x0 JUMPDEST DUP4 DUP2 LT ISZERO PUSH2 0x2949 JUMPI PUSH1 0x0 PUSH2 0x28A6 DUP3 PUSH1 0x1 PUSH2 0x5B76 JUMP JUMPDEST PUSH1 0x0 DUP9 DUP2 MSTORE PUSH1 0x2 PUSH1 0x20 DUP2 DUP2 MSTORE PUSH1 0x40 DUP1 DUP5 KECCAK256 DUP6 DUP6 MSTORE DUP3 MSTORE SWAP3 DUP4 SWAP1 KECCAK256 DUP4 MLOAD PUSH1 0x80 DUP2 ADD DUP6 MSTORE DUP2 SLOAD DUP2 MSTORE PUSH1 0x1 DUP3 ADD SLOAD SWAP3 DUP2 ADD SWAP3 SWAP1 SWAP3 MSTORE SWAP2 DUP3 ADD SLOAD SWAP3 DUP2 ADD SWAP3 SWAP1 SWAP3 MSTORE PUSH1 0x3 DUP2 ADD SLOAD PUSH1 0x1 PUSH1 0x1 PUSH1 0xA0 SHL SUB AND PUSH1 0x60 DUP4 ADD MSTORE DUP6 MLOAD SWAP3 SWAP4 POP SWAP2 DUP6 SWAP1 DUP8 SWAP1 DUP2 LT PUSH2 0x291C JUMPI PUSH4 0x4E487B71 PUSH1 0xE0 SHL PUSH1 0x0 MSTORE PUSH1 0x32 PUSH1 0x4 MSTORE PUSH1 0x24 PUSH1 0x0 REVERT JUMPDEST PUSH1 0x20 SWAP1 DUP2 MUL SWAP2 SWAP1 SWAP2 ADD ADD MSTORE PUSH2 0x2932 PUSH1 0x1 DUP7 PUSH2 0x5B76 JUMP JUMPDEST SWAP5 POP POP POP DUP1 DUP1 PUSH2 0x2941 SWAP1 PUSH2 0x5C00 JUMP JUMPDEST SWAP2 POP POP PUSH2 0x2891 JUMP JUMPDEST POP SWAP5 SWAP4 POP POP POP POP JUMP JUMPDEST PUSH2 0x2978 PUSH1 0x40 MLOAD DUP1 PUSH1 0x60 ADD PUSH1 0x40 MSTORE DUP1 PUSH1 0x0 ISZERO ISZERO DUP2 MSTORE PUSH1 0x20 ADD PUSH1 0x60 DUP2 MSTORE PUSH1 0x20 ADD PUSH1 0x0 DUP2 MSTORE POP SWAP1 JUMP JUMPDEST CALLER PUSH1 0x0 SWAP1 DUP2 MSTORE PUSH1 0x4 PUSH1 0x20 MSTORE PUSH1 0x40 SWAP1 KECCAK256 SLOAD PUSH1 0xFF AND ISZERO ISZERO PUSH1 0x1 EQ ISZERO PUSH2 0x2A5F JUMPI CALLER PUSH1 0x0 SWAP1 DUP2 MSTORE PUSH1 0x4 PUSH1 0x20 SWAP1 DUP2 MSTORE PUSH1 0x40 SWAP2 DUP3 SWAP1 KECCAK256 DUP3 MLOAD PUSH1 0x60 DUP2 ADD SWAP1 SWAP4 MSTORE DUP1 SLOAD PUSH1 0xFF AND ISZERO ISZERO DUP4 MSTORE PUSH1 0x1 DUP2 ADD DUP1 SLOAD SWAP2 SWAP3 DUP5 ADD SWAP2 PUSH2 0x29CE SWAP1 PUSH2 0x5BC5 JUMP JUMPDEST DUP1 PUSH1 0x1F ADD PUSH1 0x20 DUP1 SWAP2 DIV MUL PUSH1 0x20 ADD PUSH1 0x40 MLOAD SWAP1 DUP2 ADD PUSH1 0x40 MSTORE DUP1 SWAP3 SWAP2 SWAP1 DUP2 DUP2 MSTORE PUSH1 0x20 ADD DUP3 DUP1 SLOAD PUSH2 0x29FA SWAP1 PUSH2 0x5BC5 JUMP JUMPDEST DUP1 ISZERO PUSH2 0x2A47 JUMPI DUP1 PUSH1 0x1F LT PUSH2 0x2A1C JUMPI PUSH2 0x100 DUP1 DUP4 SLOAD DIV MUL DUP4 MSTORE SWAP2 PUSH1 0x20 ADD SWAP2 PUSH2 0x2A47 JUMP JUMPDEST DUP3 ADD SWAP2 SWAP1 PUSH1 0x0 MSTORE PUSH1 0x20 PUSH1 0x0 KECCAK256 SWAP1 JUMPDEST DUP2 SLOAD DUP2 MSTORE SWAP1 PUSH1 0x1 ADD SWAP1 PUSH1 0x20 ADD DUP1 DUP4 GT PUSH2 0x2A2A JUMPI DUP3 SWAP1 SUB PUSH1 0x1F AND DUP3 ADD SWAP2 JUMPDEST POP POP POP POP POP DUP2 MSTORE PUSH1 0x20 ADD PUSH1 0x2 DUP3 ADD SLOAD DUP2 MSTORE POP POP SWAP1 POP SWAP1 JUMP JUMPDEST CALLER PUSH1 0x0 SWAP1 DUP2 MSTORE PUSH1 0x4 PUSH1 0x20 SWAP1 DUP2 MSTORE PUSH1 0x40 SWAP2 DUP3 SWAP1 KECCAK256 DUP3 MLOAD PUSH1 0x60 DUP2 ADD SWAP1 SWAP4 MSTORE DUP1 SLOAD PUSH1 0xFF AND ISZERO ISZERO DUP4 MSTORE PUSH1 0x1 DUP2 ADD DUP1 SLOAD SWAP2 SWAP3 DUP5 ADD SWAP2 PUSH2 0x29CE SWAP1 PUSH2 0x5BC5 JUMP JUMPDEST PUSH1 0x0 DUP1 SLOAD PUSH1 0x40 DUP1 MLOAD PUSH4 0x3FABE5A3 PUSH1 0xE2 SHL DUP2 MSTORE SWAP1 MLOAD DUP4 SWAP3 PUSH1 0x1 PUSH1 0x1 PUSH1 0xA0 SHL SUB AND SWAP2 PUSH4 0xFEAF968C SWAP2 PUSH1 0x4 DUP1 DUP4 ADD SWAP3 PUSH1 0xA0 SWAP3 SWAP2 SWAP1 DUP3 SWAP1 SUB ADD DUP2 DUP7 DUP1 EXTCODESIZE ISZERO DUP1 ISZERO PUSH2 0x2ADD JUMPI PUSH1 0x0 DUP1 REVERT JUMPDEST POP GAS STATICCALL ISZERO DUP1 ISZERO PUSH2 0x2AF1 JUMPI RETURNDATASIZE PUSH1 0x0 DUP1 RETURNDATACOPY RETURNDATASIZE PUSH1 0x0 REVERT JUMPDEST POP POP POP POP PUSH1 0x40 MLOAD RETURNDATASIZE PUSH1 0x1F NOT PUSH1 0x1F DUP3 ADD AND DUP3 ADD DUP1 PUSH1 0x40 MSTORE POP DUP2 ADD SWAP1 PUSH2 0x2B15 SWAP2 SWAP1 PUSH2 0x52F5 JUMP JUMPDEST POP POP POP SWAP2 POP POP PUSH2 0x2B24 DUP2 PUSH2 0x4ACA JUMP JUMPDEST SWAP2 POP POP SWAP1 JUMP JUMPDEST PUSH1 0x8 SLOAD PUSH1 0x60 SWAP1 PUSH1 0x0 DUP1 DUP3 PUSH1 0x1 PUSH1 0x1 PUSH1 0x40 SHL SUB DUP2 GT ISZERO PUSH2 0x2B59 JUMPI PUSH4 0x4E487B71 PUSH1 0xE0 SHL PUSH1 0x0 MSTORE PUSH1 0x41 PUSH1 0x4 MSTORE PUSH1 0x24 PUSH1 0x0 REVERT JUMPDEST PUSH1 0x40 MLOAD SWAP1 DUP1 DUP3 MSTORE DUP1 PUSH1 0x20 MUL PUSH1 0x20 ADD DUP3 ADD PUSH1 0x40 MSTORE DUP1 ISZERO PUSH2 0x2B92 JUMPI DUP2 PUSH1 0x20 ADD JUMPDEST PUSH2 0x2B7F PUSH2 0x4C88 JUMP JUMPDEST DUP2 MSTORE PUSH1 0x20 ADD SWAP1 PUSH1 0x1 SWAP1 SUB SWAP1 DUP2 PUSH2 0x2B77 JUMPI SWAP1 POP JUMPDEST POP SWAP1 POP PUSH1 0x0 JUMPDEST DUP4 DUP2 LT ISZERO PUSH2 0x1A4E JUMPI PUSH1 0x0 PUSH2 0x2BAD DUP3 PUSH1 0x1 PUSH2 0x5B76 JUMP JUMPDEST PUSH1 0x0 DUP2 DUP2 MSTORE PUSH1 0x3 PUSH1 0x20 SWAP1 DUP2 MSTORE PUSH1 0x40 SWAP2 DUP3 SWAP1 KECCAK256 DUP3 MLOAD PUSH2 0x1C0 DUP2 ADD DUP5 MSTORE DUP2 SLOAD DUP2 MSTORE PUSH1 0x1 DUP3 ADD SLOAD PUSH1 0x1 PUSH1 0x1 PUSH1 0xA0 SHL SUB AND SWAP3 DUP2 ADD SWAP3 SWAP1 SWAP3 MSTORE PUSH1 0x2 DUP2 ADD DUP1 SLOAD SWAP5 SWAP6 POP SWAP1 SWAP4 SWAP2 SWAP3 DUP5 SWAP3 SWAP1 DUP5 ADD SWAP2 SWAP1 PUSH2 0x2BFE SWAP1 PUSH2 0x5BC5 JUMP JUMPDEST DUP1 PUSH1 0x1F ADD PUSH1 0x20 DUP1 SWAP2 DIV MUL PUSH1 0x20 ADD PUSH1 0x40 MLOAD SWAP1 DUP2 ADD PUSH1 0x40 MSTORE DUP1 SWAP3 SWAP2 SWAP1 DUP2 DUP2 MSTORE PUSH1 0x20 ADD DUP3 DUP1 SLOAD PUSH2 0x2C2A SWAP1 PUSH2 0x5BC5 JUMP JUMPDEST DUP1 ISZERO PUSH2 0x2C77 JUMPI DUP1 PUSH1 0x1F LT PUSH2 0x2C4C JUMPI PUSH2 0x100 DUP1 DUP4 SLOAD DIV MUL DUP4 MSTORE SWAP2 PUSH1 0x20 ADD SWAP2 PUSH2 0x2C77 JUMP JUMPDEST DUP3 ADD SWAP2 SWAP1 PUSH1 0x0 MSTORE PUSH1 0x20 PUSH1 0x0 KECCAK256 SWAP1 JUMPDEST DUP2 SLOAD DUP2 MSTORE SWAP1 PUSH1 0x1 ADD SWAP1 PUSH1 0x20 ADD DUP1 DUP4 GT PUSH2 0x2C5A JUMPI DUP3 SWAP1 SUB PUSH1 0x1F AND DUP3 ADD SWAP2 JUMPDEST POP POP POP POP POP DUP2 MSTORE PUSH1 0x20 ADD PUSH1 0x3 DUP3 ADD DUP1 SLOAD PUSH2 0x2C90 SWAP1 PUSH2 0x5BC5 JUMP JUMPDEST DUP1 PUSH1 0x1F ADD PUSH1 0x20 DUP1 SWAP2 DIV MUL PUSH1 0x20 ADD PUSH1 0x40 MLOAD SWAP1 DUP2 ADD PUSH1 0x40 MSTORE DUP1 SWAP3 SWAP2 SWAP1 DUP2 DUP2 MSTORE PUSH1 0x20 ADD DUP3 DUP1 SLOAD PUSH2 0x2CBC SWAP1 PUSH2 0x5BC5 JUMP JUMPDEST DUP1 ISZERO PUSH2 0x2D09 JUMPI DUP1 PUSH1 0x1F LT PUSH2 0x2CDE JUMPI PUSH2 0x100 DUP1 DUP4 SLOAD DIV MUL DUP4 MSTORE SWAP2 PUSH1 0x20 ADD SWAP2 PUSH2 0x2D09 JUMP JUMPDEST DUP3 ADD SWAP2 SWAP1 PUSH1 0x0 MSTORE PUSH1 0x20 PUSH1 0x0 KECCAK256 SWAP1 JUMPDEST DUP2 SLOAD DUP2 MSTORE SWAP1 PUSH1 0x1 ADD SWAP1 PUSH1 0x20 ADD DUP1 DUP4 GT PUSH2 0x2CEC JUMPI DUP3 SWAP1 SUB PUSH1 0x1F AND DUP3 ADD SWAP2 JUMPDEST POP POP POP POP POP DUP2 MSTORE PUSH1 0x20 ADD PUSH1 0x4 DUP3 ADD DUP1 SLOAD PUSH2 0x2D22 SWAP1 PUSH2 0x5BC5 JUMP JUMPDEST DUP1 PUSH1 0x1F ADD PUSH1 0x20 DUP1 SWAP2 DIV MUL PUSH1 0x20 ADD PUSH1 0x40 MLOAD SWAP1 DUP2 ADD PUSH1 0x40 MSTORE DUP1 SWAP3 SWAP2 SWAP1 DUP2 DUP2 MSTORE PUSH1 0x20 ADD DUP3 DUP1 SLOAD PUSH2 0x2D4E SWAP1 PUSH2 0x5BC5 JUMP JUMPDEST DUP1 ISZERO PUSH2 0x2D9B JUMPI DUP1 PUSH1 0x1F LT PUSH2 0x2D70 JUMPI PUSH2 0x100 DUP1 DUP4 SLOAD DIV MUL DUP4 MSTORE SWAP2 PUSH1 0x20 ADD SWAP2 PUSH2 0x2D9B JUMP JUMPDEST DUP3 ADD SWAP2 SWAP1 PUSH1 0x0 MSTORE PUSH1 0x20 PUSH1 0x0 KECCAK256 SWAP1 JUMPDEST DUP2 SLOAD DUP2 MSTORE SWAP1 PUSH1 0x1 ADD SWAP1 PUSH1 0x20 ADD DUP1 DUP4 GT PUSH2 0x2D7E JUMPI DUP3 SWAP1 SUB PUSH1 0x1F AND DUP3 ADD SWAP2 JUMPDEST POP POP POP POP POP DUP2 MSTORE PUSH1 0x20 ADD PUSH1 0x5 DUP3 ADD DUP1 SLOAD PUSH2 0x2DB4 SWAP1 PUSH2 0x5BC5 JUMP JUMPDEST DUP1 PUSH1 0x1F ADD PUSH1 0x20 DUP1 SWAP2 DIV MUL PUSH1 0x20 ADD PUSH1 0x40 MLOAD SWAP1 DUP2 ADD PUSH1 0x40 MSTORE DUP1 SWAP3 SWAP2 SWAP1 DUP2 DUP2 MSTORE PUSH1 0x20 ADD DUP3 DUP1 SLOAD PUSH2 0x2DE0 SWAP1 PUSH2 0x5BC5 JUMP JUMPDEST DUP1 ISZERO PUSH2 0x2E2D JUMPI DUP1 PUSH1 0x1F LT PUSH2 0x2E02 JUMPI PUSH2 0x100 DUP1 DUP4 SLOAD DIV MUL DUP4 MSTORE SWAP2 PUSH1 0x20 ADD SWAP2 PUSH2 0x2E2D JUMP JUMPDEST DUP3 ADD SWAP2 SWAP1 PUSH1 0x0 MSTORE PUSH1 0x20 PUSH1 0x0 KECCAK256 SWAP1 JUMPDEST DUP2 SLOAD DUP2 MSTORE SWAP1 PUSH1 0x1 ADD SWAP1 PUSH1 0x20 ADD DUP1 DUP4 GT PUSH2 0x2E10 JUMPI DUP3 SWAP1 SUB PUSH1 0x1F AND DUP3 ADD SWAP2 JUMPDEST POP POP POP POP POP DUP2 MSTORE PUSH1 0x20 ADD PUSH1 0x6 DUP3 ADD DUP1 SLOAD PUSH2 0x2E46 SWAP1 PUSH2 0x5BC5 JUMP JUMPDEST DUP1 PUSH1 0x1F ADD PUSH1 0x20 DUP1 SWAP2 DIV MUL PUSH1 0x20 ADD PUSH1 0x40 MLOAD SWAP1 DUP2 ADD PUSH1 0x40 MSTORE DUP1 SWAP3 SWAP2 SWAP1 DUP2 DUP2 MSTORE PUSH1 0x20 ADD DUP3 DUP1 SLOAD PUSH2 0x2E72 SWAP1 PUSH2 0x5BC5 JUMP JUMPDEST DUP1 ISZERO PUSH2 0x2EBF JUMPI DUP1 PUSH1 0x1F LT PUSH2 0x2E94 JUMPI PUSH2 0x100 DUP1 DUP4 SLOAD DIV MUL DUP4 MSTORE SWAP2 PUSH1 0x20 ADD SWAP2 PUSH2 0x2EBF JUMP JUMPDEST DUP3 ADD SWAP2 SWAP1 PUSH1 0x0 MSTORE PUSH1 0x20 PUSH1 0x0 KECCAK256 SWAP1 JUMPDEST DUP2 SLOAD DUP2 MSTORE SWAP1 PUSH1 0x1 ADD SWAP1 PUSH1 0x20 ADD DUP1 DUP4 GT PUSH2 0x2EA2 JUMPI DUP3 SWAP1 SUB PUSH1 0x1F AND DUP3 ADD SWAP2 JUMPDEST POP POP POP SWAP2 DUP4 MSTORE POP POP PUSH1 0x7 DUP3 ADD SLOAD PUSH1 0xFF AND ISZERO ISZERO PUSH1 0x20 DUP3 ADD MSTORE PUSH1 0x8 DUP3 ADD DUP1 SLOAD PUSH1 0x40 SWAP1 SWAP3 ADD SWAP2 PUSH2 0x2EEB SWAP1 PUSH2 0x5BC5 JUMP JUMPDEST DUP1 PUSH1 0x1F ADD PUSH1 0x20 DUP1 SWAP2 DIV MUL PUSH1 0x20 ADD PUSH1 0x40 MLOAD SWAP1 DUP2 ADD PUSH1 0x40 MSTORE DUP1 SWAP3 SWAP2 SWAP1 DUP2 DUP2 MSTORE PUSH1 0x20 ADD DUP3 DUP1 SLOAD PUSH2 0x2F17 SWAP1 PUSH2 0x5BC5 JUMP JUMPDEST DUP1 ISZERO PUSH2 0x2F64 JUMPI DUP1 PUSH1 0x1F LT PUSH2 0x2F39 JUMPI PUSH2 0x100 DUP1 DUP4 SLOAD DIV MUL DUP4 MSTORE SWAP2 PUSH1 0x20 ADD SWAP2 PUSH2 0x2F64 JUMP JUMPDEST DUP3 ADD SWAP2 SWAP1 PUSH1 0x0 MSTORE PUSH1 0x20 PUSH1 0x0 KECCAK256 SWAP1 JUMPDEST DUP2 SLOAD DUP2 MSTORE SWAP1 PUSH1 0x1 ADD SWAP1 PUSH1 0x20 ADD DUP1 DUP4 GT PUSH2 0x2F47 JUMPI DUP3 SWAP1 SUB PUSH1 0x1F AND DUP3 ADD SWAP2 JUMPDEST POP POP POP POP POP DUP2 MSTORE PUSH1 0x20 ADD PUSH1 0x9 DUP3 ADD DUP1 SLOAD PUSH2 0x2F7D SWAP1 PUSH2 0x5BC5 JUMP JUMPDEST DUP1 PUSH1 0x1F ADD PUSH1 0x20 DUP1 SWAP2 DIV MUL PUSH1 0x20 ADD PUSH1 0x40 MLOAD SWAP1 DUP2 ADD PUSH1 0x40 MSTORE DUP1 SWAP3 SWAP2 SWAP1 DUP2 DUP2 MSTORE PUSH1 0x20 ADD DUP3 DUP1 SLOAD PUSH2 0x2FA9 SWAP1 PUSH2 0x5BC5 JUMP JUMPDEST DUP1 ISZERO PUSH2 0x2FF6 JUMPI DUP1 PUSH1 0x1F LT PUSH2 0x2FCB JUMPI PUSH2 0x100 DUP1 DUP4 SLOAD DIV MUL DUP4 MSTORE SWAP2 PUSH1 0x20 ADD SWAP2 PUSH2 0x2FF6 JUMP JUMPDEST DUP3 ADD SWAP2 SWAP1 PUSH1 0x0 MSTORE PUSH1 0x20 PUSH1 0x0 KECCAK256 SWAP1 JUMPDEST DUP2 SLOAD DUP2 MSTORE SWAP1 PUSH1 0x1 ADD SWAP1 PUSH1 0x20 ADD DUP1 DUP4 GT PUSH2 0x2FD9 JUMPI DUP3 SWAP1 SUB PUSH1 0x1F AND DUP3 ADD SWAP2 JUMPDEST POP POP POP POP POP DUP2 MSTORE PUSH1 0x20 ADD PUSH1 0xA DUP3 ADD DUP1 SLOAD PUSH2 0x300F SWAP1 PUSH2 0x5BC5 JUMP JUMPDEST DUP1 PUSH1 0x1F ADD PUSH1 0x20 DUP1 SWAP2 DIV MUL PUSH1 0x20 ADD PUSH1 0x40 MLOAD SWAP1 DUP2 ADD PUSH1 0x40 MSTORE DUP1 SWAP3 SWAP2 SWAP1 DUP2 DUP2 MSTORE PUSH1 0x20 ADD DUP3 DUP1 SLOAD PUSH2 0x303B SWAP1 PUSH2 0x5BC5 JUMP JUMPDEST DUP1 ISZERO PUSH2 0x3088 JUMPI DUP1 PUSH1 0x1F LT PUSH2 0x305D JUMPI PUSH2 0x100 DUP1 DUP4 SLOAD DIV MUL DUP4 MSTORE SWAP2 PUSH1 0x20 ADD SWAP2 PUSH2 0x3088 JUMP JUMPDEST DUP3 ADD SWAP2 SWAP1 PUSH1 0x0 MSTORE PUSH1 0x20 PUSH1 0x0 KECCAK256 SWAP1 JUMPDEST DUP2 SLOAD DUP2 MSTORE SWAP1 PUSH1 0x1 ADD SWAP1 PUSH1 0x20 ADD DUP1 DUP4 GT PUSH2 0x306B JUMPI DUP3 SWAP1 SUB PUSH1 0x1F AND DUP3 ADD SWAP2 JUMPDEST POP POP POP POP POP DUP2 MSTORE PUSH1 0x20 ADD PUSH1 0xB DUP3 ADD DUP1 SLOAD PUSH2 0x30A1 SWAP1 PUSH2 0x5BC5 JUMP JUMPDEST DUP1 PUSH1 0x1F ADD PUSH1 0x20 DUP1 SWAP2 DIV MUL PUSH1 0x20 ADD PUSH1 0x40 MLOAD SWAP1 DUP2 ADD PUSH1 0x40 MSTORE DUP1 SWAP3 SWAP2 SWAP1 DUP2 DUP2 MSTORE PUSH1 0x20 ADD DUP3 DUP1 SLOAD PUSH2 0x30CD SWAP1 PUSH2 0x5BC5 JUMP JUMPDEST DUP1 ISZERO PUSH2 0x311A JUMPI DUP1 PUSH1 0x1F LT PUSH2 0x30EF JUMPI PUSH2 0x100 DUP1 DUP4 SLOAD DIV MUL DUP4 MSTORE SWAP2 PUSH1 0x20 ADD SWAP2 PUSH2 0x311A JUMP JUMPDEST DUP3 ADD SWAP2 SWAP1 PUSH1 0x0 MSTORE PUSH1 0x20 PUSH1 0x0 KECCAK256 SWAP1 JUMPDEST DUP2 SLOAD DUP2 MSTORE SWAP1 PUSH1 0x1 ADD SWAP1 PUSH1 0x20 ADD DUP1 DUP4 GT PUSH2 0x30FD JUMPI DUP3 SWAP1 SUB PUSH1 0x1F AND DUP3 ADD SWAP2 JUMPDEST POP POP POP POP POP DUP2 MSTORE PUSH1 0x20 ADD PUSH1 0xC DUP3 ADD DUP1 SLOAD PUSH2 0x3133 SWAP1 PUSH2 0x5BC5 JUMP JUMPDEST DUP1 PUSH1 0x1F ADD PUSH1 0x20 DUP1 SWAP2 DIV MUL PUSH1 0x20 ADD PUSH1 0x40 MLOAD SWAP1 DUP2 ADD PUSH1 0x40 MSTORE DUP1 SWAP3 SWAP2 SWAP1 DUP2 DUP2 MSTORE PUSH1 0x20 ADD DUP3 DUP1 SLOAD PUSH2 0x315F SWAP1 PUSH2 0x5BC5 JUMP JUMPDEST DUP1 ISZERO PUSH2 0x31AC JUMPI DUP1 PUSH1 0x1F LT PUSH2 0x3181 JUMPI PUSH2 0x100 DUP1 DUP4 SLOAD DIV MUL DUP4 MSTORE SWAP2 PUSH1 0x20 ADD SWAP2 PUSH2 0x31AC JUMP JUMPDEST DUP3 ADD SWAP2 SWAP1 PUSH1 0x0 MSTORE PUSH1 0x20 PUSH1 0x0 KECCAK256 SWAP1 JUMPDEST DUP2 SLOAD DUP2 MSTORE SWAP1 PUSH1 0x1 ADD SWAP1 PUSH1 0x20 ADD DUP1 DUP4 GT PUSH2 0x318F JUMPI DUP3 SWAP1 SUB PUSH1 0x1F AND DUP3 ADD SWAP2 JUMPDEST POP POP POP POP POP DUP2 MSTORE PUSH1 0x20 ADD PUSH1 0xD DUP3 ADD DUP1 SLOAD PUSH2 0x31C5 SWAP1 PUSH2 0x5BC5 JUMP JUMPDEST DUP1 PUSH1 0x1F ADD PUSH1 0x20 DUP1 SWAP2 DIV MUL PUSH1 0x20 ADD PUSH1 0x40 MLOAD SWAP1 DUP2 ADD PUSH1 0x40 MSTORE DUP1 SWAP3 SWAP2 SWAP1 DUP2 DUP2 MSTORE PUSH1 0x20 ADD DUP3 DUP1 SLOAD PUSH2 0x31F1 SWAP1 PUSH2 0x5BC5 JUMP JUMPDEST DUP1 ISZERO PUSH2 0x323E JUMPI DUP1 PUSH1 0x1F LT PUSH2 0x3213 JUMPI PUSH2 0x100 DUP1 DUP4 SLOAD DIV MUL DUP4 MSTORE SWAP2 PUSH1 0x20 ADD SWAP2 PUSH2 0x323E JUMP JUMPDEST DUP3 ADD SWAP2 SWAP1 PUSH1 0x0 MSTORE PUSH1 0x20 PUSH1 0x0 KECCAK256 SWAP1 JUMPDEST DUP2 SLOAD DUP2 MSTORE SWAP1 PUSH1 0x1 ADD SWAP1 PUSH1 0x20 ADD DUP1 DUP4 GT PUSH2 0x3221 JUMPI DUP3 SWAP1 SUB PUSH1 0x1F AND DUP3 ADD SWAP2 JUMPDEST POP POP POP POP POP DUP2 MSTORE POP POP DUP5 DUP7 DUP2 MLOAD DUP2 LT PUSH2 0x3267 JUMPI PUSH4 0x4E487B71 PUSH1 0xE0 SHL PUSH1 0x0 MSTORE PUSH1 0x32 PUSH1 0x4 MSTORE PUSH1 0x24 PUSH1 0x0 REVERT JUMPDEST PUSH1 0x20 SWAP1 DUP2 MUL SWAP2 SWAP1 SWAP2 ADD ADD MSTORE PUSH2 0x327D PUSH1 0x1 DUP7 PUSH2 0x5B76 JUMP JUMPDEST SWAP5 POP POP POP DUP1 DUP1 PUSH2 0x328C SWAP1 PUSH2 0x5C00 JUMP JUMPDEST SWAP2 POP POP PUSH2 0x2B98 JUMP JUMPDEST PUSH1 0x0 DUP2 GT DUP1 ISZERO PUSH2 0x32A6 JUMPI POP PUSH1 0x7 SLOAD DUP2 GT ISZERO JUMPDEST PUSH2 0x32C2 JUMPI PUSH1 0x40 MLOAD PUSH3 0x461BCD PUSH1 0xE5 SHL DUP2 MSTORE PUSH1 0x4 ADD PUSH2 0x4D1 SWAP1 PUSH2 0x5850 JUMP JUMPDEST PUSH1 0x0 DUP2 DUP2 MSTORE PUSH1 0x1 PUSH1 0x20 MSTORE PUSH1 0x40 SWAP1 KECCAK256 PUSH1 0x1D DUP2 ADD SLOAD PUSH2 0x100 SWAP1 DIV PUSH1 0xFF AND ISZERO PUSH2 0x32E7 JUMPI PUSH1 0x0 DUP1 REVERT JUMPDEST PUSH1 0x1D DUP2 ADD SLOAD PUSH1 0xFF AND ISZERO PUSH2 0x32F9 JUMPI PUSH1 0x0 DUP1 REVERT JUMPDEST PUSH1 0x1D DUP2 ADD DUP1 SLOAD PUSH2 0xFFFF NOT AND PUSH2 0x101 OR SWAP1 SSTORE PUSH1 0x1F DUP2 ADD DUP1 SLOAD PUSH1 0xFF NOT AND SWAP1 SSTORE TIMESTAMP PUSH1 0x1E DUP3 ADD SSTORE PUSH1 0x0 DUP3 DUP2 MSTORE PUSH1 0x1 PUSH1 0x20 DUP2 SWAP1 MSTORE PUSH1 0x40 SWAP1 SWAP2 KECCAK256 DUP3 SLOAD DUP2 SSTORE DUP2 DUP4 ADD SLOAD SWAP2 DUP2 ADD DUP1 SLOAD PUSH1 0x1 PUSH1 0x1 PUSH1 0xA0 SHL SUB SWAP4 DUP5 AND PUSH1 0x1 PUSH1 0x1 PUSH1 0xA0 SHL SUB NOT SWAP2 DUP3 AND OR SWAP1 SWAP2 SSTORE PUSH1 0x2 DUP1 DUP6 ADD DUP1 SLOAD SWAP2 DUP5 ADD SWAP2 DUP3 SSTORE PUSH1 0x3 DUP1 DUP8 ADD SLOAD SWAP1 DUP6 ADD DUP1 SLOAD SWAP2 SWAP1 SWAP7 AND SWAP4 AND SWAP3 SWAP1 SWAP3 OR SWAP1 SWAP4 SSTORE PUSH1 0x4 DUP1 DUP6 ADD DUP1 SLOAD DUP7 SWAP6 SWAP3 DUP6 ADD SWAP2 SWAP1 PUSH2 0x2502 SWAP1 PUSH2 0x5BC5 JUMP JUMPDEST CALLER PUSH2 0x339B JUMPI PUSH1 0x0 DUP1 REVERT JUMPDEST PUSH1 0x7 DUP1 SLOAD SWAP1 PUSH1 0x0 PUSH2 0x33AB DUP4 PUSH2 0x5C00 JUMP JUMPDEST SWAP1 SWAP2 SSTORE POP POP PUSH1 0x7 SLOAD PUSH1 0x0 DUP2 DUP2 MSTORE PUSH1 0x1 PUSH1 0x20 DUP2 SWAP1 MSTORE PUSH1 0x40 SWAP1 SWAP2 KECCAK256 SWAP2 DUP3 SSTORE DUP2 DUP2 ADD DUP1 SLOAD PUSH1 0x1 PUSH1 0x1 PUSH1 0xA0 SHL SUB NOT AND CALLER OR SWAP1 SSTORE PUSH1 0x8 SLOAD PUSH2 0x33E6 SWAP2 PUSH2 0x5B76 JUMP JUMPDEST PUSH1 0x8 DUP2 SWAP1 SSTORE PUSH1 0x2 DUP3 ADD SSTORE PUSH1 0x3 DUP2 ADD DUP1 SLOAD PUSH1 0x1 PUSH1 0x1 PUSH1 0xA0 SHL SUB NOT AND CALLER OR SWAP1 SSTORE PUSH1 0x40 DUP1 DUP5 ADD MLOAD ADD MLOAD DUP1 MLOAD PUSH2 0x3422 SWAP2 PUSH1 0x4 DUP5 ADD SWAP2 PUSH1 0x20 SWAP1 SWAP2 ADD SWAP1 PUSH2 0x4D02 JUMP JUMPDEST POP PUSH1 0x40 DUP4 ADD MLOAD PUSH1 0x60 ADD MLOAD DUP1 MLOAD PUSH2 0x3442 SWAP2 PUSH1 0x5 DUP5 ADD SWAP2 PUSH1 0x20 SWAP1 SWAP2 ADD SWAP1 PUSH2 0x4D02 JUMP JUMPDEST POP PUSH1 0x40 DUP4 ADD MLOAD PUSH1 0x80 ADD MLOAD DUP1 MLOAD PUSH2 0x3462 SWAP2 PUSH1 0x6 DUP5 ADD SWAP2 PUSH1 0x20 SWAP1 SWAP2 ADD SWAP1 PUSH2 0x4D02 JUMP JUMPDEST POP PUSH1 0x40 DUP4 ADD MLOAD PUSH1 0xA0 ADD MLOAD DUP1 MLOAD PUSH2 0x3482 SWAP2 PUSH1 0x7 DUP5 ADD SWAP2 PUSH1 0x20 SWAP1 SWAP2 ADD SWAP1 PUSH2 0x4D02 JUMP JUMPDEST POP PUSH1 0x40 DUP4 ADD MLOAD PUSH1 0xC0 ADD MLOAD DUP1 MLOAD PUSH2 0x34A2 SWAP2 PUSH1 0x8 DUP5 ADD SWAP2 PUSH1 0x20 SWAP1 SWAP2 ADD SWAP1 PUSH2 0x4D02 JUMP JUMPDEST POP PUSH1 0x9 DUP2 ADD DUP1 SLOAD PUSH1 0xFF NOT AND PUSH1 0x1 OR SWAP1 SSTORE PUSH1 0x40 DUP4 ADD MLOAD PUSH2 0x100 ADD MLOAD DUP1 MLOAD PUSH2 0x34D2 SWAP2 PUSH1 0xA DUP5 ADD SWAP2 PUSH1 0x20 SWAP1 SWAP2 ADD SWAP1 PUSH2 0x4D02 JUMP JUMPDEST POP PUSH1 0x40 DUP4 ADD MLOAD PUSH2 0x120 ADD MLOAD DUP1 MLOAD PUSH2 0x34F3 SWAP2 PUSH1 0xB DUP5 ADD SWAP2 PUSH1 0x20 SWAP1 SWAP2 ADD SWAP1 PUSH2 0x4D02 JUMP JUMPDEST POP PUSH1 0x40 DUP4 ADD MLOAD PUSH2 0x140 ADD MLOAD DUP1 MLOAD PUSH2 0x3514 SWAP2 PUSH1 0xC DUP5 ADD SWAP2 PUSH1 0x20 SWAP1 SWAP2 ADD SWAP1 PUSH2 0x4D02 JUMP JUMPDEST POP PUSH1 0x40 DUP4 ADD MLOAD PUSH2 0x160 ADD MLOAD DUP1 MLOAD PUSH2 0x3535 SWAP2 PUSH1 0xD DUP5 ADD SWAP2 PUSH1 0x20 SWAP1 SWAP2 ADD SWAP1 PUSH2 0x4D02 JUMP JUMPDEST POP PUSH1 0x40 DUP4 ADD MLOAD PUSH2 0x180 ADD MLOAD DUP1 MLOAD PUSH2 0x3556 SWAP2 PUSH1 0xE DUP5 ADD SWAP2 PUSH1 0x20 SWAP1 SWAP2 ADD SWAP1 PUSH2 0x4D02 JUMP JUMPDEST POP PUSH1 0x40 DUP4 ADD MLOAD PUSH2 0x1A0 ADD MLOAD DUP1 MLOAD PUSH2 0x3577 SWAP2 PUSH1 0xF DUP5 ADD SWAP2 PUSH1 0x20 SWAP1 SWAP2 ADD SWAP1 PUSH2 0x4D02 JUMP JUMPDEST POP PUSH1 0x8 DUP1 SLOAD PUSH1 0x0 DUP2 DUP2 MSTORE PUSH1 0x3 PUSH1 0x20 SWAP1 DUP2 MSTORE PUSH1 0x40 DUP1 DUP4 KECCAK256 SWAP4 DUP5 SSTORE PUSH1 0x1 SWAP1 SWAP4 ADD DUP1 SLOAD PUSH1 0x1 PUSH1 0x1 PUSH1 0xA0 SHL SUB NOT AND CALLER OR SWAP1 SSTORE DUP7 DUP4 ADD MLOAD DUP4 ADD MLOAD SWAP4 SLOAD DUP3 MSTORE SWAP2 SWAP1 KECCAK256 DUP3 MLOAD PUSH2 0x35C9 SWAP4 PUSH1 0x2 SWAP1 SWAP3 ADD SWAP3 SWAP2 SWAP1 SWAP2 ADD SWAP1 PUSH2 0x4D02 JUMP JUMPDEST POP PUSH1 0x40 DUP1 DUP5 ADD MLOAD PUSH1 0x60 ADD MLOAD PUSH1 0x8 SLOAD PUSH1 0x0 SWAP1 DUP2 MSTORE PUSH1 0x3 PUSH1 0x20 DUP2 DUP2 MSTORE SWAP4 SWAP1 SWAP2 KECCAK256 DUP3 MLOAD PUSH2 0x35F9 SWAP5 SWAP2 SWAP1 SWAP3 ADD SWAP3 ADD SWAP1 PUSH2 0x4D02 JUMP JUMPDEST POP DUP3 PUSH1 0x40 ADD MLOAD PUSH1 0x80 ADD MLOAD PUSH1 0x3 PUSH1 0x0 PUSH1 0x8 SLOAD DUP2 MSTORE PUSH1 0x20 ADD SWAP1 DUP2 MSTORE PUSH1 0x20 ADD PUSH1 0x0 KECCAK256 PUSH1 0x4 ADD SWAP1 DUP1 MLOAD SWAP1 PUSH1 0x20 ADD SWAP1 PUSH2 0x362E SWAP3 SWAP2 SWAP1 PUSH2 0x4D02 JUMP JUMPDEST POP DUP3 PUSH1 0x40 ADD MLOAD PUSH1 0xA0 ADD MLOAD PUSH1 0x3 PUSH1 0x0 PUSH1 0x8 SLOAD DUP2 MSTORE PUSH1 0x20 ADD SWAP1 DUP2 MSTORE PUSH1 0x20 ADD PUSH1 0x0 KECCAK256 PUSH1 0x5 ADD SWAP1 DUP1 MLOAD SWAP1 PUSH1 0x20 ADD SWAP1 PUSH2 0x3663 SWAP3 SWAP2 SWAP1 PUSH2 0x4D02 JUMP JUMPDEST POP DUP3 PUSH1 0x40 ADD MLOAD PUSH1 0xC0 ADD MLOAD PUSH1 0x3 PUSH1 0x0 PUSH1 0x8 SLOAD DUP2 MSTORE PUSH1 0x20 ADD SWAP1 DUP2 MSTORE PUSH1 0x20 ADD PUSH1 0x0 KECCAK256 PUSH1 0x6 ADD SWAP1 DUP1 MLOAD SWAP1 PUSH1 0x20 ADD SWAP1 PUSH2 0x3698 SWAP3 SWAP2 SWAP1 PUSH2 0x4D02 JUMP JUMPDEST POP PUSH1 0x8 DUP1 SLOAD PUSH1 0x0 SWAP1 DUP2 MSTORE PUSH1 0x3 PUSH1 0x20 SWAP1 DUP2 MSTORE PUSH1 0x40 DUP1 DUP4 KECCAK256 PUSH1 0x7 ADD DUP1 SLOAD PUSH1 0xFF NOT AND PUSH1 0x1 OR SWAP1 SSTORE DUP7 DUP2 ADD MLOAD PUSH2 0x100 ADD MLOAD DUP5 SLOAD DUP5 MSTORE SWAP3 KECCAK256 DUP3 MLOAD PUSH2 0x36DF SWAP5 SWAP2 SWAP1 SWAP2 ADD SWAP3 SWAP1 SWAP2 ADD SWAP1 PUSH2 0x4D02 JUMP JUMPDEST POP DUP3 PUSH1 0x40 ADD MLOAD PUSH2 0x120 ADD MLOAD PUSH1 0x3 PUSH1 0x0 PUSH1 0x8 SLOAD DUP2 MSTORE PUSH1 0x20 ADD SWAP1 DUP2 MSTORE PUSH1 0x20 ADD PUSH1 0x0 KECCAK256 PUSH1 0x9 ADD SWAP1 DUP1 MLOAD SWAP1 PUSH1 0x20 ADD SWAP1 PUSH2 0x3715 SWAP3 SWAP2 SWAP1 PUSH2 0x4D02 JUMP JUMPDEST POP DUP3 PUSH1 0x40 ADD MLOAD PUSH2 0x140 ADD MLOAD PUSH1 0x3 PUSH1 0x0 PUSH1 0x8 SLOAD DUP2 MSTORE PUSH1 0x20 ADD SWAP1 DUP2 MSTORE PUSH1 0x20 ADD PUSH1 0x0 KECCAK256 PUSH1 0xA ADD SWAP1 DUP1 MLOAD SWAP1 PUSH1 0x20 ADD SWAP1 PUSH2 0x374B SWAP3 SWAP2 SWAP1 PUSH2 0x4D02 JUMP JUMPDEST POP DUP3 PUSH1 0x40 ADD MLOAD PUSH2 0x160 ADD MLOAD PUSH1 0x3 PUSH1 0x0 PUSH1 0x8 SLOAD DUP2 MSTORE PUSH1 0x20 ADD SWAP1 DUP2 MSTORE PUSH1 0x20 ADD PUSH1 0x0 KECCAK256 PUSH1 0xB ADD SWAP1 DUP1 MLOAD SWAP1 PUSH1 0x20 ADD SWAP1 PUSH2 0x3781 SWAP3 SWAP2 SWAP1 PUSH2 0x4D02 JUMP JUMPDEST POP DUP3 PUSH1 0x40 ADD MLOAD PUSH2 0x180 ADD MLOAD PUSH1 0x3 PUSH1 0x0 PUSH1 0x8 SLOAD DUP2 MSTORE PUSH1 0x20 ADD SWAP1 DUP2 MSTORE PUSH1 0x20 ADD PUSH1 0x0 KECCAK256 PUSH1 0xC ADD SWAP1 DUP1 MLOAD SWAP1 PUSH1 0x20 ADD SWAP1 PUSH2 0x37B7 SWAP3 SWAP2 SWAP1 PUSH2 0x4D02 JUMP JUMPDEST POP DUP3 PUSH1 0x40 ADD MLOAD PUSH2 0x1A0 ADD MLOAD PUSH1 0x3 PUSH1 0x0 PUSH1 0x8 SLOAD DUP2 MSTORE PUSH1 0x20 ADD SWAP1 DUP2 MSTORE PUSH1 0x20 ADD PUSH1 0x0 KECCAK256 PUSH1 0xD ADD SWAP1 DUP1 MLOAD SWAP1 PUSH1 0x20 ADD SWAP1 PUSH2 0x37ED SWAP3 SWAP2 SWAP1 PUSH2 0x4D02 JUMP JUMPDEST POP CALLER PUSH1 0x0 SWAP1 DUP2 MSTORE PUSH1 0x4 PUSH1 0x20 SWAP1 DUP2 MSTORE PUSH1 0x40 SWAP2 DUP3 SWAP1 KECCAK256 DUP1 SLOAD PUSH1 0xFF NOT AND PUSH1 0x1 SWAP1 DUP2 OR DUP3 SSTORE DUP7 DUP5 ADD MLOAD SWAP1 SWAP4 ADD MLOAD DUP1 MLOAD PUSH2 0x3828 SWAP5 SWAP3 SWAP1 SWAP3 ADD SWAP3 ADD SWAP1 PUSH2 0x4D02 JUMP JUMPDEST POP PUSH1 0x8 SLOAD CALLER PUSH1 0x0 SWAP1 DUP2 MSTORE PUSH1 0x4 PUSH1 0x20 SWAP1 DUP2 MSTORE PUSH1 0x40 DUP3 KECCAK256 PUSH1 0x2 ADD SWAP3 SWAP1 SWAP3 SSTORE PUSH1 0x11 DUP4 ADD DUP2 SWAP1 SSTORE PUSH1 0x10 DUP4 ADD SSTORE TIMESTAMP PUSH1 0x12 DUP4 ADD SSTORE PUSH1 0xC0 DUP5 ADD MLOAD PUSH1 0x13 DUP4 ADD SSTORE PUSH1 0xE0 DUP5 ADD MLOAD PUSH1 0x14 DUP4 ADD SSTORE PUSH2 0x100 DUP5 ADD MLOAD DUP1 MLOAD PUSH2 0x3882 SWAP3 PUSH1 0x15 DUP6 ADD SWAP3 ADD SWAP1 PUSH2 0x4D02 JUMP JUMPDEST POP PUSH2 0x120 DUP4 ADD MLOAD DUP1 MLOAD PUSH2 0x389F SWAP2 PUSH1 0x16 DUP5 ADD SWAP2 PUSH1 0x20 SWAP1 SWAP2 ADD SWAP1 PUSH2 0x4D02 JUMP JUMPDEST POP PUSH2 0x140 DUP4 ADD MLOAD DUP1 MLOAD PUSH2 0x38BC SWAP2 PUSH1 0x17 DUP5 ADD SWAP2 PUSH1 0x20 SWAP1 SWAP2 ADD SWAP1 PUSH2 0x4D02 JUMP JUMPDEST POP PUSH2 0x100 DUP4 ADD MLOAD DUP1 MLOAD PUSH2 0x38D9 SWAP2 PUSH1 0x15 DUP5 ADD SWAP2 PUSH1 0x20 SWAP1 SWAP2 ADD SWAP1 PUSH2 0x4D02 JUMP JUMPDEST POP PUSH2 0x160 DUP4 ADD MLOAD DUP1 MLOAD PUSH2 0x38F6 SWAP2 PUSH1 0x18 DUP5 ADD SWAP2 PUSH1 0x20 SWAP1 SWAP2 ADD SWAP1 PUSH2 0x4D02 JUMP JUMPDEST POP PUSH2 0x180 DUP4 ADD MLOAD DUP1 MLOAD PUSH2 0x3913 SWAP2 PUSH1 0x19 DUP5 ADD SWAP2 PUSH1 0x20 SWAP1 SWAP2 ADD SWAP1 PUSH2 0x4D02 JUMP JUMPDEST POP PUSH1 0x1A DUP2 ADD DUP1 SLOAD PUSH2 0xFFFF NOT SWAP1 DUP2 AND SWAP1 SWAP2 SSTORE PUSH1 0x1D DUP3 ADD DUP1 SLOAD SWAP1 SWAP2 AND SWAP1 SSTORE PUSH1 0x1F DUP2 ADD DUP1 SLOAD PUSH1 0xFF NOT AND SWAP1 SSTORE PUSH1 0x0 PUSH1 0x1E DUP3 ADD DUP2 SWAP1 SSTORE PUSH1 0x1B DUP3 ADD DUP2 SWAP1 SSTORE PUSH1 0x1C DUP3 ADD SSTORE PUSH1 0x7 SLOAD PUSH1 0x6 SLOAD PUSH1 0x9 SLOAD PUSH1 0x12 DUP5 ADD SLOAD PUSH1 0x13 DUP6 ADD SLOAD PUSH1 0x14 DUP7 ADD SLOAD PUSH1 0x40 MLOAD PUSH32 0x7C8A17AAA539B5BB8A8EA1700D5C6E2008E7BAA2A6F82E7CD29308DBBA896D7D SWAP7 PUSH2 0x39BC SWAP7 SWAP1 SWAP6 CALLER SWAP6 SWAP2 SWAP5 SWAP1 SWAP4 SWAP2 SWAP3 SWAP1 SWAP2 SWAP1 PUSH1 0x15 DUP12 ADD SWAP1 PUSH1 0x16 DUP13 ADD SWAP1 PUSH1 0x17 DUP14 ADD SWAP1 PUSH1 0x18 DUP15 ADD SWAP1 PUSH1 0x19 DUP16 ADD SWAP1 PUSH2 0x5AB3 JUMP JUMPDEST PUSH1 0x40 MLOAD DUP1 SWAP2 SUB SWAP1 LOG1 POP POP POP JUMP JUMPDEST PUSH1 0x0 DUP2 GT DUP1 ISZERO PUSH2 0x39DB JUMPI POP PUSH1 0x7 SLOAD DUP2 GT ISZERO JUMPDEST PUSH2 0x39F7 JUMPI PUSH1 0x40 MLOAD PUSH3 0x461BCD PUSH1 0xE5 SHL DUP2 MSTORE PUSH1 0x4 ADD PUSH2 0x4D1 SWAP1 PUSH2 0x5850 JUMP JUMPDEST PUSH1 0x0 DUP2 DUP2 MSTORE PUSH1 0x1 PUSH1 0x20 DUP2 SWAP1 MSTORE PUSH1 0x40 SWAP1 SWAP2 KECCAK256 PUSH1 0x1A DUP2 ADD DUP1 SLOAD PUSH2 0xFF00 NOT AND SWAP1 SSTORE SWAP1 DUP2 ADD DUP1 SLOAD PUSH1 0x1 PUSH1 0x1 PUSH1 0xA0 SHL SUB NOT DUP1 DUP3 AND PUSH1 0x1 PUSH1 0x1 PUSH1 0xA0 SHL SUB SWAP3 DUP4 AND OR SWAP1 SWAP3 SSTORE PUSH1 0x3 DUP4 ADD DUP1 SLOAD SWAP3 DUP4 AND SWAP3 SWAP1 SWAP2 AND SWAP2 SWAP1 SWAP2 OR SWAP1 SSTORE PUSH1 0x4 DUP2 ADD DUP1 SLOAD DUP3 SWAP2 DUP3 SWAP2 PUSH1 0x2 DUP4 ADD SWAP2 DUP3 SWAP2 DUP2 SWAP1 PUSH2 0x2502 SWAP1 PUSH2 0x5BC5 JUMP JUMPDEST PUSH1 0x0 DUP2 GT DUP1 ISZERO PUSH2 0x3A76 JUMPI POP PUSH1 0x7 SLOAD DUP2 GT ISZERO JUMPDEST PUSH2 0x3A7F JUMPI PUSH1 0x0 DUP1 REVERT JUMPDEST PUSH1 0x0 DUP2 DUP2 MSTORE PUSH1 0x1 PUSH1 0x20 MSTORE PUSH1 0x40 SWAP1 KECCAK256 PUSH1 0x14 DUP2 ADD SLOAD PUSH1 0x11 DUP3 ADD SLOAD LT PUSH2 0x3AAC JUMPI PUSH1 0x1A DUP2 ADD DUP1 SLOAD PUSH1 0xFF NOT AND PUSH1 0x1 OR SWAP1 SSTORE JUMPDEST PUSH1 0x1 DUP2 ADD SLOAD PUSH1 0x1 PUSH1 0x1 PUSH1 0xA0 SHL SUB AND PUSH1 0x11 PUSH1 0xA PUSH1 0x0 PUSH2 0x3ACA DUP4 DUP4 PUSH2 0x4B20 JUMP JUMPDEST SWAP1 POP PUSH1 0x64 PUSH1 0x0 PUSH2 0x3ADA DUP3 DUP5 PUSH2 0x4B20 JUMP JUMPDEST SWAP1 POP PUSH1 0x0 PUSH2 0x3AE8 CALLVALUE DUP4 PUSH2 0x4B20 JUMP JUMPDEST SWAP1 POP PUSH1 0x1 PUSH1 0x1 PUSH1 0xA0 SHL SUB DUP8 AND PUSH2 0x8FC PUSH2 0x3B01 CALLVALUE DUP5 PUSH2 0x4B33 JUMP JUMPDEST PUSH1 0x40 MLOAD DUP2 ISZERO SWAP1 SWAP3 MUL SWAP2 PUSH1 0x0 DUP2 DUP2 DUP2 DUP6 DUP9 DUP9 CALL SWAP4 POP POP POP POP ISZERO DUP1 ISZERO PUSH2 0x3B29 JUMPI RETURNDATASIZE PUSH1 0x0 DUP1 RETURNDATACOPY RETURNDATASIZE PUSH1 0x0 REVERT JUMPDEST POP PUSH1 0x5 SLOAD PUSH1 0x40 MLOAD PUSH1 0x1 PUSH1 0x1 PUSH1 0xA0 SHL SUB SWAP1 SWAP2 AND SWAP1 DUP2 SWAP1 DUP4 ISZERO PUSH2 0x8FC MUL SWAP1 DUP5 SWAP1 PUSH1 0x0 DUP2 DUP2 DUP2 DUP6 DUP9 DUP9 CALL SWAP4 POP POP POP POP ISZERO DUP1 ISZERO PUSH2 0x3B66 JUMPI RETURNDATASIZE PUSH1 0x0 DUP1 RETURNDATACOPY RETURNDATASIZE PUSH1 0x0 REVERT JUMPDEST POP CALLVALUE PUSH1 0x9 SLOAD PUSH2 0x3B75 SWAP2 SWAP1 PUSH2 0x5B76 JUMP JUMPDEST PUSH1 0x9 SSTORE PUSH1 0x11 DUP10 ADD SLOAD PUSH2 0x3B88 SWAP1 CALLVALUE SWAP1 PUSH2 0x5B76 JUMP JUMPDEST PUSH1 0x11 DUP11 ADD SSTORE PUSH1 0x10 DUP10 ADD SLOAD PUSH2 0x3B9D SWAP1 PUSH1 0x1 PUSH2 0x5B76 JUMP JUMPDEST PUSH1 0x10 DUP11 ADD SSTORE PUSH1 0x6 DUP1 SLOAD SWAP1 PUSH1 0x0 PUSH2 0x3BB2 DUP4 PUSH2 0x5C00 JUMP JUMPDEST SWAP2 SWAP1 POP SSTORE POP DUP9 PUSH1 0x10 ADD SLOAD PUSH1 0x2 PUSH1 0x0 DUP12 PUSH1 0x0 ADD SLOAD DUP2 MSTORE PUSH1 0x20 ADD SWAP1 DUP2 MSTORE PUSH1 0x20 ADD PUSH1 0x0 KECCAK256 PUSH1 0x0 DUP12 PUSH1 0x10 ADD SLOAD DUP2 MSTORE PUSH1 0x20 ADD SWAP1 DUP2 MSTORE PUSH1 0x20 ADD PUSH1 0x0 KECCAK256 PUSH1 0x0 ADD DUP2 SWAP1 SSTORE POP CALLVALUE PUSH1 0x2 PUSH1 0x0 DUP12 PUSH1 0x0 ADD SLOAD DUP2 MSTORE PUSH1 0x20 ADD SWAP1 DUP2 MSTORE PUSH1 0x20 ADD PUSH1 0x0 KECCAK256 PUSH1 0x0 DUP12 PUSH1 0x10 ADD SLOAD DUP2 MSTORE PUSH1 0x20 ADD SWAP1 DUP2 MSTORE PUSH1 0x20 ADD PUSH1 0x0 KECCAK256 PUSH1 0x1 ADD DUP2 SWAP1 SSTORE POP TIMESTAMP PUSH1 0x2 PUSH1 0x0 DUP12 PUSH1 0x0 ADD SLOAD DUP2 MSTORE PUSH1 0x20 ADD SWAP1 DUP2 MSTORE PUSH1 0x20 ADD PUSH1 0x0 KECCAK256 PUSH1 0x0 DUP12 PUSH1 0x10 ADD SLOAD DUP2 MSTORE PUSH1 0x20 ADD SWAP1 DUP2 MSTORE PUSH1 0x20 ADD PUSH1 0x0 KECCAK256 PUSH1 0x2 ADD DUP2 SWAP1 SSTORE POP CALLER PUSH1 0x2 PUSH1 0x0 DUP12 PUSH1 0x0 ADD SLOAD DUP2 MSTORE PUSH1 0x20 ADD SWAP1 DUP2 MSTORE PUSH1 0x20 ADD PUSH1 0x0 KECCAK256 PUSH1 0x0 DUP12 PUSH1 0x10 ADD SLOAD DUP2 MSTORE PUSH1 0x20 ADD SWAP1 DUP2 MSTORE PUSH1 0x20 ADD PUSH1 0x0 KECCAK256 PUSH1 0x3 ADD PUSH1 0x0 PUSH2 0x100 EXP DUP2 SLOAD DUP2 PUSH1 0x1 PUSH1 0x1 PUSH1 0xA0 SHL SUB MUL NOT AND SWAP1 DUP4 PUSH1 0x1 PUSH1 0x1 PUSH1 0xA0 SHL SUB AND MUL OR SWAP1 SSTORE POP DUP9 PUSH1 0x1 PUSH1 0x0 DUP13 DUP2 MSTORE PUSH1 0x20 ADD SWAP1 DUP2 MSTORE PUSH1 0x20 ADD PUSH1 0x0 KECCAK256 PUSH1 0x0 DUP3 ADD SLOAD DUP2 PUSH1 0x0 ADD SSTORE PUSH1 0x1 DUP3 ADD PUSH1 0x0 SWAP1 SLOAD SWAP1 PUSH2 0x100 EXP SWAP1 DIV PUSH1 0x1 PUSH1 0x1 PUSH1 0xA0 SHL SUB AND DUP2 PUSH1 0x1 ADD PUSH1 0x0 PUSH2 0x100 EXP DUP2 SLOAD DUP2 PUSH1 0x1 PUSH1 0x1 PUSH1 0xA0 SHL SUB MUL NOT AND SWAP1 DUP4 PUSH1 0x1 PUSH1 0x1 PUSH1 0xA0 SHL SUB AND MUL OR SWAP1 SSTORE POP PUSH1 0x2 DUP3 ADD DUP2 PUSH1 0x2 ADD PUSH1 0x0 DUP3 ADD SLOAD DUP2 PUSH1 0x0 ADD SSTORE PUSH1 0x1 DUP3 ADD PUSH1 0x0 SWAP1 SLOAD SWAP1 PUSH2 0x100 EXP SWAP1 DIV PUSH1 0x1 PUSH1 0x1 PUSH1 0xA0 SHL SUB AND DUP2 PUSH1 0x1 ADD PUSH1 0x0 PUSH2 0x100 EXP DUP2 SLOAD DUP2 PUSH1 0x1 PUSH1 0x1 PUSH1 0xA0 SHL SUB MUL NOT AND SWAP1 DUP4 PUSH1 0x1 PUSH1 0x1 PUSH1 0xA0 SHL SUB AND MUL OR SWAP1 SSTORE POP PUSH1 0x2 DUP3 ADD DUP2 PUSH1 0x2 ADD SWAP1 DUP1 SLOAD PUSH2 0x3D6F SWAP1 PUSH2 0x5BC5 JUMP JUMPDEST PUSH2 0x3D7A SWAP3 SWAP2 SWAP1 PUSH2 0x4B3F JUMP JUMPDEST POP PUSH1 0x3 DUP3 ADD DUP2 PUSH1 0x3 ADD SWAP1 DUP1 SLOAD PUSH2 0x3D8F SWAP1 PUSH2 0x5BC5 JUMP JUMPDEST PUSH2 0x3D9A SWAP3 SWAP2 SWAP1 PUSH2 0x4B3F JUMP JUMPDEST POP PUSH1 0x4 DUP3 ADD DUP2 PUSH1 0x4 ADD SWAP1 DUP1 SLOAD PUSH2 0x3DAF SWAP1 PUSH2 0x5BC5 JUMP JUMPDEST PUSH2 0x3DBA SWAP3 SWAP2 SWAP1 PUSH2 0x4B3F JUMP JUMPDEST POP PUSH1 0x5 DUP3 ADD DUP2 PUSH1 0x5 ADD SWAP1 DUP1 SLOAD PUSH2 0x3DCF SWAP1 PUSH2 0x5BC5 JUMP JUMPDEST PUSH2 0x3DDA SWAP3 SWAP2 SWAP1 PUSH2 0x4B3F JUMP JUMPDEST POP PUSH1 0x6 DUP3 ADD DUP2 PUSH1 0x6 ADD SWAP1 DUP1 SLOAD PUSH2 0x3DEF SWAP1 PUSH2 0x5BC5 JUMP JUMPDEST PUSH2 0x3DFA SWAP3 SWAP2 SWAP1 PUSH2 0x4B3F JUMP JUMPDEST POP PUSH1 0x7 DUP3 DUP2 ADD SLOAD SWAP1 DUP3 ADD DUP1 SLOAD PUSH1 0xFF NOT AND PUSH1 0xFF SWAP1 SWAP3 AND ISZERO ISZERO SWAP2 SWAP1 SWAP2 OR SWAP1 SSTORE PUSH1 0x8 DUP1 DUP4 ADD DUP1 SLOAD SWAP2 DUP4 ADD SWAP2 PUSH2 0x3E2B SWAP1 PUSH2 0x5BC5 JUMP JUMPDEST PUSH2 0x3E36 SWAP3 SWAP2 SWAP1 PUSH2 0x4B3F JUMP JUMPDEST POP PUSH1 0x9 DUP3 ADD DUP2 PUSH1 0x9 ADD SWAP1 DUP1 SLOAD PUSH2 0x3E4B SWAP1 PUSH2 0x5BC5 JUMP JUMPDEST PUSH2 0x3E56 SWAP3 SWAP2 SWAP1 PUSH2 0x4B3F JUMP JUMPDEST POP PUSH1 0xA DUP3 ADD DUP2 PUSH1 0xA ADD SWAP1 DUP1 SLOAD PUSH2 0x3E6B SWAP1 PUSH2 0x5BC5 JUMP JUMPDEST PUSH2 0x3E76 SWAP3 SWAP2 SWAP1 PUSH2 0x4B3F JUMP JUMPDEST POP PUSH1 0xB DUP3 ADD DUP2 PUSH1 0xB ADD SWAP1 DUP1 SLOAD PUSH2 0x3E8B SWAP1 PUSH2 0x5BC5 JUMP JUMPDEST PUSH2 0x3E96 SWAP3 SWAP2 SWAP1 PUSH2 0x4B3F JUMP JUMPDEST POP PUSH1 0xC DUP3 ADD DUP2 PUSH1 0xC ADD SWAP1 DUP1 SLOAD PUSH2 0x3EAB SWAP1 PUSH2 0x5BC5 JUMP JUMPDEST PUSH2 0x3EB6 SWAP3 SWAP2 SWAP1 PUSH2 0x4B3F JUMP JUMPDEST POP PUSH1 0xD DUP3 ADD DUP2 PUSH1 0xD ADD SWAP1 DUP1 SLOAD PUSH2 0x3ECB SWAP1 PUSH2 0x5BC5 JUMP JUMPDEST PUSH2 0x3ED6 SWAP3 SWAP2 SWAP1 PUSH2 0x4B3F JUMP JUMPDEST POP POP POP PUSH1 0x10 DUP3 ADD SLOAD DUP2 PUSH1 0x10 ADD SSTORE PUSH1 0x11 DUP3 ADD SLOAD DUP2 PUSH1 0x11 ADD SSTORE PUSH1 0x12 DUP3 ADD SLOAD DUP2 PUSH1 0x12 ADD SSTORE PUSH1 0x13 DUP3 ADD SLOAD DUP2 PUSH1 0x13 ADD SSTORE PUSH1 0x14 DUP3 ADD SLOAD DUP2 PUSH1 0x14 ADD SSTORE PUSH1 0x15 DUP3 ADD DUP2 PUSH1 0x15 ADD SWAP1 DUP1 SLOAD PUSH2 0x3F1F SWAP1 PUSH2 0x5BC5 JUMP JUMPDEST PUSH2 0x3F2A SWAP3 SWAP2 SWAP1 PUSH2 0x4B3F JUMP JUMPDEST POP PUSH1 0x16 DUP3 ADD DUP2 PUSH1 0x16 ADD SWAP1 DUP1 SLOAD PUSH2 0x3F3F SWAP1 PUSH2 0x5BC5 JUMP JUMPDEST PUSH2 0x3F4A SWAP3 SWAP2 SWAP1 PUSH2 0x4B3F JUMP JUMPDEST POP PUSH1 0x17 DUP3 ADD DUP2 PUSH1 0x17 ADD SWAP1 DUP1 SLOAD PUSH2 0x3F5F SWAP1 PUSH2 0x5BC5 JUMP JUMPDEST PUSH2 0x3F6A SWAP3 SWAP2 SWAP1 PUSH2 0x4B3F JUMP JUMPDEST POP PUSH1 0x18 DUP3 ADD DUP2 PUSH1 0x18 ADD SWAP1 DUP1 SLOAD PUSH2 0x3F7F SWAP1 PUSH2 0x5BC5 JUMP JUMPDEST PUSH2 0x3F8A SWAP3 SWAP2 SWAP1 PUSH2 0x4B3F JUMP JUMPDEST POP PUSH1 0x19 DUP3 ADD DUP2 PUSH1 0x19 ADD SWAP1 DUP1 SLOAD PUSH2 0x3F9F SWAP1 PUSH2 0x5BC5 JUMP JUMPDEST PUSH2 0x3FAA SWAP3 SWAP2 SWAP1 PUSH2 0x4B3F JUMP JUMPDEST POP PUSH1 0x1A DUP3 DUP2 ADD DUP1 SLOAD SWAP2 DUP4 ADD DUP1 SLOAD PUSH1 0xFF SWAP4 DUP5 AND ISZERO ISZERO PUSH1 0xFF NOT DUP1 DUP4 AND DUP3 OR DUP5 SSTORE SWAP4 SLOAD PUSH2 0x100 SWAP1 DUP2 SWAP1 DIV DUP7 AND ISZERO ISZERO DUP2 MUL PUSH2 0xFF00 NOT SWAP3 DUP4 AND PUSH2 0xFFFF NOT SWAP5 DUP6 AND OR OR SWAP1 SWAP4 SSTORE PUSH1 0x1B DUP1 DUP9 ADD SLOAD SWAP1 DUP8 ADD SSTORE PUSH1 0x1C DUP1 DUP9 ADD SLOAD SWAP1 DUP8 ADD SSTORE PUSH1 0x1D DUP1 DUP9 ADD DUP1 SLOAD SWAP2 DUP9 ADD DUP1 SLOAD SWAP3 DUP9 AND ISZERO ISZERO DUP4 DUP9 AND DUP2 OR DUP3 SSTORE SWAP2 SLOAD DUP7 SWAP1 DIV DUP9 AND ISZERO ISZERO SWAP1 SWAP6 MUL SWAP3 AND SWAP3 AND SWAP2 SWAP1 SWAP2 OR OR SWAP1 SSTORE PUSH1 0x1E DUP1 DUP6 ADD SLOAD SWAP1 DUP5 ADD SSTORE PUSH1 0x1F SWAP4 DUP5 ADD SLOAD SWAP4 SWAP1 SWAP3 ADD DUP1 SLOAD SWAP4 SWAP1 SWAP2 AND ISZERO ISZERO SWAP3 SWAP1 SWAP2 AND SWAP2 SWAP1 SWAP2 OR SWAP1 SSTORE POP POP POP POP POP POP POP POP POP POP JUMP JUMPDEST PUSH2 0x4067 PUSH2 0x4BC6 JUMP JUMPDEST PUSH1 0x0 DUP3 DUP2 MSTORE PUSH1 0x1 PUSH1 0x20 MSTORE PUSH1 0x40 SWAP1 KECCAK256 SLOAD DUP3 EQ ISZERO PUSH2 0x4AC5 JUMPI PUSH1 0x0 DUP3 DUP2 MSTORE PUSH1 0x1 PUSH1 0x20 DUP2 DUP2 MSTORE PUSH1 0x40 SWAP3 DUP4 SWAP1 KECCAK256 DUP4 MLOAD PUSH2 0x1C0 DUP1 DUP3 ADD DUP7 MSTORE DUP3 SLOAD DUP3 MSTORE SWAP4 DUP3 ADD SLOAD PUSH1 0x1 PUSH1 0x1 PUSH1 0xA0 SHL SUB SWAP1 DUP2 AND DUP3 DUP6 ADD MSTORE DUP6 MLOAD SWAP5 DUP6 ADD DUP7 MSTORE PUSH1 0x2 DUP4 ADD DUP1 SLOAD DUP7 MSTORE PUSH1 0x3 DUP5 ADD SLOAD SWAP1 SWAP2 AND SWAP4 DUP6 ADD SWAP4 SWAP1 SWAP4 MSTORE PUSH1 0x4 DUP3 ADD DUP1 SLOAD SWAP2 SWAP6 SWAP3 SWAP5 DUP7 DUP5 ADD SWAP5 SWAP1 SWAP4 SWAP1 SWAP3 SWAP1 DUP5 ADD SWAP2 SWAP1 PUSH2 0x40EE SWAP1 PUSH2 0x5BC5 JUMP JUMPDEST DUP1 PUSH1 0x1F ADD PUSH1 0x20 DUP1 SWAP2 DIV MUL PUSH1 0x20 ADD PUSH1 0x40 MLOAD SWAP1 DUP2 ADD PUSH1 0x40 MSTORE DUP1 SWAP3 SWAP2 SWAP1 DUP2 DUP2 MSTORE PUSH1 0x20 ADD DUP3 DUP1 SLOAD PUSH2 0x411A SWAP1 PUSH2 0x5BC5 JUMP JUMPDEST DUP1 ISZERO PUSH2 0x4167 JUMPI DUP1 PUSH1 0x1F LT PUSH2 0x413C JUMPI PUSH2 0x100 DUP1 DUP4 SLOAD DIV MUL DUP4 MSTORE SWAP2 PUSH1 0x20 ADD SWAP2 PUSH2 0x4167 JUMP JUMPDEST DUP3 ADD SWAP2 SWAP1 PUSH1 0x0 MSTORE PUSH1 0x20 PUSH1 0x0 KECCAK256 SWAP1 JUMPDEST DUP2 SLOAD DUP2 MSTORE SWAP1 PUSH1 0x1 ADD SWAP1 PUSH1 0x20 ADD DUP1 DUP4 GT PUSH2 0x414A JUMPI DUP3 SWAP1 SUB PUSH1 0x1F AND DUP3 ADD SWAP2 JUMPDEST POP POP POP POP POP DUP2 MSTORE PUSH1 0x20 ADD PUSH1 0x3 DUP3 ADD DUP1 SLOAD PUSH2 0x4180 SWAP1 PUSH2 0x5BC5 JUMP JUMPDEST DUP1 PUSH1 0x1F ADD PUSH1 0x20 DUP1 SWAP2 DIV MUL PUSH1 0x20 ADD PUSH1 0x40 MLOAD SWAP1 DUP2 ADD PUSH1 0x40 MSTORE DUP1 SWAP3 SWAP2 SWAP1 DUP2 DUP2 MSTORE PUSH1 0x20 ADD DUP3 DUP1 SLOAD PUSH2 0x41AC SWAP1 PUSH2 0x5BC5 JUMP JUMPDEST DUP1 ISZERO PUSH2 0x41F9 JUMPI DUP1 PUSH1 0x1F LT PUSH2 0x41CE JUMPI PUSH2 0x100 DUP1 DUP4 SLOAD DIV MUL DUP4 MSTORE SWAP2 PUSH1 0x20 ADD SWAP2 PUSH2 0x41F9 JUMP JUMPDEST DUP3 ADD SWAP2 SWAP1 PUSH1 0x0 MSTORE PUSH1 0x20 PUSH1 0x0 KECCAK256 SWAP1 JUMPDEST DUP2 SLOAD DUP2 MSTORE SWAP1 PUSH1 0x1 ADD SWAP1 PUSH1 0x20 ADD DUP1 DUP4 GT PUSH2 0x41DC JUMPI DUP3 SWAP1 SUB PUSH1 0x1F AND DUP3 ADD SWAP2 JUMPDEST POP POP POP POP POP DUP2 MSTORE PUSH1 0x20 ADD PUSH1 0x4 DUP3 ADD DUP1 SLOAD PUSH2 0x4212 SWAP1 PUSH2 0x5BC5 JUMP JUMPDEST DUP1 PUSH1 0x1F ADD PUSH1 0x20 DUP1 SWAP2 DIV MUL PUSH1 0x20 ADD PUSH1 0x40 MLOAD SWAP1 DUP2 ADD PUSH1 0x40 MSTORE DUP1 SWAP3 SWAP2 SWAP1 DUP2 DUP2 MSTORE PUSH1 0x20 ADD DUP3 DUP1 SLOAD PUSH2 0x423E SWAP1 PUSH2 0x5BC5 JUMP JUMPDEST DUP1 ISZERO PUSH2 0x428B JUMPI DUP1 PUSH1 0x1F LT PUSH2 0x4260 JUMPI PUSH2 0x100 DUP1 DUP4 SLOAD DIV MUL DUP4 MSTORE SWAP2 PUSH1 0x20 ADD SWAP2 PUSH2 0x428B JUMP JUMPDEST DUP3 ADD SWAP2 SWAP1 PUSH1 0x0 MSTORE PUSH1 0x20 PUSH1 0x0 KECCAK256 SWAP1 JUMPDEST DUP2 SLOAD DUP2 MSTORE SWAP1 PUSH1 0x1 ADD SWAP1 PUSH1 0x20 ADD DUP1 DUP4 GT PUSH2 0x426E JUMPI DUP3 SWAP1 SUB PUSH1 0x1F AND DUP3 ADD SWAP2 JUMPDEST POP POP POP POP POP DUP2 MSTORE PUSH1 0x20 ADD PUSH1 0x5 DUP3 ADD DUP1 SLOAD PUSH2 0x42A4 SWAP1 PUSH2 0x5BC5 JUMP JUMPDEST DUP1 PUSH1 0x1F ADD PUSH1 0x20 DUP1 SWAP2 DIV MUL PUSH1 0x20 ADD PUSH1 0x40 MLOAD SWAP1 DUP2 ADD PUSH1 0x40 MSTORE DUP1 SWAP3 SWAP2 SWAP1 DUP2 DUP2 MSTORE PUSH1 0x20 ADD DUP3 DUP1 SLOAD PUSH2 0x42D0 SWAP1 PUSH2 0x5BC5 JUMP JUMPDEST DUP1 ISZERO PUSH2 0x431D JUMPI DUP1 PUSH1 0x1F LT PUSH2 0x42F2 JUMPI PUSH2 0x100 DUP1 DUP4 SLOAD DIV MUL DUP4 MSTORE SWAP2 PUSH1 0x20 ADD SWAP2 PUSH2 0x431D JUMP JUMPDEST DUP3 ADD SWAP2 SWAP1 PUSH1 0x0 MSTORE PUSH1 0x20 PUSH1 0x0 KECCAK256 SWAP1 JUMPDEST DUP2 SLOAD DUP2 MSTORE SWAP1 PUSH1 0x1 ADD SWAP1 PUSH1 0x20 ADD DUP1 DUP4 GT PUSH2 0x4300 JUMPI DUP3 SWAP1 SUB PUSH1 0x1F AND DUP3 ADD SWAP2 JUMPDEST POP POP POP POP POP DUP2 MSTORE PUSH1 0x20 ADD PUSH1 0x6 DUP3 ADD DUP1 SLOAD PUSH2 0x4336 SWAP1 PUSH2 0x5BC5 JUMP JUMPDEST DUP1 PUSH1 0x1F ADD PUSH1 0x20 DUP1 SWAP2 DIV MUL PUSH1 0x20 ADD PUSH1 0x40 MLOAD SWAP1 DUP2 ADD PUSH1 0x40 MSTORE DUP1 SWAP3 SWAP2 SWAP1 DUP2 DUP2 MSTORE PUSH1 0x20 ADD DUP3 DUP1 SLOAD PUSH2 0x4362 SWAP1 PUSH2 0x5BC5 JUMP JUMPDEST DUP1 ISZERO PUSH2 0x43AF JUMPI DUP1 PUSH1 0x1F LT PUSH2 0x4384 JUMPI PUSH2 0x100 DUP1 DUP4 SLOAD DIV MUL DUP4 MSTORE SWAP2 PUSH1 0x20 ADD SWAP2 PUSH2 0x43AF JUMP JUMPDEST DUP3 ADD SWAP2 SWAP1 PUSH1 0x0 MSTORE PUSH1 0x20 PUSH1 0x0 KECCAK256 SWAP1 JUMPDEST DUP2 SLOAD DUP2 MSTORE SWAP1 PUSH1 0x1 ADD SWAP1 PUSH1 0x20 ADD DUP1 DUP4 GT PUSH2 0x4392 JUMPI DUP3 SWAP1 SUB PUSH1 0x1F AND DUP3 ADD SWAP2 JUMPDEST POP POP POP SWAP2 DUP4 MSTORE POP POP PUSH1 0x7 DUP3 ADD SLOAD PUSH1 0xFF AND ISZERO ISZERO PUSH1 0x20 DUP3 ADD MSTORE PUSH1 0x8 DUP3 ADD DUP1 SLOAD PUSH1 0x40 SWAP1 SWAP3 ADD SWAP2 PUSH2 0x43DB SWAP1 PUSH2 0x5BC5 JUMP JUMPDEST DUP1 PUSH1 0x1F ADD PUSH1 0x20 DUP1 SWAP2 DIV MUL PUSH1 0x20 ADD PUSH1 0x40 MLOAD SWAP1 DUP2 ADD PUSH1 0x40 MSTORE DUP1 SWAP3 SWAP2 SWAP1 DUP2 DUP2 MSTORE PUSH1 0x20 ADD DUP3 DUP1 SLOAD PUSH2 0x4407 SWAP1 PUSH2 0x5BC5 JUMP JUMPDEST DUP1 ISZERO PUSH2 0x4454 JUMPI DUP1 PUSH1 0x1F LT PUSH2 0x4429 JUMPI PUSH2 0x100 DUP1 DUP4 SLOAD DIV MUL DUP4 MSTORE SWAP2 PUSH1 0x20 ADD SWAP2 PUSH2 0x4454 JUMP JUMPDEST DUP3 ADD SWAP2 SWAP1 PUSH1 0x0 MSTORE PUSH1 0x20 PUSH1 0x0 KECCAK256 SWAP1 JUMPDEST DUP2 SLOAD DUP2 MSTORE SWAP1 PUSH1 0x1 ADD SWAP1 PUSH1 0x20 ADD DUP1 DUP4 GT PUSH2 0x4437 JUMPI DUP3 SWAP1 SUB PUSH1 0x1F AND DUP3 ADD SWAP2 JUMPDEST POP POP POP POP POP DUP2 MSTORE PUSH1 0x20 ADD PUSH1 0x9 DUP3 ADD DUP1 SLOAD PUSH2 0x446D SWAP1 PUSH2 0x5BC5 JUMP JUMPDEST DUP1 PUSH1 0x1F ADD PUSH1 0x20 DUP1 SWAP2 DIV MUL PUSH1 0x20 ADD PUSH1 0x40 MLOAD SWAP1 DUP2 ADD PUSH1 0x40 MSTORE DUP1 SWAP3 SWAP2 SWAP1 DUP2 DUP2 MSTORE PUSH1 0x20 ADD DUP3 DUP1 SLOAD PUSH2 0x4499 SWAP1 PUSH2 0x5BC5 JUMP JUMPDEST DUP1 ISZERO PUSH2 0x44E6 JUMPI DUP1 PUSH1 0x1F LT PUSH2 0x44BB JUMPI PUSH2 0x100 DUP1 DUP4 SLOAD DIV MUL DUP4 MSTORE SWAP2 PUSH1 0x20 ADD SWAP2 PUSH2 0x44E6 JUMP JUMPDEST DUP3 ADD SWAP2 SWAP1 PUSH1 0x0 MSTORE PUSH1 0x20 PUSH1 0x0 KECCAK256 SWAP1 JUMPDEST DUP2 SLOAD DUP2 MSTORE SWAP1 PUSH1 0x1 ADD SWAP1 PUSH1 0x20 ADD DUP1 DUP4 GT PUSH2 0x44C9 JUMPI DUP3 SWAP1 SUB PUSH1 0x1F AND DUP3 ADD SWAP2 JUMPDEST POP POP POP POP POP DUP2 MSTORE PUSH1 0x20 ADD PUSH1 0xA DUP3 ADD DUP1 SLOAD PUSH2 0x44FF SWAP1 PUSH2 0x5BC5 JUMP JUMPDEST DUP1 PUSH1 0x1F ADD PUSH1 0x20 DUP1 SWAP2 DIV MUL PUSH1 0x20 ADD PUSH1 0x40 MLOAD SWAP1 DUP2 ADD PUSH1 0x40 MSTORE DUP1 SWAP3 SWAP2 SWAP1 DUP2 DUP2 MSTORE PUSH1 0x20 ADD DUP3 DUP1 SLOAD PUSH2 0x452B SWAP1 PUSH2 0x5BC5 JUMP JUMPDEST DUP1 ISZERO PUSH2 0x4578 JUMPI DUP1 PUSH1 0x1F LT PUSH2 0x454D JUMPI PUSH2 0x100 DUP1 DUP4 SLOAD DIV MUL DUP4 MSTORE SWAP2 PUSH1 0x20 ADD SWAP2 PUSH2 0x4578 JUMP JUMPDEST DUP3 ADD SWAP2 SWAP1 PUSH1 0x0 MSTORE PUSH1 0x20 PUSH1 0x0 KECCAK256 SWAP1 JUMPDEST DUP2 SLOAD DUP2 MSTORE SWAP1 PUSH1 0x1 ADD SWAP1 PUSH1 0x20 ADD DUP1 DUP4 GT PUSH2 0x455B JUMPI DUP3 SWAP1 SUB PUSH1 0x1F AND DUP3 ADD SWAP2 JUMPDEST POP POP POP POP POP DUP2 MSTORE PUSH1 0x20 ADD PUSH1 0xB DUP3 ADD DUP1 SLOAD PUSH2 0x4591 SWAP1 PUSH2 0x5BC5 JUMP JUMPDEST DUP1 PUSH1 0x1F ADD PUSH1 0x20 DUP1 SWAP2 DIV MUL PUSH1 0x20 ADD PUSH1 0x40 MLOAD SWAP1 DUP2 ADD PUSH1 0x40 MSTORE DUP1 SWAP3 SWAP2 SWAP1 DUP2 DUP2 MSTORE PUSH1 0x20 ADD DUP3 DUP1 SLOAD PUSH2 0x45BD SWAP1 PUSH2 0x5BC5 JUMP JUMPDEST DUP1 ISZERO PUSH2 0x460A JUMPI DUP1 PUSH1 0x1F LT PUSH2 0x45DF JUMPI PUSH2 0x100 DUP1 DUP4 SLOAD DIV MUL DUP4 MSTORE SWAP2 PUSH1 0x20 ADD SWAP2 PUSH2 0x460A JUMP JUMPDEST DUP3 ADD SWAP2 SWAP1 PUSH1 0x0 MSTORE PUSH1 0x20 PUSH1 0x0 KECCAK256 SWAP1 JUMPDEST DUP2 SLOAD DUP2 MSTORE SWAP1 PUSH1 0x1 ADD SWAP1 PUSH1 0x20 ADD DUP1 DUP4 GT PUSH2 0x45ED JUMPI DUP3 SWAP1 SUB PUSH1 0x1F AND DUP3 ADD SWAP2 JUMPDEST POP POP POP POP POP DUP2 MSTORE PUSH1 0x20 ADD PUSH1 0xC DUP3 ADD DUP1 SLOAD PUSH2 0x4623 SWAP1 PUSH2 0x5BC5 JUMP JUMPDEST DUP1 PUSH1 0x1F ADD PUSH1 0x20 DUP1 SWAP2 DIV MUL PUSH1 0x20 ADD PUSH1 0x40 MLOAD SWAP1 DUP2 ADD PUSH1 0x40 MSTORE DUP1 SWAP3 SWAP2 SWAP1 DUP2 DUP2 MSTORE PUSH1 0x20 ADD DUP3 DUP1 SLOAD PUSH2 0x464F SWAP1 PUSH2 0x5BC5 JUMP JUMPDEST DUP1 ISZERO PUSH2 0x469C JUMPI DUP1 PUSH1 0x1F LT PUSH2 0x4671 JUMPI PUSH2 0x100 DUP1 DUP4 SLOAD DIV MUL DUP4 MSTORE SWAP2 PUSH1 0x20 ADD SWAP2 PUSH2 0x469C JUMP JUMPDEST DUP3 ADD SWAP2 SWAP1 PUSH1 0x0 MSTORE PUSH1 0x20 PUSH1 0x0 KECCAK256 SWAP1 JUMPDEST DUP2 SLOAD DUP2 MSTORE SWAP1 PUSH1 0x1 ADD SWAP1 PUSH1 0x20 ADD DUP1 DUP4 GT PUSH2 0x467F JUMPI DUP3 SWAP1 SUB PUSH1 0x1F AND DUP3 ADD SWAP2 JUMPDEST POP POP POP POP POP DUP2 MSTORE PUSH1 0x20 ADD PUSH1 0xD DUP3 ADD DUP1 SLOAD PUSH2 0x46B5 SWAP1 PUSH2 0x5BC5 JUMP JUMPDEST DUP1 PUSH1 0x1F ADD PUSH1 0x20 DUP1 SWAP2 DIV MUL PUSH1 0x20 ADD PUSH1 0x40 MLOAD SWAP1 DUP2 ADD PUSH1 0x40 MSTORE DUP1 SWAP3 SWAP2 SWAP1 DUP2 DUP2 MSTORE PUSH1 0x20 ADD DUP3 DUP1 SLOAD PUSH2 0x46E1 SWAP1 PUSH2 0x5BC5 JUMP JUMPDEST DUP1 ISZERO PUSH2 0x472E JUMPI DUP1 PUSH1 0x1F LT PUSH2 0x4703 JUMPI PUSH2 0x100 DUP1 DUP4 SLOAD DIV MUL DUP4 MSTORE SWAP2 PUSH1 0x20 ADD SWAP2 PUSH2 0x472E JUMP JUMPDEST DUP3 ADD SWAP2 SWAP1 PUSH1 0x0 MSTORE PUSH1 0x20 PUSH1 0x0 KECCAK256 SWAP1 JUMPDEST DUP2 SLOAD DUP2 MSTORE SWAP1 PUSH1 0x1 ADD SWAP1 PUSH1 0x20 ADD DUP1 DUP4 GT PUSH2 0x4711 JUMPI DUP3 SWAP1 SUB PUSH1 0x1F AND DUP3 ADD SWAP2 JUMPDEST POP POP POP POP POP DUP2 MSTORE POP POP DUP2 MSTORE PUSH1 0x20 ADD PUSH1 0x10 DUP3 ADD SLOAD DUP2 MSTORE PUSH1 0x20 ADD PUSH1 0x11 DUP3 ADD SLOAD DUP2 MSTORE PUSH1 0x20 ADD PUSH1 0x12 DUP3 ADD SLOAD DUP2 MSTORE PUSH1 0x20 ADD PUSH1 0x13 DUP3 ADD SLOAD DUP2 MSTORE PUSH1 0x20 ADD PUSH1 0x14 DUP3 ADD SLOAD DUP2 MSTORE PUSH1 0x20 ADD PUSH1 0x15 DUP3 ADD DUP1 SLOAD PUSH2 0x477D SWAP1 PUSH2 0x5BC5 JUMP JUMPDEST DUP1 PUSH1 0x1F ADD PUSH1 0x20 DUP1 SWAP2 DIV MUL PUSH1 0x20 ADD PUSH1 0x40 MLOAD SWAP1 DUP2 ADD PUSH1 0x40 MSTORE DUP1 SWAP3 SWAP2 SWAP1 DUP2 DUP2 MSTORE PUSH1 0x20 ADD DUP3 DUP1 SLOAD PUSH2 0x47A9 SWAP1 PUSH2 0x5BC5 JUMP JUMPDEST DUP1 ISZERO PUSH2 0x47F6 JUMPI DUP1 PUSH1 0x1F LT PUSH2 0x47CB JUMPI PUSH2 0x100 DUP1 DUP4 SLOAD DIV MUL DUP4 MSTORE SWAP2 PUSH1 0x20 ADD SWAP2 PUSH2 0x47F6 JUMP JUMPDEST DUP3 ADD SWAP2 SWAP1 PUSH1 0x0 MSTORE PUSH1 0x20 PUSH1 0x0 KECCAK256 SWAP1 JUMPDEST DUP2 SLOAD DUP2 MSTORE SWAP1 PUSH1 0x1 ADD SWAP1 PUSH1 0x20 ADD DUP1 DUP4 GT PUSH2 0x47D9 JUMPI DUP3 SWAP1 SUB PUSH1 0x1F AND DUP3 ADD SWAP2 JUMPDEST POP POP POP POP POP DUP2 MSTORE PUSH1 0x20 ADD PUSH1 0x16 DUP3 ADD DUP1 SLOAD PUSH2 0x480F SWAP1 PUSH2 0x5BC5 JUMP JUMPDEST DUP1 PUSH1 0x1F ADD PUSH1 0x20 DUP1 SWAP2 DIV MUL PUSH1 0x20 ADD PUSH1 0x40 MLOAD SWAP1 DUP2 ADD PUSH1 0x40 MSTORE DUP1 SWAP3 SWAP2 SWAP1 DUP2 DUP2 MSTORE PUSH1 0x20 ADD DUP3 DUP1 SLOAD PUSH2 0x483B SWAP1 PUSH2 0x5BC5 JUMP JUMPDEST DUP1 ISZERO PUSH2 0x4888 JUMPI DUP1 PUSH1 0x1F LT PUSH2 0x485D JUMPI PUSH2 0x100 DUP1 DUP4 SLOAD DIV MUL DUP4 MSTORE SWAP2 PUSH1 0x20 ADD SWAP2 PUSH2 0x4888 JUMP JUMPDEST DUP3 ADD SWAP2 SWAP1 PUSH1 0x0 MSTORE PUSH1 0x20 PUSH1 0x0 KECCAK256 SWAP1 JUMPDEST DUP2 SLOAD DUP2 MSTORE SWAP1 PUSH1 0x1 ADD SWAP1 PUSH1 0x20 ADD DUP1 DUP4 GT PUSH2 0x486B JUMPI DUP3 SWAP1 SUB PUSH1 0x1F AND DUP3 ADD SWAP2 JUMPDEST POP POP POP POP POP DUP2 MSTORE PUSH1 0x20 ADD PUSH1 0x17 DUP3 ADD DUP1 SLOAD PUSH2 0x48A1 SWAP1 PUSH2 0x5BC5 JUMP JUMPDEST DUP1 PUSH1 0x1F ADD PUSH1 0x20 DUP1 SWAP2 DIV MUL PUSH1 0x20 ADD PUSH1 0x40 MLOAD SWAP1 DUP2 ADD PUSH1 0x40 MSTORE DUP1 SWAP3 SWAP2 SWAP1 DUP2 DUP2 MSTORE PUSH1 0x20 ADD DUP3 DUP1 SLOAD PUSH2 0x48CD SWAP1 PUSH2 0x5BC5 JUMP JUMPDEST DUP1 ISZERO PUSH2 0x491A JUMPI DUP1 PUSH1 0x1F LT PUSH2 0x48EF JUMPI PUSH2 0x100 DUP1 DUP4 SLOAD DIV MUL DUP4 MSTORE SWAP2 PUSH1 0x20 ADD SWAP2 PUSH2 0x491A JUMP JUMPDEST DUP3 ADD SWAP2 SWAP1 PUSH1 0x0 MSTORE PUSH1 0x20 PUSH1 0x0 KECCAK256 SWAP1 JUMPDEST DUP2 SLOAD DUP2 MSTORE SWAP1 PUSH1 0x1 ADD SWAP1 PUSH1 0x20 ADD DUP1 DUP4 GT PUSH2 0x48FD JUMPI DUP3 SWAP1 SUB PUSH1 0x1F AND DUP3 ADD SWAP2 JUMPDEST POP POP POP POP POP DUP2 MSTORE PUSH1 0x20 ADD PUSH1 0x18 DUP3 ADD DUP1 SLOAD PUSH2 0x4933 SWAP1 PUSH2 0x5BC5 JUMP JUMPDEST DUP1 PUSH1 0x1F ADD PUSH1 0x20 DUP1 SWAP2 DIV MUL PUSH1 0x20 ADD PUSH1 0x40 MLOAD SWAP1 DUP2 ADD PUSH1 0x40 MSTORE DUP1 SWAP3 SWAP2 SWAP1 DUP2 DUP2 MSTORE PUSH1 0x20 ADD DUP3 DUP1 SLOAD PUSH2 0x495F SWAP1 PUSH2 0x5BC5 JUMP JUMPDEST DUP1 ISZERO PUSH2 0x49AC JUMPI DUP1 PUSH1 0x1F LT PUSH2 0x4981 JUMPI PUSH2 0x100 DUP1 DUP4 SLOAD DIV MUL DUP4 MSTORE SWAP2 PUSH1 0x20 ADD SWAP2 PUSH2 0x49AC JUMP JUMPDEST DUP3 ADD SWAP2 SWAP1 PUSH1 0x0 MSTORE PUSH1 0x20 PUSH1 0x0 KECCAK256 SWAP1 JUMPDEST DUP2 SLOAD DUP2 MSTORE SWAP1 PUSH1 0x1 ADD SWAP1 PUSH1 0x20 ADD DUP1 DUP4 GT PUSH2 0x498F JUMPI DUP3 SWAP1 SUB PUSH1 0x1F AND DUP3 ADD SWAP2 JUMPDEST POP POP POP POP POP DUP2 MSTORE PUSH1 0x20 ADD PUSH1 0x19 DUP3 ADD DUP1 SLOAD PUSH2 0x49C5 SWAP1 PUSH2 0x5BC5 JUMP JUMPDEST DUP1 PUSH1 0x1F ADD PUSH1 0x20 DUP1 SWAP2 DIV MUL PUSH1 0x20 ADD PUSH1 0x40 MLOAD SWAP1 DUP2 ADD PUSH1 0x40 MSTORE DUP1 SWAP3 SWAP2 SWAP1 DUP2 DUP2 MSTORE PUSH1 0x20 ADD DUP3 DUP1 SLOAD PUSH2 0x49F1 SWAP1 PUSH2 0x5BC5 JUMP JUMPDEST DUP1 ISZERO PUSH2 0x4A3E JUMPI DUP1 PUSH1 0x1F LT PUSH2 0x4A13 JUMPI PUSH2 0x100 DUP1 DUP4 SLOAD DIV MUL DUP4 MSTORE SWAP2 PUSH1 0x20 ADD SWAP2 PUSH2 0x4A3E JUMP JUMPDEST DUP3 ADD SWAP2 SWAP1 PUSH1 0x0 MSTORE PUSH1 0x20 PUSH1 0x0 KECCAK256 SWAP1 JUMPDEST DUP2 SLOAD DUP2 MSTORE SWAP1 PUSH1 0x1 ADD SWAP1 PUSH1 0x20 ADD DUP1 DUP4 GT PUSH2 0x4A21 JUMPI DUP3 SWAP1 SUB PUSH1 0x1F AND DUP3 ADD SWAP2 JUMPDEST POP POP POP SWAP2 DUP4 MSTORE POP POP PUSH1 0x40 DUP1 MLOAD PUSH2 0x100 DUP1 DUP3 ADD DUP4 MSTORE PUSH1 0x1A DUP6 ADD SLOAD PUSH1 0xFF DUP1 DUP3 AND ISZERO ISZERO DUP5 MSTORE SWAP1 DUP3 SWAP1 DIV DUP2 AND ISZERO ISZERO PUSH1 0x20 DUP5 DUP2 ADD SWAP2 SWAP1 SWAP2 MSTORE PUSH1 0x1B DUP8 ADD SLOAD SWAP5 DUP5 ADD SWAP5 SWAP1 SWAP5 MSTORE PUSH1 0x1C DUP7 ADD SLOAD PUSH1 0x60 DUP5 ADD MSTORE PUSH1 0x1D DUP7 ADD SLOAD DUP1 DUP3 AND ISZERO ISZERO PUSH1 0x80 DUP6 ADD MSTORE SWAP2 SWAP1 SWAP2 DIV DUP2 AND ISZERO ISZERO PUSH1 0xA0 DUP4 ADD MSTORE PUSH1 0x1E DUP6 ADD SLOAD PUSH1 0xC0 DUP4 ADD MSTORE PUSH1 0x1F SWAP1 SWAP5 ADD SLOAD SWAP1 SWAP4 AND ISZERO ISZERO PUSH1 0xE0 DUP5 ADD MSTORE ADD MSTORE SWAP3 SWAP2 POP POP JUMP JUMPDEST SWAP2 SWAP1 POP JUMP JUMPDEST PUSH1 0x0 DUP1 DUP3 SLT ISZERO PUSH2 0x4B1C JUMPI PUSH1 0x40 MLOAD PUSH3 0x461BCD PUSH1 0xE5 SHL DUP2 MSTORE PUSH1 0x20 PUSH1 0x4 DUP3 ADD DUP2 SWAP1 MSTORE PUSH1 0x24 DUP3 ADD MSTORE PUSH32 0x53616665436173743A2076616C7565206D75737420626520706F736974697665 PUSH1 0x44 DUP3 ADD MSTORE PUSH1 0x64 ADD PUSH2 0x4D1 JUMP JUMPDEST POP SWAP1 JUMP JUMPDEST PUSH1 0x0 PUSH2 0x4B2C DUP3 DUP5 PUSH2 0x5B8E JUMP JUMPDEST SWAP4 SWAP3 POP POP POP JUMP JUMPDEST PUSH1 0x0 PUSH2 0x4B2C DUP3 DUP5 PUSH2 0x5BAE JUMP JUMPDEST DUP3 DUP1 SLOAD PUSH2 0x4B4B SWAP1 PUSH2 0x5BC5 JUMP JUMPDEST SWAP1 PUSH1 0x0 MSTORE PUSH1 0x20 PUSH1 0x0 KECCAK256 SWAP1 PUSH1 0x1F ADD PUSH1 0x20 SWAP1 DIV DUP2 ADD SWAP3 DUP3 PUSH2 0x4B6D JUMPI PUSH1 0x0 DUP6 SSTORE PUSH2 0x4BBA JUMP JUMPDEST DUP3 PUSH1 0x1F LT PUSH2 0x4B7E JUMPI DUP1 SLOAD DUP6 SSTORE PUSH2 0x4BBA JUMP JUMPDEST DUP3 DUP1 ADD PUSH1 0x1 ADD DUP6 SSTORE DUP3 ISZERO PUSH2 0x4BBA JUMPI PUSH1 0x0 MSTORE PUSH1 0x20 PUSH1 0x0 KECCAK256 SWAP2 PUSH1 0x1F ADD PUSH1 0x20 SWAP1 DIV DUP3 ADD JUMPDEST DUP3 DUP2 GT ISZERO PUSH2 0x4BBA JUMPI DUP3 SLOAD DUP3 SSTORE SWAP2 PUSH1 0x1 ADD SWAP2 SWAP1 PUSH1 0x1 ADD SWAP1 PUSH2 0x4B9F JUMP JUMPDEST POP PUSH2 0x4B1C SWAP3 SWAP2 POP PUSH2 0x4D76 JUMP JUMPDEST PUSH1 0x40 DUP1 MLOAD PUSH2 0x1C0 DUP2 ADD DUP3 MSTORE PUSH1 0x0 DUP1 DUP3 MSTORE PUSH1 0x20 DUP3 ADD MSTORE SWAP1 DUP2 ADD PUSH2 0x4BE6 PUSH2 0x4C88 JUMP JUMPDEST DUP2 MSTORE PUSH1 0x20 ADD PUSH1 0x0 DUP2 MSTORE PUSH1 0x20 ADD PUSH1 0x0 DUP2 MSTORE PUSH1 0x20 ADD PUSH1 0x0 DUP2 MSTORE PUSH1 0x20 ADD PUSH1 0x0 DUP2 MSTORE PUSH1 0x20 ADD PUSH1 0x0 DUP2 MSTORE PUSH1 0x20 ADD PUSH1 0x60 DUP2 MSTORE PUSH1 0x20 ADD PUSH1 0x60 DUP2 MSTORE PUSH1 0x20 ADD PUSH1 0x60 DUP2 MSTORE PUSH1 0x20 ADD PUSH1 0x60 DUP2 MSTORE PUSH1 0x20 ADD PUSH1 0x60 DUP2 MSTORE PUSH1 0x20 ADD PUSH2 0x4C83 PUSH1 0x40 MLOAD DUP1 PUSH2 0x100 ADD PUSH1 0x40 MSTORE DUP1 PUSH1 0x0 ISZERO ISZERO DUP2 MSTORE PUSH1 0x20 ADD PUSH1 0x0 ISZERO ISZERO DUP2 MSTORE PUSH1 0x20 ADD PUSH1 0x0 DUP2 MSTORE PUSH1 0x20 ADD PUSH1 0x0 DUP2 MSTORE PUSH1 0x20 ADD PUSH1 0x0 ISZERO ISZERO DUP2 MSTORE PUSH1 0x20 ADD PUSH1 0x0 ISZERO ISZERO DUP2 MSTORE PUSH1 0x20 ADD PUSH1 0x0 DUP2 MSTORE PUSH1 0x20 ADD PUSH1 0x0 ISZERO ISZERO DUP2 MSTORE POP SWAP1 JUMP JUMPDEST SWAP1 MSTORE SWAP1 JUMP JUMPDEST PUSH1 0x40 MLOAD DUP1 PUSH2 0x1C0 ADD PUSH1 0x40 MSTORE DUP1 PUSH1 0x0 DUP2 MSTORE PUSH1 0x20 ADD PUSH1 0x0 PUSH1 0x1 PUSH1 0x1 PUSH1 0xA0 SHL SUB AND DUP2 MSTORE PUSH1 0x20 ADD PUSH1 0x60 DUP2 MSTORE PUSH1 0x20 ADD PUSH1 0x60 DUP2 MSTORE PUSH1 0x20 ADD PUSH1 0x60 DUP2 MSTORE PUSH1 0x20 ADD PUSH1 0x60 DUP2 MSTORE PUSH1 0x20 ADD PUSH1 0x60 DUP2 MSTORE PUSH1 0x20 ADD PUSH1 0x0 ISZERO ISZERO DUP2 MSTORE PUSH1 0x20 ADD PUSH1 0x60 DUP2 MSTORE PUSH1 0x20 ADD PUSH1 0x60 DUP2 MSTORE PUSH1 0x20 ADD PUSH1 0x60 DUP2 MSTORE PUSH1 0x20 ADD PUSH1 0x60 DUP2 MSTORE PUSH1 0x20 ADD PUSH1 0x60 DUP2 MSTORE PUSH1 0x20 ADD PUSH1 0x60 DUP2 MSTORE POP SWAP1 JUMP JUMPDEST DUP3 DUP1 SLOAD PUSH2 0x4D0E SWAP1 PUSH2 0x5BC5 JUMP JUMPDEST SWAP1 PUSH1 0x0 MSTORE PUSH1 0x20 PUSH1 0x0 KECCAK256 SWAP1 PUSH1 0x1F ADD PUSH1 0x20 SWAP1 DIV DUP2 ADD SWAP3 DUP3 PUSH2 0x4D30 JUMPI PUSH1 0x0 DUP6 SSTORE PUSH2 0x4BBA JUMP JUMPDEST DUP3 PUSH1 0x1F LT PUSH2 0x4D49 JUMPI DUP1 MLOAD PUSH1 0xFF NOT AND DUP4 DUP1 ADD OR DUP6 SSTORE PUSH2 0x4BBA JUMP JUMPDEST DUP3 DUP1 ADD PUSH1 0x1 ADD DUP6 SSTORE DUP3 ISZERO PUSH2 0x4BBA JUMPI SWAP2 DUP3 ADD JUMPDEST DUP3 DUP2 GT ISZERO PUSH2 0x4BBA JUMPI DUP3 MLOAD DUP3 SSTORE SWAP2 PUSH1 0x20 ADD SWAP2 SWAP1 PUSH1 0x1 ADD SWAP1 PUSH2 0x4D5B JUMP JUMPDEST JUMPDEST DUP1 DUP3 GT ISZERO PUSH2 0x4B1C JUMPI PUSH1 0x0 DUP2 SSTORE PUSH1 0x1 ADD PUSH2 0x4D77 JUMP JUMPDEST DUP1 CALLDATALOAD PUSH2 0x4AC5 DUP2 PUSH2 0x5C47 JUMP JUMPDEST DUP1 CALLDATALOAD DUP1 ISZERO ISZERO DUP2 EQ PUSH2 0x4AC5 JUMPI PUSH1 0x0 DUP1 REVERT JUMPDEST PUSH1 0x0 DUP3 PUSH1 0x1F DUP4 ADD SLT PUSH2 0x4DB6 JUMPI DUP1 DUP2 REVERT JUMPDEST DUP2 CALLDATALOAD PUSH1 0x1 PUSH1 0x1 PUSH1 0x40 SHL SUB DUP1 DUP3 GT ISZERO PUSH2 0x4DD0 JUMPI PUSH2 0x4DD0 PUSH2 0x5C31 JUMP JUMPDEST PUSH1 0x40 MLOAD PUSH1 0x1F DUP4 ADD PUSH1 0x1F NOT SWAP1 DUP2 AND PUSH1 0x3F ADD AND DUP2 ADD SWAP1 DUP3 DUP3 GT DUP2 DUP4 LT OR ISZERO PUSH2 0x4DF8 JUMPI PUSH2 0x4DF8 PUSH2 0x5C31 JUMP JUMPDEST DUP2 PUSH1 0x40 MSTORE DUP4 DUP2 MSTORE DUP7 PUSH1 0x20 DUP6 DUP9 ADD ADD GT ISZERO PUSH2 0x4E10 JUMPI DUP5 DUP6 REVERT JUMPDEST DUP4 PUSH1 0x20 DUP8 ADD PUSH1 0x20 DUP4 ADD CALLDATACOPY SWAP3 DUP4 ADD PUSH1 0x20 ADD SWAP4 SWAP1 SWAP4 MSTORE POP SWAP4 SWAP3 POP POP POP JUMP JUMPDEST PUSH1 0x0 PUSH2 0x100 DUP1 DUP4 DUP6 SUB SLT ISZERO PUSH2 0x4E3F JUMPI DUP2 DUP3 REVERT JUMPDEST PUSH1 0x40 MLOAD SWAP1 DUP2 ADD SWAP1 PUSH1 0x1 PUSH1 0x1 PUSH1 0x40 SHL SUB DUP3 GT DUP2 DUP4 LT OR ISZERO PUSH2 0x4E61 JUMPI PUSH2 0x4E61 PUSH2 0x5C31 JUMP JUMPDEST DUP2 PUSH1 0x40 MSTORE DUP1 SWAP3 POP PUSH2 0x4E71 DUP5 PUSH2 0x4D96 JUMP JUMPDEST DUP2 MSTORE PUSH2 0x4E7F PUSH1 0x20 DUP6 ADD PUSH2 0x4D96 JUMP JUMPDEST PUSH1 0x20 DUP3 ADD MSTORE PUSH1 0x40 DUP5 ADD CALLDATALOAD PUSH1 0x40 DUP3 ADD MSTORE PUSH1 0x60 DUP5 ADD CALLDATALOAD PUSH1 0x60 DUP3 ADD MSTORE PUSH2 0x4EA4 PUSH1 0x80 DUP6 ADD PUSH2 0x4D96 JUMP JUMPDEST PUSH1 0x80 DUP3 ADD MSTORE PUSH2 0x4EB5 PUSH1 0xA0 DUP6 ADD PUSH2 0x4D96 JUMP JUMPDEST PUSH1 0xA0 DUP3 ADD MSTORE PUSH1 0xC0 DUP5 ADD CALLDATALOAD PUSH1 0xC0 DUP3 ADD MSTORE PUSH2 0x4ED0 PUSH1 0xE0 DUP6 ADD PUSH2 0x4D96 JUMP JUMPDEST PUSH1 0xE0 DUP3 ADD MSTORE POP POP SWAP3 SWAP2 POP POP JUMP JUMPDEST PUSH1 0x0 PUSH2 0x1C0 DUP3 DUP5 SUB SLT ISZERO PUSH2 0x4EEF JUMPI DUP1 DUP2 REVERT JUMPDEST PUSH2 0x4EF7 PUSH2 0x5B4D JUMP JUMPDEST SWAP1 POP DUP2 CALLDATALOAD DUP2 MSTORE PUSH2 0x4F09 PUSH1 0x20 DUP4 ADD PUSH2 0x4D8B JUMP JUMPDEST PUSH1 0x20 DUP3 ADD MSTORE PUSH1 0x40 DUP3 ADD CALLDATALOAD PUSH1 0x1 PUSH1 0x1 PUSH1 0x40 SHL SUB DUP1 DUP3 GT ISZERO PUSH2 0x4F28 JUMPI PUSH1 0x0 DUP1 REVERT JUMPDEST PUSH2 0x4F34 DUP6 DUP4 DUP7 ADD PUSH2 0x4DA6 JUMP JUMPDEST PUSH1 0x40 DUP5 ADD MSTORE PUSH1 0x60 DUP5 ADD CALLDATALOAD SWAP2 POP DUP1 DUP3 GT ISZERO PUSH2 0x4F4D JUMPI PUSH1 0x0 DUP1 REVERT JUMPDEST PUSH2 0x4F59 DUP6 DUP4 DUP7 ADD PUSH2 0x4DA6 JUMP JUMPDEST PUSH1 0x60 DUP5 ADD MSTORE PUSH1 0x80 DUP5 ADD CALLDATALOAD SWAP2 POP DUP1 DUP3 GT ISZERO PUSH2 0x4F72 JUMPI PUSH1 0x0 DUP1 REVERT JUMPDEST PUSH2 0x4F7E DUP6 DUP4 DUP7 ADD PUSH2 0x4DA6 JUMP JUMPDEST PUSH1 0x80 DUP5 ADD MSTORE PUSH1 0xA0 DUP5 ADD CALLDATALOAD SWAP2 POP DUP1 DUP3 GT ISZERO PUSH2 0x4F97 JUMPI PUSH1 0x0 DUP1 REVERT JUMPDEST PUSH2 0x4FA3 DUP6 DUP4 DUP7 ADD PUSH2 0x4DA6 JUMP JUMPDEST PUSH1 0xA0 DUP5 ADD MSTORE PUSH1 0xC0 DUP5 ADD CALLDATALOAD SWAP2 POP DUP1 DUP3 GT ISZERO PUSH2 0x4FBC JUMPI PUSH1 0x0 DUP1 REVERT JUMPDEST PUSH2 0x4FC8 DUP6 DUP4 DUP7 ADD PUSH2 0x4DA6 JUMP JUMPDEST PUSH1 0xC0 DUP5 ADD MSTORE PUSH2 0x4FD9 PUSH1 0xE0 DUP6 ADD PUSH2 0x4D96 JUMP JUMPDEST PUSH1 0xE0 DUP5 ADD MSTORE PUSH2 0x100 SWAP2 POP DUP2 DUP5 ADD CALLDATALOAD DUP2 DUP2 GT ISZERO PUSH2 0x4FF4 JUMPI PUSH1 0x0 DUP1 REVERT JUMPDEST PUSH2 0x5000 DUP7 DUP3 DUP8 ADD PUSH2 0x4DA6 JUMP JUMPDEST DUP4 DUP6 ADD MSTORE POP PUSH2 0x120 SWAP2 POP DUP2 DUP5 ADD CALLDATALOAD DUP2 DUP2 GT ISZERO PUSH2 0x501B JUMPI PUSH1 0x0 DUP1 REVERT JUMPDEST PUSH2 0x5027 DUP7 DUP3 DUP8 ADD PUSH2 0x4DA6 JUMP JUMPDEST DUP4 DUP6 ADD MSTORE POP PUSH2 0x140 SWAP2 POP DUP2 DUP5 ADD CALLDATALOAD DUP2 DUP2 GT ISZERO PUSH2 0x5042 JUMPI PUSH1 0x0 DUP1 REVERT JUMPDEST PUSH2 0x504E DUP7 DUP3 DUP8 ADD PUSH2 0x4DA6 JUMP JUMPDEST DUP4 DUP6 ADD MSTORE POP PUSH2 0x160 SWAP2 POP DUP2 DUP5 ADD CALLDATALOAD DUP2 DUP2 GT ISZERO PUSH2 0x5069 JUMPI PUSH1 0x0 DUP1 REVERT JUMPDEST PUSH2 0x5075 DUP7 DUP3 DUP8 ADD PUSH2 0x4DA6 JUMP JUMPDEST DUP4 DUP6 ADD MSTORE POP PUSH2 0x180 SWAP2 POP DUP2 DUP5 ADD CALLDATALOAD DUP2 DUP2 GT ISZERO PUSH2 0x5090 JUMPI PUSH1 0x0 DUP1 REVERT JUMPDEST PUSH2 0x509C DUP7 DUP3 DUP8 ADD PUSH2 0x4DA6 JUMP JUMPDEST DUP4 DUP6 ADD MSTORE POP PUSH2 0x1A0 SWAP2 POP DUP2 DUP5 ADD CALLDATALOAD DUP2 DUP2 GT ISZERO PUSH2 0x50B7 JUMPI PUSH1 0x0 DUP1 REVERT JUMPDEST PUSH2 0x50C3 DUP7 DUP3 DUP8 ADD PUSH2 0x4DA6 JUMP JUMPDEST DUP4 DUP6 ADD MSTORE POP POP POP SWAP3 SWAP2 POP POP JUMP JUMPDEST DUP1 MLOAD PUSH1 0x1 PUSH1 0x1 PUSH1 0x50 SHL SUB DUP2 AND DUP2 EQ PUSH2 0x4AC5 JUMPI PUSH1 0x0 DUP1 REVERT JUMPDEST PUSH1 0x0 PUSH1 0x20 DUP3 DUP5 SUB SLT ISZERO PUSH2 0x50F8 JUMPI DUP1 DUP2 REVERT JUMPDEST DUP2 CALLDATALOAD PUSH2 0x4B2C DUP2 PUSH2 0x5C47 JUMP JUMPDEST PUSH1 0x0 DUP1 PUSH1 0x40 DUP4 DUP6 SUB SLT ISZERO PUSH2 0x5115 JUMPI DUP1 DUP2 REVERT JUMPDEST DUP3 CALLDATALOAD PUSH1 0x1 PUSH1 0x1 PUSH1 0x40 SHL SUB DUP1 DUP3 GT ISZERO PUSH2 0x512B JUMPI DUP3 DUP4 REVERT JUMPDEST SWAP1 DUP5 ADD SWAP1 PUSH2 0x2A0 DUP3 DUP8 SUB SLT ISZERO PUSH2 0x513F JUMPI DUP3 DUP4 REVERT JUMPDEST PUSH2 0x5147 PUSH2 0x5B4D JUMP JUMPDEST DUP3 CALLDATALOAD DUP2 MSTORE PUSH2 0x5157 PUSH1 0x20 DUP5 ADD PUSH2 0x4D8B JUMP JUMPDEST PUSH1 0x20 DUP3 ADD MSTORE PUSH1 0x40 DUP4 ADD CALLDATALOAD DUP3 DUP2 GT ISZERO PUSH2 0x516D JUMPI DUP5 DUP6 REVERT JUMPDEST PUSH2 0x5179 DUP9 DUP3 DUP7 ADD PUSH2 0x4EDD JUMP JUMPDEST PUSH1 0x40 DUP4 ADD MSTORE POP PUSH1 0x60 DUP4 ADD CALLDATALOAD PUSH1 0x60 DUP3 ADD MSTORE PUSH1 0x80 DUP4 ADD CALLDATALOAD PUSH1 0x80 DUP3 ADD MSTORE PUSH1 0xA0 DUP4 ADD CALLDATALOAD PUSH1 0xA0 DUP3 ADD MSTORE PUSH1 0xC0 DUP4 ADD CALLDATALOAD PUSH1 0xC0 DUP3 ADD MSTORE PUSH1 0xE0 DUP4 ADD CALLDATALOAD PUSH1 0xE0 DUP3 ADD MSTORE PUSH2 0x100 DUP1 DUP5 ADD CALLDATALOAD DUP4 DUP2 GT ISZERO PUSH2 0x51C4 JUMPI DUP6 DUP7 REVERT JUMPDEST PUSH2 0x51D0 DUP10 DUP3 DUP8 ADD PUSH2 0x4DA6 JUMP JUMPDEST DUP3 DUP5 ADD MSTORE POP POP PUSH2 0x120 DUP1 DUP5 ADD CALLDATALOAD DUP4 DUP2 GT ISZERO PUSH2 0x51E9 JUMPI DUP6 DUP7 REVERT JUMPDEST PUSH2 0x51F5 DUP10 DUP3 DUP8 ADD PUSH2 0x4DA6 JUMP JUMPDEST DUP3 DUP5 ADD MSTORE POP POP PUSH2 0x140 DUP1 DUP5 ADD CALLDATALOAD DUP4 DUP2 GT ISZERO PUSH2 0x520E JUMPI DUP6 DUP7 REVERT JUMPDEST PUSH2 0x521A DUP10 DUP3 DUP8 ADD PUSH2 0x4DA6 JUMP JUMPDEST DUP3 DUP5 ADD MSTORE POP POP PUSH2 0x160 DUP1 DUP5 ADD CALLDATALOAD DUP4 DUP2 GT ISZERO PUSH2 0x5233 JUMPI DUP6 DUP7 REVERT JUMPDEST PUSH2 0x523F DUP10 DUP3 DUP8 ADD PUSH2 0x4DA6 JUMP JUMPDEST DUP3 DUP5 ADD MSTORE POP POP PUSH2 0x180 DUP1 DUP5 ADD CALLDATALOAD DUP4 DUP2 GT ISZERO PUSH2 0x5258 JUMPI DUP6 DUP7 REVERT JUMPDEST PUSH2 0x5264 DUP10 DUP3 DUP8 ADD PUSH2 0x4DA6 JUMP JUMPDEST DUP3 DUP5 ADD MSTORE POP POP PUSH2 0x1A0 SWAP2 POP PUSH2 0x527B DUP8 DUP4 DUP6 ADD PUSH2 0x4E2C JUMP JUMPDEST SWAP2 DUP2 ADD SWAP2 SWAP1 SWAP2 MSTORE SWAP6 PUSH1 0x20 SWAP5 SWAP1 SWAP5 ADD CALLDATALOAD SWAP5 POP POP POP POP JUMP JUMPDEST PUSH1 0x0 PUSH1 0x20 DUP3 DUP5 SUB SLT ISZERO PUSH2 0x52A2 JUMPI DUP1 DUP2 REVERT JUMPDEST POP CALLDATALOAD SWAP2 SWAP1 POP JUMP JUMPDEST PUSH1 0x0 DUP1 PUSH1 0x40 DUP4 DUP6 SUB SLT ISZERO PUSH2 0x52BB JUMPI DUP2 DUP3 REVERT JUMPDEST POP POP DUP1 CALLDATALOAD SWAP3 PUSH1 0x20 SWAP1 SWAP2 ADD CALLDATALOAD SWAP2 POP JUMP JUMPDEST PUSH1 0x0 DUP1 PUSH1 0x0 PUSH1 0x60 DUP5 DUP7 SUB SLT ISZERO PUSH2 0x52DE JUMPI DUP1 DUP2 REVERT JUMPDEST POP POP DUP2 CALLDATALOAD SWAP4 PUSH1 0x20 DUP4 ADD CALLDATALOAD SWAP4 POP PUSH1 0x40 SWAP1 SWAP3 ADD CALLDATALOAD SWAP2 SWAP1 POP JUMP JUMPDEST PUSH1 0x0 DUP1 PUSH1 0x0 DUP1 PUSH1 0x0 PUSH1 0xA0 DUP7 DUP9 SUB SLT ISZERO PUSH2 0x530C JUMPI DUP1 DUP2 REVERT JUMPDEST PUSH2 0x5315 DUP7 PUSH2 0x50D0 JUMP JUMPDEST SWAP5 POP PUSH1 0x20 DUP7 ADD MLOAD SWAP4 POP PUSH1 0x40 DUP7 ADD MLOAD SWAP3 POP PUSH1 0x60 DUP7 ADD MLOAD SWAP2 POP PUSH2 0x5338 PUSH1 0x80 DUP8 ADD PUSH2 0x50D0 JUMP JUMPDEST SWAP1 POP SWAP3 SWAP6 POP SWAP3 SWAP6 SWAP1 SWAP4 POP JUMP JUMPDEST PUSH1 0x1 PUSH1 0x1 PUSH1 0xA0 SHL SUB AND SWAP1 MSTORE JUMP JUMPDEST PUSH1 0x0 DUP2 MLOAD DUP1 DUP5 MSTORE DUP2 JUMPDEST DUP2 DUP2 LT ISZERO PUSH2 0x5376 JUMPI PUSH1 0x20 DUP2 DUP6 ADD DUP2 ADD MLOAD DUP7 DUP4 ADD DUP3 ADD MSTORE ADD PUSH2 0x535A JUMP JUMPDEST DUP2 DUP2 GT ISZERO PUSH2 0x5387 JUMPI DUP3 PUSH1 0x20 DUP4 DUP8 ADD ADD MSTORE JUMPDEST POP PUSH1 0x1F ADD PUSH1 0x1F NOT AND SWAP3 SWAP1 SWAP3 ADD PUSH1 0x20 ADD SWAP3 SWAP2 POP POP JUMP JUMPDEST DUP1 SLOAD PUSH1 0x0 SWAP1 PUSH1 0x1 DUP2 DUP2 SHR SWAP1 DUP1 DUP4 AND DUP1 PUSH2 0x53B6 JUMPI PUSH1 0x7F DUP4 AND SWAP3 POP JUMPDEST PUSH1 0x20 DUP1 DUP5 LT DUP3 EQ ISZERO PUSH2 0x53D6 JUMPI PUSH4 0x4E487B71 PUSH1 0xE0 SHL DUP7 MSTORE PUSH1 0x22 PUSH1 0x4 MSTORE PUSH1 0x24 DUP7 REVERT JUMPDEST DUP4 DUP9 MSTORE PUSH1 0x20 DUP9 ADD DUP3 DUP1 ISZERO PUSH2 0x53F1 JUMPI PUSH1 0x1 DUP2 EQ PUSH2 0x5402 JUMPI PUSH2 0x542D JUMP JUMPDEST PUSH1 0xFF NOT DUP8 AND DUP3 MSTORE DUP3 DUP3 ADD SWAP8 POP PUSH2 0x542D JUMP JUMPDEST PUSH1 0x0 DUP10 DUP2 MSTORE PUSH1 0x20 SWAP1 KECCAK256 PUSH1 0x0 JUMPDEST DUP8 DUP2 LT ISZERO PUSH2 0x5427 JUMPI DUP2 SLOAD DUP5 DUP3 ADD MSTORE SWAP1 DUP7 ADD SWAP1 DUP5 ADD PUSH2 0x540E JUMP JUMPDEST DUP4 ADD SWAP9 POP POP JUMPDEST POP POP POP POP POP POP POP SWAP3 SWAP2 POP POP JUMP JUMPDEST PUSH1 0x0 PUSH2 0x2A0 DUP3 MLOAD DUP5 MSTORE PUSH1 0x20 DUP4 ADD MLOAD PUSH2 0x5455 PUSH1 0x20 DUP7 ADD DUP3 PUSH2 0x5344 JUMP JUMPDEST POP PUSH1 0x40 DUP4 ADD MLOAD DUP2 PUSH1 0x40 DUP7 ADD MSTORE PUSH2 0x546D DUP3 DUP7 ADD DUP3 PUSH2 0x55A3 JUMP JUMPDEST SWAP2 POP POP PUSH1 0x60 DUP4 ADD MLOAD PUSH1 0x60 DUP6 ADD MSTORE PUSH1 0x80 DUP4 ADD MLOAD PUSH1 0x80 DUP6 ADD MSTORE PUSH1 0xA0 DUP4 ADD MLOAD PUSH1 0xA0 DUP6 ADD MSTORE PUSH1 0xC0 DUP4 ADD MLOAD PUSH1 0xC0 DUP6 ADD MSTORE PUSH1 0xE0 DUP4 ADD MLOAD PUSH1 0xE0 DUP6 ADD MSTORE PUSH2 0x100 DUP1 DUP5 ADD MLOAD DUP6 DUP4 SUB DUP3 DUP8 ADD MSTORE PUSH2 0x54BA DUP4 DUP3 PUSH2 0x5351 JUMP JUMPDEST SWAP3 POP POP POP PUSH2 0x120 DUP1 DUP5 ADD MLOAD DUP6 DUP4 SUB DUP3 DUP8 ADD MSTORE PUSH2 0x54D6 DUP4 DUP3 PUSH2 0x5351 JUMP JUMPDEST SWAP3 POP POP POP PUSH2 0x140 DUP1 DUP5 ADD MLOAD DUP6 DUP4 SUB DUP3 DUP8 ADD MSTORE PUSH2 0x54F2 DUP4 DUP3 PUSH2 0x5351 JUMP JUMPDEST SWAP3 POP POP POP PUSH2 0x160 DUP1 DUP5 ADD MLOAD DUP6 DUP4 SUB DUP3 DUP8 ADD MSTORE PUSH2 0x550E DUP4 DUP3 PUSH2 0x5351 JUMP JUMPDEST SWAP3 POP POP POP PUSH2 0x180 DUP1 DUP5 ADD MLOAD DUP6 DUP4 SUB DUP3 DUP8 ADD MSTORE PUSH2 0x552A DUP4 DUP3 PUSH2 0x5351 JUMP JUMPDEST SWAP3 POP POP POP PUSH2 0x1A0 DUP1 DUP5 ADD MLOAD PUSH2 0x5541 DUP3 DUP8 ADD DUP3 PUSH2 0x554B JUMP JUMPDEST POP SWAP1 SWAP5 SWAP4 POP POP POP POP JUMP JUMPDEST DUP1 MLOAD ISZERO ISZERO DUP3 MSTORE PUSH1 0x20 DUP2 ADD MLOAD ISZERO ISZERO PUSH1 0x20 DUP4 ADD MSTORE PUSH1 0x40 DUP2 ADD MLOAD PUSH1 0x40 DUP4 ADD MSTORE PUSH1 0x60 DUP2 ADD MLOAD PUSH1 0x60 DUP4 ADD MSTORE PUSH1 0x80 DUP2 ADD MLOAD ISZERO ISZERO PUSH1 0x80 DUP4 ADD MSTORE PUSH1 0xA0 DUP2 ADD MLOAD ISZERO ISZERO PUSH1 0xA0 DUP4 ADD MSTORE PUSH1 0xC0 DUP2 ADD MLOAD PUSH1 0xC0 DUP4 ADD MSTORE PUSH1 0xE0 DUP2 ADD MLOAD ISZERO ISZERO PUSH1 0xE0 DUP4 ADD MSTORE POP POP JUMP JUMPDEST PUSH1 0x0 PUSH2 0x1C0 DUP3 MLOAD DUP5 MSTORE PUSH1 0x20 DUP4 ADD MLOAD PUSH2 0x55BE PUSH1 0x20 DUP7 ADD DUP3 PUSH2 0x5344 JUMP JUMPDEST POP PUSH1 0x40 DUP4 ADD MLOAD DUP2 PUSH1 0x40 DUP7 ADD MSTORE PUSH2 0x55D6 DUP3 DUP7 ADD DUP3 PUSH2 0x5351 JUMP JUMPDEST SWAP2 POP POP PUSH1 0x60 DUP4 ADD MLOAD DUP5 DUP3 SUB PUSH1 0x60 DUP7 ADD MSTORE PUSH2 0x55F0 DUP3 DUP3 PUSH2 0x5351 JUMP JUMPDEST SWAP2 POP POP PUSH1 0x80 DUP4 ADD MLOAD DUP5 DUP3 SUB PUSH1 0x80 DUP7 ADD MSTORE PUSH2 0x560A DUP3 DUP3 PUSH2 0x5351 JUMP JUMPDEST SWAP2 POP POP PUSH1 0xA0 DUP4 ADD MLOAD DUP5 DUP3 SUB PUSH1 0xA0 DUP7 ADD MSTORE PUSH2 0x5624 DUP3 DUP3 PUSH2 0x5351 JUMP JUMPDEST SWAP2 POP POP PUSH1 0xC0 DUP4 ADD MLOAD DUP5 DUP3 SUB PUSH1 0xC0 DUP7 ADD MSTORE PUSH2 0x563E DUP3 DUP3 PUSH2 0x5351 JUMP JUMPDEST SWAP2 POP POP PUSH1 0xE0 DUP4 ADD MLOAD PUSH2 0x5654 PUSH1 0xE0 DUP7 ADD DUP3 ISZERO ISZERO SWAP1 MSTORE JUMP JUMPDEST POP PUSH2 0x100 DUP1 DUP5 ADD MLOAD DUP6 DUP4 SUB DUP3 DUP8 ADD MSTORE PUSH2 0x566D DUP4 DUP3 PUSH2 0x5351 JUMP JUMPDEST SWAP3 POP POP POP PUSH2 0x120 DUP1 DUP5 ADD MLOAD DUP6 DUP4 SUB DUP3 DUP8 ADD MSTORE PUSH2 0x5689 DUP4 DUP3 PUSH2 0x5351 JUMP JUMPDEST SWAP3 POP POP POP PUSH2 0x140 DUP1 DUP5 ADD MLOAD DUP6 DUP4 SUB DUP3 DUP8 ADD MSTORE PUSH2 0x56A5 DUP4 DUP3 PUSH2 0x5351 JUMP JUMPDEST SWAP3 POP POP POP PUSH2 0x160 DUP1 DUP5 ADD MLOAD DUP6 DUP4 SUB DUP3 DUP8 ADD MSTORE PUSH2 0x56C1 DUP4 DUP3 PUSH2 0x5351 JUMP JUMPDEST SWAP3 POP POP POP PUSH2 0x180 DUP1 DUP5 ADD MLOAD DUP6 DUP4 SUB DUP3 DUP8 ADD MSTORE PUSH2 0x56DD DUP4 DUP3 PUSH2 0x5351 JUMP JUMPDEST SWAP3 POP POP POP PUSH2 0x1A0 DUP1 DUP5 ADD MLOAD DUP6 DUP4 SUB DUP3 DUP8 ADD MSTORE PUSH2 0x56F9 DUP4 DUP3 PUSH2 0x5351 JUMP JUMPDEST SWAP7 SWAP6 POP POP POP POP POP POP JUMP JUMPDEST PUSH1 0x0 PUSH1 0x20 DUP1 DUP4 ADD DUP2 DUP5 MSTORE DUP1 DUP6 MLOAD DUP1 DUP4 MSTORE PUSH1 0x40 DUP7 ADD SWAP2 POP PUSH1 0x40 DUP2 PUSH1 0x5 SHL DUP8 ADD ADD SWAP3 POP DUP4 DUP8 ADD DUP6 JUMPDEST DUP3 DUP2 LT ISZERO PUSH2 0x5757 JUMPI PUSH1 0x3F NOT DUP9 DUP7 SUB ADD DUP5 MSTORE PUSH2 0x5745 DUP6 DUP4 MLOAD PUSH2 0x543A JUMP JUMPDEST SWAP5 POP SWAP3 DUP6 ADD SWAP3 SWAP1 DUP6 ADD SWAP1 PUSH1 0x1 ADD PUSH2 0x5729 JUMP JUMPDEST POP SWAP3 SWAP8 SWAP7 POP POP POP POP POP POP POP JUMP JUMPDEST PUSH1 0x20 DUP1 DUP3 MSTORE DUP3 MLOAD DUP3 DUP3 ADD DUP2 SWAP1 MSTORE PUSH1 0x0 SWAP2 SWAP1 PUSH1 0x40 SWAP1 DUP2 DUP6 ADD SWAP1 DUP7 DUP5 ADD DUP6 JUMPDEST DUP3 DUP2 LT ISZERO PUSH2 0x57C4 JUMPI DUP2 MLOAD DUP1 MLOAD DUP6 MSTORE DUP7 DUP2 ADD MLOAD DUP8 DUP7 ADD MSTORE DUP6 DUP2 ADD MLOAD DUP7 DUP7 ADD MSTORE PUSH1 0x60 SWAP1 DUP2 ADD MLOAD PUSH1 0x1 PUSH1 0x1 PUSH1 0xA0 SHL SUB AND SWAP1 DUP6 ADD MSTORE PUSH1 0x80 SWAP1 SWAP4 ADD SWAP3 SWAP1 DUP6 ADD SWAP1 PUSH1 0x1 ADD PUSH2 0x5781 JUMP JUMPDEST POP SWAP2 SWAP8 SWAP7 POP POP POP POP POP POP POP JUMP JUMPDEST PUSH1 0x0 PUSH1 0x20 DUP1 DUP4 ADD DUP2 DUP5 MSTORE DUP1 DUP6 MLOAD DUP1 DUP4 MSTORE PUSH1 0x40 DUP7 ADD SWAP2 POP PUSH1 0x40 DUP2 PUSH1 0x5 SHL DUP8 ADD ADD SWAP3 POP DUP4 DUP8 ADD DUP6 JUMPDEST DUP3 DUP2 LT ISZERO PUSH2 0x5757 JUMPI PUSH1 0x3F NOT DUP9 DUP7 SUB ADD DUP5 MSTORE PUSH2 0x5813 DUP6 DUP4 MLOAD PUSH2 0x55A3 JUMP JUMPDEST SWAP5 POP SWAP3 DUP6 ADD SWAP3 SWAP1 DUP6 ADD SWAP1 PUSH1 0x1 ADD PUSH2 0x57F7 JUMP JUMPDEST DUP4 ISZERO ISZERO DUP2 MSTORE PUSH1 0x60 PUSH1 0x20 DUP3 ADD MSTORE PUSH1 0x0 PUSH2 0x5840 PUSH1 0x60 DUP4 ADD DUP6 PUSH2 0x5351 JUMP JUMPDEST SWAP1 POP DUP3 PUSH1 0x40 DUP4 ADD MSTORE SWAP5 SWAP4 POP POP POP POP JUMP JUMPDEST PUSH1 0x20 DUP1 DUP3 MSTORE PUSH1 0x15 SWAP1 DUP3 ADD MSTORE PUSH21 0x191BDB985D1A5BDB881A59081B9BDD081D985B1A59 PUSH1 0x5A SHL PUSH1 0x40 DUP3 ADD MSTORE PUSH1 0x60 ADD SWAP1 JUMP JUMPDEST PUSH1 0x20 DUP2 MSTORE PUSH1 0x0 PUSH2 0x4B2C PUSH1 0x20 DUP4 ADD DUP5 PUSH2 0x543A JUMP JUMPDEST PUSH1 0x20 DUP2 MSTORE DUP2 MLOAD ISZERO ISZERO PUSH1 0x20 DUP3 ADD MSTORE PUSH1 0x0 PUSH1 0x20 DUP4 ADD MLOAD PUSH1 0x60 PUSH1 0x40 DUP5 ADD MSTORE PUSH2 0x58BA PUSH1 0x80 DUP5 ADD DUP3 PUSH2 0x5351 JUMP JUMPDEST SWAP1 POP PUSH1 0x40 DUP5 ADD MLOAD PUSH1 0x60 DUP5 ADD MSTORE DUP1 SWAP2 POP POP SWAP3 SWAP2 POP POP JUMP JUMPDEST DUP15 DUP2 MSTORE PUSH2 0x58E0 PUSH1 0x20 DUP3 ADD DUP16 PUSH2 0x5344 JUMP JUMPDEST PUSH2 0x2A0 PUSH1 0x40 DUP3 ADD MSTORE PUSH1 0x0 PUSH2 0x58F8 PUSH2 0x2A0 DUP4 ADD DUP16 PUSH2 0x55A3 JUMP JUMPDEST DUP14 PUSH1 0x60 DUP5 ADD MSTORE DUP13 PUSH1 0x80 DUP5 ADD MSTORE DUP12 PUSH1 0xA0 DUP5 ADD MSTORE DUP11 PUSH1 0xC0 DUP5 ADD MSTORE DUP10 PUSH1 0xE0 DUP5 ADD MSTORE DUP3 DUP2 SUB PUSH2 0x100 DUP5 ADD MSTORE PUSH2 0x5929 DUP2 DUP11 PUSH2 0x5351 JUMP JUMPDEST SWAP1 POP DUP3 DUP2 SUB PUSH2 0x120 DUP5 ADD MSTORE PUSH2 0x593E DUP2 DUP10 PUSH2 0x5351 JUMP JUMPDEST SWAP1 POP DUP3 DUP2 SUB PUSH2 0x140 DUP5 ADD MSTORE PUSH2 0x5953 DUP2 DUP9 PUSH2 0x5351 JUMP JUMPDEST SWAP1 POP DUP3 DUP2 SUB PUSH2 0x160 DUP5 ADD MSTORE PUSH2 0x5968 DUP2 DUP8 PUSH2 0x5351 JUMP JUMPDEST SWAP1 POP DUP3 DUP2 SUB PUSH2 0x180 DUP5 ADD MSTORE PUSH2 0x597D DUP2 DUP7 PUSH2 0x5351 JUMP JUMPDEST SWAP2 POP POP PUSH2 0x598E PUSH2 0x1A0 DUP4 ADD DUP5 PUSH2 0x554B JUMP JUMPDEST SWAP16 SWAP15 POP POP POP POP POP POP POP POP POP POP POP POP POP POP POP JUMP JUMPDEST DUP15 DUP2 MSTORE PUSH2 0x59B1 PUSH1 0x20 DUP3 ADD DUP16 PUSH2 0x5344 JUMP JUMPDEST PUSH2 0x1C0 PUSH1 0x40 DUP3 ADD MSTORE PUSH1 0x0 PUSH2 0x59C9 PUSH2 0x1C0 DUP4 ADD DUP16 PUSH2 0x5351 JUMP JUMPDEST DUP3 DUP2 SUB PUSH1 0x60 DUP5 ADD MSTORE PUSH2 0x59DB DUP2 DUP16 PUSH2 0x5351 JUMP JUMPDEST SWAP1 POP DUP3 DUP2 SUB PUSH1 0x80 DUP5 ADD MSTORE PUSH2 0x59EF DUP2 DUP15 PUSH2 0x5351 JUMP JUMPDEST SWAP1 POP DUP3 DUP2 SUB PUSH1 0xA0 DUP5 ADD MSTORE PUSH2 0x5A03 DUP2 DUP14 PUSH2 0x5351 JUMP JUMPDEST SWAP1 POP DUP3 DUP2 SUB PUSH1 0xC0 DUP5 ADD MSTORE PUSH2 0x5A17 DUP2 DUP13 PUSH2 0x5351 JUMP JUMPDEST DUP11 ISZERO ISZERO PUSH1 0xE0 DUP6 ADD MSTORE SWAP1 POP DUP3 DUP2 SUB PUSH2 0x100 DUP5 ADD MSTORE PUSH2 0x5A34 DUP2 DUP11 PUSH2 0x5351 JUMP JUMPDEST SWAP1 POP DUP3 DUP2 SUB PUSH2 0x120 DUP5 ADD MSTORE PUSH2 0x5A49 DUP2 DUP10 PUSH2 0x5351 JUMP JUMPDEST SWAP1 POP DUP3 DUP2 SUB PUSH2 0x140 DUP5 ADD MSTORE PUSH2 0x5A5E DUP2 DUP9 PUSH2 0x5351 JUMP JUMPDEST SWAP1 POP DUP3 DUP2 SUB PUSH2 0x160 DUP5 ADD MSTORE PUSH2 0x5A73 DUP2 DUP8 PUSH2 0x5351 JUMP JUMPDEST SWAP1 POP DUP3 DUP2 SUB PUSH2 0x180 DUP5 ADD MSTORE PUSH2 0x5A88 DUP2 DUP7 PUSH2 0x5351 JUMP JUMPDEST SWAP1 POP DUP3 DUP2 SUB PUSH2 0x1A0 DUP5 ADD MSTORE PUSH2 0x5A9D DUP2 DUP6 PUSH2 0x5351 JUMP JUMPDEST SWAP2 POP POP SWAP16 SWAP15 POP POP POP POP POP POP POP POP POP POP POP POP POP POP POP JUMP JUMPDEST PUSH1 0x0 PUSH2 0x180 DUP15 DUP4 MSTORE PUSH1 0x1 DUP1 PUSH1 0xA0 SHL SUB DUP15 AND PUSH1 0x20 DUP5 ADD MSTORE DUP13 PUSH1 0x40 DUP5 ADD MSTORE DUP12 PUSH1 0x60 DUP5 ADD MSTORE DUP11 PUSH1 0x80 DUP5 ADD MSTORE DUP10 PUSH1 0xA0 DUP5 ADD MSTORE DUP9 PUSH1 0xC0 DUP5 ADD MSTORE DUP1 PUSH1 0xE0 DUP5 ADD MSTORE PUSH2 0x5AF9 DUP2 DUP5 ADD DUP10 PUSH2 0x539C JUMP JUMPDEST SWAP1 POP DUP3 DUP2 SUB PUSH2 0x100 DUP5 ADD MSTORE PUSH2 0x5B0E DUP2 DUP9 PUSH2 0x539C JUMP JUMPDEST SWAP1 POP DUP3 DUP2 SUB PUSH2 0x120 DUP5 ADD MSTORE PUSH2 0x5B23 DUP2 DUP8 PUSH2 0x539C JUMP JUMPDEST SWAP1 POP DUP3 DUP2 SUB PUSH2 0x140 DUP5 ADD MSTORE PUSH2 0x5B38 DUP2 DUP7 PUSH2 0x539C JUMP JUMPDEST SWAP1 POP DUP3 DUP2 SUB PUSH2 0x160 DUP5 ADD MSTORE PUSH2 0x598E DUP2 DUP6 PUSH2 0x539C JUMP JUMPDEST PUSH1 0x40 MLOAD PUSH2 0x1C0 DUP2 ADD PUSH1 0x1 PUSH1 0x1 PUSH1 0x40 SHL SUB DUP2 GT DUP3 DUP3 LT OR ISZERO PUSH2 0x5B70 JUMPI PUSH2 0x5B70 PUSH2 0x5C31 JUMP JUMPDEST PUSH1 0x40 MSTORE SWAP1 JUMP JUMPDEST PUSH1 0x0 DUP3 NOT DUP3 GT ISZERO PUSH2 0x5B89 JUMPI PUSH2 0x5B89 PUSH2 0x5C1B JUMP JUMPDEST POP ADD SWAP1 JUMP JUMPDEST PUSH1 0x0 DUP3 PUSH2 0x5BA9 JUMPI PUSH4 0x4E487B71 PUSH1 0xE0 SHL DUP2 MSTORE PUSH1 0x12 PUSH1 0x4 MSTORE PUSH1 0x24 DUP2 REVERT JUMPDEST POP DIV SWAP1 JUMP JUMPDEST PUSH1 0x0 DUP3 DUP3 LT ISZERO PUSH2 0x5BC0 JUMPI PUSH2 0x5BC0 PUSH2 0x5C1B JUMP JUMPDEST POP SUB SWAP1 JUMP JUMPDEST PUSH1 0x1 DUP2 DUP2 SHR SWAP1 DUP3 AND DUP1 PUSH2 0x5BD9 JUMPI PUSH1 0x7F DUP3 AND SWAP2 POP JUMPDEST PUSH1 0x20 DUP3 LT DUP2 EQ ISZERO PUSH2 0x5BFA JUMPI PUSH4 0x4E487B71 PUSH1 0xE0 SHL PUSH1 0x0 MSTORE PUSH1 0x22 PUSH1 0x4 MSTORE PUSH1 0x24 PUSH1 0x0 REVERT JUMPDEST POP SWAP2 SWAP1 POP JUMP JUMPDEST PUSH1 0x0 PUSH1 0x0 NOT DUP3 EQ ISZERO PUSH2 0x5C14 JUMPI PUSH2 0x5C14 PUSH2 0x5C1B JUMP JUMPDEST POP PUSH1 0x1 ADD SWAP1 JUMP JUMPDEST PUSH4 0x4E487B71 PUSH1 0xE0 SHL PUSH1 0x0 MSTORE PUSH1 0x11 PUSH1 0x4 MSTORE PUSH1 0x24 PUSH1 0x0 REVERT JUMPDEST PUSH4 0x4E487B71 PUSH1 0xE0 SHL PUSH1 0x0 MSTORE PUSH1 0x41 PUSH1 0x4 MSTORE PUSH1 0x24 PUSH1 0x0 REVERT JUMPDEST PUSH1 0x1 PUSH1 0x1 PUSH1 0xA0 SHL SUB DUP2 AND DUP2 EQ PUSH2 0x5C5C JUMPI PUSH1 0x0 DUP1 REVERT JUMPDEST POP JUMP INVALID LOG2 PUSH5 0x6970667358 0x22 SLT KECCAK256 0xFB 0xE1 0xB8 0xBB ISZERO CALLDATASIZE 0xEC REVERT GAS 0xE5 0x21 SWAP10 SIGNEXTEND SWAP8 0xC8 PUSH3 0x8E8ABC DUP14 MSTORE SWAP8 SIGNEXTEND PUSH24 0xB8458B7C58A4FA2964736F6C634300080400330000000000 "},"methodIdentifiers":{"addDonation(uint256)":"d8251a14","amountRaised()":"7b3e5e7b","approveDonation(uint256)":"c69f34a3","createDonation((uint256,address,(uint256,address,string,string,string,string,string,bool,string,string,string,string,string,string),uint256,uint256,uint256,uint256,uint256,string,string,string,string,string,(bool,bool,uint256,uint256,bool,bool,uint256,bool)),uint256)":"c6e251a9","disablePinnedDonation(uint256)":"cac83cb1","donationCount()":"2abfab4d","doners(uint256,uint256)":"568fefbf","donersCount()":"43ae959c","fetchAllDonationItems()":"3776eac6","fetchAllUsers()":"c3374315","getDonation(uint256)":"ef07a81f","getDonersOfDonation(uint256)":"5fc2a547","getEthUsd()":"bb27e0ce","idToDonationItem(uint256)":"3f27607d","isUserRegistered()":"873138f3","pinDonation(uint256,uint256,uint256)":"32536a53","registeredUsers(address)":"0e50cee5","rejectDonation(uint256)":"51c7bd4b","users(uint256)":"365b98b2","usersCount()":"6ba13a82"}}}}}