{
  "_format": "hh-sol-artifact-1",
  "contractName": "Donation",
  "sourceName": "contracts/Donation.sol",
  "abi": [
    {
      "inputs": [
        {
          "internalType": "address",
          "name": "companyaddress_",
          "type": "address"
        }
      ],
      "stateMutability": "nonpayable",
      "type": "constructor"
    },
    {
      "anonymous": false,
      "inputs": [
        {
          "indexed": false,
          "internalType": "uint256",
          "name": "_id",
          "type": "uint256"
        },
        {
          "indexed": false,
          "internalType": "address",
          "name": "_owner",
          "type": "address"
        },
        {
          "indexed": false,
          "internalType": "uint256",
          "name": "donersCount",
          "type": "uint256"
        },
        {
          "indexed": false,
          "internalType": "uint256",
          "name": "donationsRaised",
          "type": "uint256"
        },
        {
          "indexed": false,
          "internalType": "uint256",
          "name": "startDate",
          "type": "uint256"
        },
        {
          "indexed": false,
          "internalType": "uint256",
          "name": "endDate",
          "type": "uint256"
        },
        {
          "indexed": false,
          "internalType": "uint256",
          "name": "targetedAmount",
          "type": "uint256"
        },
        {
          "indexed": false,
          "internalType": "string",
          "name": "category",
          "type": "string"
        },
        {
          "indexed": false,
          "internalType": "string",
          "name": "title",
          "type": "string"
        },
        {
          "indexed": false,
          "internalType": "string",
          "name": "hash",
          "type": "string"
        },
        {
          "indexed": false,
          "internalType": "string",
          "name": "purpose",
          "type": "string"
        },
        {
          "indexed": false,
          "internalType": "string",
          "name": "description",
          "type": "string"
        }
      ],
      "name": "DonationAdded",
      "type": "event"
    },
    {
      "inputs": [
        {
          "internalType": "uint256",
          "name": "_id",
          "type": "uint256"
        }
      ],
      "name": "addDonation",
      "outputs": [],
      "stateMutability": "payable",
      "type": "function"
    },
    {
      "inputs": [],
      "name": "amountRaised",
      "outputs": [
        {
          "internalType": "uint256",
          "name": "",
          "type": "uint256"
        }
      ],
      "stateMutability": "view",
      "type": "function"
    },
    {
      "inputs": [
        {
          "internalType": "uint256",
          "name": "_id",
          "type": "uint256"
        }
      ],
      "name": "approveDonation",
      "outputs": [],
      "stateMutability": "nonpayable",
      "type": "function"
    },
    {
      "inputs": [
        {
          "components": [
            {
              "internalType": "uint256",
              "name": "id",
              "type": "uint256"
            },
            {
              "internalType": "address payable",
              "name": "owner",
              "type": "address"
            },
            {
              "components": [
                {
                  "internalType": "uint256",
                  "name": "id",
                  "type": "uint256"
                },
                {
                  "internalType": "address",
                  "name": "_address",
                  "type": "address"
                },
                {
                  "internalType": "string",
                  "name": "userType",
                  "type": "string"
                },
                {
                  "internalType": "string",
                  "name": "country",
                  "type": "string"
                },
                {
                  "internalType": "string",
                  "name": "city",
                  "type": "string"
                },
                {
                  "internalType": "string",
                  "name": "email",
                  "type": "string"
                },
                {
                  "internalType": "string",
                  "name": "residenceAddress",
                  "type": "string"
                },
                {
                  "internalType": "bool",
                  "name": "isRegistered",
                  "type": "bool"
                },
                {
                  "internalType": "string",
                  "name": "website",
                  "type": "string"
                },
                {
                  "internalType": "string",
                  "name": "facebookUrl",
                  "type": "string"
                },
                {
                  "internalType": "string",
                  "name": "twitterUrl",
                  "type": "string"
                },
                {
                  "internalType": "string",
                  "name": "instagramUrl",
                  "type": "string"
                },
                {
                  "internalType": "string",
                  "name": "youtubeUrl",
                  "type": "string"
                },
                {
                  "internalType": "string",
                  "name": "hash",
                  "type": "string"
                }
              ],
              "internalType": "struct Donation.User",
              "name": "user",
              "type": "tuple"
            },
            {
              "internalType": "uint256",
              "name": "donersCount",
              "type": "uint256"
            },
            {
              "internalType": "uint256",
              "name": "donationsRaised",
              "type": "uint256"
            },
            {
              "internalType": "uint256",
              "name": "startDate",
              "type": "uint256"
            },
            {
              "internalType": "uint256",
              "name": "endDate",
              "type": "uint256"
            },
            {
              "internalType": "uint256",
              "name": "targetedAmount",
              "type": "uint256"
            },
            {
              "internalType": "string",
              "name": "category",
              "type": "string"
            },
            {
              "internalType": "string",
              "name": "title",
              "type": "string"
            },
            {
              "internalType": "string",
              "name": "hash",
              "type": "string"
            },
            {
              "internalType": "string",
              "name": "purpose",
              "type": "string"
            },
            {
              "internalType": "string",
              "name": "description",
              "type": "string"
            },
            {
              "components": [
                {
                  "internalType": "bool",
                  "name": "completed",
                  "type": "bool"
                },
                {
                  "internalType": "bool",
                  "name": "isPinned",
                  "type": "bool"
                },
                {
                  "internalType": "uint256",
                  "name": "pinnedDuration",
                  "type": "uint256"
                },
                {
                  "internalType": "uint256",
                  "name": "pinnedEndDate",
                  "type": "uint256"
                },
                {
                  "internalType": "bool",
                  "name": "isVisible",
                  "type": "bool"
                },
                {
                  "internalType": "bool",
                  "name": "isApproved",
                  "type": "bool"
                },
                {
                  "internalType": "uint256",
                  "name": "approvedDate",
                  "type": "uint256"
                },
                {
                  "internalType": "bool",
                  "name": "isRejected",
                  "type": "bool"
                }
              ],
              "internalType": "struct Donation.DonationStatus",
              "name": "donationstatus",
              "type": "tuple"
            }
          ],
          "internalType": "struct Donation.DonationItem",
          "name": "donation_",
          "type": "tuple"
        },
        {
          "internalType": "uint256",
          "name": "id_",
          "type": "uint256"
        }
      ],
      "name": "createDonation",
      "outputs": [],
      "stateMutability": "payable",
      "type": "function"
    },
    {
      "inputs": [
        {
          "internalType": "uint256",
          "name": "_id",
          "type": "uint256"
        }
      ],
      "name": "disablePinnedDonation",
      "outputs": [],
      "stateMutability": "nonpayable",
      "type": "function"
    },
    {
      "inputs": [],
      "name": "donationCount",
      "outputs": [
        {
          "internalType": "uint256",
          "name": "",
          "type": "uint256"
        }
      ],
      "stateMutability": "view",
      "type": "function"
    },
    {
      "inputs": [
        {
          "internalType": "uint256",
          "name": "",
          "type": "uint256"
        },
        {
          "internalType": "uint256",
          "name": "",
          "type": "uint256"
        }
      ],
      "name": "doners",
      "outputs": [
        {
          "internalType": "uint256",
          "name": "id",
          "type": "uint256"
        },
        {
          "internalType": "uint256",
          "name": "amount",
          "type": "uint256"
        },
        {
          "internalType": "uint256",
          "name": "date",
          "type": "uint256"
        },
        {
          "internalType": "address",
          "name": "doner",
          "type": "address"
        }
      ],
      "stateMutability": "view",
      "type": "function"
    },
    {
      "inputs": [],
      "name": "donersCount",
      "outputs": [
        {
          "internalType": "uint256",
          "name": "",
          "type": "uint256"
        }
      ],
      "stateMutability": "view",
      "type": "function"
    },
    {
      "inputs": [],
      "name": "fetchAllDonationItems",
      "outputs": [
        {
          "components": [
            {
              "internalType": "uint256",
              "name": "id",
              "type": "uint256"
            },
            {
              "internalType": "address payable",
              "name": "owner",
              "type": "address"
            },
            {
              "components": [
                {
                  "internalType": "uint256",
                  "name": "id",
                  "type": "uint256"
                },
                {
                  "internalType": "address",
                  "name": "_address",
                  "type": "address"
                },
                {
                  "internalType": "string",
                  "name": "userType",
                  "type": "string"
                },
                {
                  "internalType": "string",
                  "name": "country",
                  "type": "string"
                },
                {
                  "internalType": "string",
                  "name": "city",
                  "type": "string"
                },
                {
                  "internalType": "string",
                  "name": "email",
                  "type": "string"
                },
                {
                  "internalType": "string",
                  "name": "residenceAddress",
                  "type": "string"
                },
                {
                  "internalType": "bool",
                  "name": "isRegistered",
                  "type": "bool"
                },
                {
                  "internalType": "string",
                  "name": "website",
                  "type": "string"
                },
                {
                  "internalType": "string",
                  "name": "facebookUrl",
                  "type": "string"
                },
                {
                  "internalType": "string",
                  "name": "twitterUrl",
                  "type": "string"
                },
                {
                  "internalType": "string",
                  "name": "instagramUrl",
                  "type": "string"
                },
                {
                  "internalType": "string",
                  "name": "youtubeUrl",
                  "type": "string"
                },
                {
                  "internalType": "string",
                  "name": "hash",
                  "type": "string"
                }
              ],
              "internalType": "struct Donation.User",
              "name": "user",
              "type": "tuple"
            },
            {
              "internalType": "uint256",
              "name": "donersCount",
              "type": "uint256"
            },
            {
              "internalType": "uint256",
              "name": "donationsRaised",
              "type": "uint256"
            },
            {
              "internalType": "uint256",
              "name": "startDate",
              "type": "uint256"
            },
            {
              "internalType": "uint256",
              "name": "endDate",
              "type": "uint256"
            },
            {
              "internalType": "uint256",
              "name": "targetedAmount",
              "type": "uint256"
            },
            {
              "internalType": "string",
              "name": "category",
              "type": "string"
            },
            {
              "internalType": "string",
              "name": "title",
              "type": "string"
            },
            {
              "internalType": "string",
              "name": "hash",
              "type": "string"
            },
            {
              "internalType": "string",
              "name": "purpose",
              "type": "string"
            },
            {
              "internalType": "string",
              "name": "description",
              "type": "string"
            },
            {
              "components": [
                {
                  "internalType": "bool",
                  "name": "completed",
                  "type": "bool"
                },
                {
                  "internalType": "bool",
                  "name": "isPinned",
                  "type": "bool"
                },
                {
                  "internalType": "uint256",
                  "name": "pinnedDuration",
                  "type": "uint256"
                },
                {
                  "internalType": "uint256",
                  "name": "pinnedEndDate",
                  "type": "uint256"
                },
                {
                  "internalType": "bool",
                  "name": "isVisible",
                  "type": "bool"
                },
                {
                  "internalType": "bool",
                  "name": "isApproved",
                  "type": "bool"
                },
                {
                  "internalType": "uint256",
                  "name": "approvedDate",
                  "type": "uint256"
                },
                {
                  "internalType": "bool",
                  "name": "isRejected",
                  "type": "bool"
                }
              ],
              "internalType": "struct Donation.DonationStatus",
              "name": "donationstatus",
              "type": "tuple"
            }
          ],
          "internalType": "struct Donation.DonationItem[]",
          "name": "",
          "type": "tuple[]"
        }
      ],
      "stateMutability": "view",
      "type": "function"
    },
    {
      "inputs": [],
      "name": "fetchAllUsers",
      "outputs": [
        {
          "components": [
            {
              "internalType": "uint256",
              "name": "id",
              "type": "uint256"
            },
            {
              "internalType": "address",
              "name": "_address",
              "type": "address"
            },
            {
              "internalType": "string",
              "name": "userType",
              "type": "string"
            },
            {
              "internalType": "string",
              "name": "country",
              "type": "string"
            },
            {
              "internalType": "string",
              "name": "city",
              "type": "string"
            },
            {
              "internalType": "string",
              "name": "email",
              "type": "string"
            },
            {
              "internalType": "string",
              "name": "residenceAddress",
              "type": "string"
            },
            {
              "internalType": "bool",
              "name": "isRegistered",
              "type": "bool"
            },
            {
              "internalType": "string",
              "name": "website",
              "type": "string"
            },
            {
              "internalType": "string",
              "name": "facebookUrl",
              "type": "string"
            },
            {
              "internalType": "string",
              "name": "twitterUrl",
              "type": "string"
            },
            {
              "internalType": "string",
              "name": "instagramUrl",
              "type": "string"
            },
            {
              "internalType": "string",
              "name": "youtubeUrl",
              "type": "string"
            },
            {
              "internalType": "string",
              "name": "hash",
              "type": "string"
            }
          ],
          "internalType": "struct Donation.User[]",
          "name": "",
          "type": "tuple[]"
        }
      ],
      "stateMutability": "view",
      "type": "function"
    },
    {
      "inputs": [
        {
          "internalType": "uint256",
          "name": "_id",
          "type": "uint256"
        }
      ],
      "name": "getDonation",
      "outputs": [
        {
          "components": [
            {
              "internalType": "uint256",
              "name": "id",
              "type": "uint256"
            },
            {
              "internalType": "address payable",
              "name": "owner",
              "type": "address"
            },
            {
              "components": [
                {
                  "internalType": "uint256",
                  "name": "id",
                  "type": "uint256"
                },
                {
                  "internalType": "address",
                  "name": "_address",
                  "type": "address"
                },
                {
                  "internalType": "string",
                  "name": "userType",
                  "type": "string"
                },
                {
                  "internalType": "string",
                  "name": "country",
                  "type": "string"
                },
                {
                  "internalType": "string",
                  "name": "city",
                  "type": "string"
                },
                {
                  "internalType": "string",
                  "name": "email",
                  "type": "string"
                },
                {
                  "internalType": "string",
                  "name": "residenceAddress",
                  "type": "string"
                },
                {
                  "internalType": "bool",
                  "name": "isRegistered",
                  "type": "bool"
                },
                {
                  "internalType": "string",
                  "name": "website",
                  "type": "string"
                },
                {
                  "internalType": "string",
                  "name": "facebookUrl",
                  "type": "string"
                },
                {
                  "internalType": "string",
                  "name": "twitterUrl",
                  "type": "string"
                },
                {
                  "internalType": "string",
                  "name": "instagramUrl",
                  "type": "string"
                },
                {
                  "internalType": "string",
                  "name": "youtubeUrl",
                  "type": "string"
                },
                {
                  "internalType": "string",
                  "name": "hash",
                  "type": "string"
                }
              ],
              "internalType": "struct Donation.User",
              "name": "user",
              "type": "tuple"
            },
            {
              "internalType": "uint256",
              "name": "donersCount",
              "type": "uint256"
            },
            {
              "internalType": "uint256",
              "name": "donationsRaised",
              "type": "uint256"
            },
            {
              "internalType": "uint256",
              "name": "startDate",
              "type": "uint256"
            },
            {
              "internalType": "uint256",
              "name": "endDate",
              "type": "uint256"
            },
            {
              "internalType": "uint256",
              "name": "targetedAmount",
              "type": "uint256"
            },
            {
              "internalType": "string",
              "name": "category",
              "type": "string"
            },
            {
              "internalType": "string",
              "name": "title",
              "type": "string"
            },
            {
              "internalType": "string",
              "name": "hash",
              "type": "string"
            },
            {
              "internalType": "string",
              "name": "purpose",
              "type": "string"
            },
            {
              "internalType": "string",
              "name": "description",
              "type": "string"
            },
            {
              "components": [
                {
                  "internalType": "bool",
                  "name": "completed",
                  "type": "bool"
                },
                {
                  "internalType": "bool",
                  "name": "isPinned",
                  "type": "bool"
                },
                {
                  "internalType": "uint256",
                  "name": "pinnedDuration",
                  "type": "uint256"
                },
                {
                  "internalType": "uint256",
                  "name": "pinnedEndDate",
                  "type": "uint256"
                },
                {
                  "internalType": "bool",
                  "name": "isVisible",
                  "type": "bool"
                },
                {
                  "internalType": "bool",
                  "name": "isApproved",
                  "type": "bool"
                },
                {
                  "internalType": "uint256",
                  "name": "approvedDate",
                  "type": "uint256"
                },
                {
                  "internalType": "bool",
                  "name": "isRejected",
                  "type": "bool"
                }
              ],
              "internalType": "struct Donation.DonationStatus",
              "name": "donationstatus",
              "type": "tuple"
            }
          ],
          "internalType": "struct Donation.DonationItem",
          "name": "",
          "type": "tuple"
        }
      ],
      "stateMutability": "view",
      "type": "function"
    },
    {
      "inputs": [
        {
          "internalType": "uint256",
          "name": "_id",
          "type": "uint256"
        }
      ],
      "name": "getDonersOfDonation",
      "outputs": [
        {
          "components": [
            {
              "internalType": "uint256",
              "name": "id",
              "type": "uint256"
            },
            {
              "internalType": "uint256",
              "name": "amount",
              "type": "uint256"
            },
            {
              "internalType": "uint256",
              "name": "date",
              "type": "uint256"
            },
            {
              "internalType": "address",
              "name": "doner",
              "type": "address"
            }
          ],
          "internalType": "struct Donation.Doners[]",
          "name": "",
          "type": "tuple[]"
        }
      ],
      "stateMutability": "view",
      "type": "function"
    },
    {
      "inputs": [],
      "name": "getEthUsd",
      "outputs": [
        {
          "internalType": "uint256",
          "name": "",
          "type": "uint256"
        }
      ],
      "stateMutability": "view",
      "type": "function"
    },
    {
      "inputs": [
        {
          "internalType": "uint256",
          "name": "",
          "type": "uint256"
        }
      ],
      "name": "idToDonationItem",
      "outputs": [
        {
          "internalType": "uint256",
          "name": "id",
          "type": "uint256"
        },
        {
          "internalType": "address payable",
          "name": "owner",
          "type": "address"
        },
        {
          "components": [
            {
              "internalType": "uint256",
              "name": "id",
              "type": "uint256"
            },
            {
              "internalType": "address",
              "name": "_address",
              "type": "address"
            },
            {
              "internalType": "string",
              "name": "userType",
              "type": "string"
            },
            {
              "internalType": "string",
              "name": "country",
              "type": "string"
            },
            {
              "internalType": "string",
              "name": "city",
              "type": "string"
            },
            {
              "internalType": "string",
              "name": "email",
              "type": "string"
            },
            {
              "internalType": "string",
              "name": "residenceAddress",
              "type": "string"
            },
            {
              "internalType": "bool",
              "name": "isRegistered",
              "type": "bool"
            },
            {
              "internalType": "string",
              "name": "website",
              "type": "string"
            },
            {
              "internalType": "string",
              "name": "facebookUrl",
              "type": "string"
            },
            {
              "internalType": "string",
              "name": "twitterUrl",
              "type": "string"
            },
            {
              "internalType": "string",
              "name": "instagramUrl",
              "type": "string"
            },
            {
              "internalType": "string",
              "name": "youtubeUrl",
              "type": "string"
            },
            {
              "internalType": "string",
              "name": "hash",
              "type": "string"
            }
          ],
          "internalType": "struct Donation.User",
          "name": "user",
          "type": "tuple"
        },
        {
          "internalType": "uint256",
          "name": "donersCount",
          "type": "uint256"
        },
        {
          "internalType": "uint256",
          "name": "donationsRaised",
          "type": "uint256"
        },
        {
          "internalType": "uint256",
          "name": "startDate",
          "type": "uint256"
        },
        {
          "internalType": "uint256",
          "name": "endDate",
          "type": "uint256"
        },
        {
          "internalType": "uint256",
          "name": "targetedAmount",
          "type": "uint256"
        },
        {
          "internalType": "string",
          "name": "category",
          "type": "string"
        },
        {
          "internalType": "string",
          "name": "title",
          "type": "string"
        },
        {
          "internalType": "string",
          "name": "hash",
          "type": "string"
        },
        {
          "internalType": "string",
          "name": "purpose",
          "type": "string"
        },
        {
          "internalType": "string",
          "name": "description",
          "type": "string"
        },
        {
          "components": [
            {
              "internalType": "bool",
              "name": "completed",
              "type": "bool"
            },
            {
              "internalType": "bool",
              "name": "isPinned",
              "type": "bool"
            },
            {
              "internalType": "uint256",
              "name": "pinnedDuration",
              "type": "uint256"
            },
            {
              "internalType": "uint256",
              "name": "pinnedEndDate",
              "type": "uint256"
            },
            {
              "internalType": "bool",
              "name": "isVisible",
              "type": "bool"
            },
            {
              "internalType": "bool",
              "name": "isApproved",
              "type": "bool"
            },
            {
              "internalType": "uint256",
              "name": "approvedDate",
              "type": "uint256"
            },
            {
              "internalType": "bool",
              "name": "isRejected",
              "type": "bool"
            }
          ],
          "internalType": "struct Donation.DonationStatus",
          "name": "donationstatus",
          "type": "tuple"
        }
      ],
      "stateMutability": "view",
      "type": "function"
    },
    {
      "inputs": [],
      "name": "isUserRegistered",
      "outputs": [
        {
          "components": [
            {
              "internalType": "bool",
              "name": "status",
              "type": "bool"
            },
            {
              "internalType": "string",
              "name": "userType",
              "type": "string"
            },
            {
              "internalType": "uint256",
              "name": "id",
              "type": "uint256"
            }
          ],
          "internalType": "struct Donation.IsRegistered",
          "name": "",
          "type": "tuple"
        }
      ],
      "stateMutability": "view",
      "type": "function"
    },
    {
      "inputs": [
        {
          "internalType": "uint256",
          "name": "_id",
          "type": "uint256"
        },
        {
          "internalType": "uint256",
          "name": "_duration",
          "type": "uint256"
        },
        {
          "internalType": "uint256",
          "name": "_pinnedEndDate",
          "type": "uint256"
        }
      ],
      "name": "pinDonation",
      "outputs": [],
      "stateMutability": "payable",
      "type": "function"
    },
    {
      "inputs": [
        {
          "internalType": "address",
          "name": "",
          "type": "address"
        }
      ],
      "name": "registeredUsers",
      "outputs": [
        {
          "internalType": "bool",
          "name": "status",
          "type": "bool"
        },
        {
          "internalType": "string",
          "name": "userType",
          "type": "string"
        },
        {
          "internalType": "uint256",
          "name": "id",
          "type": "uint256"
        }
      ],
      "stateMutability": "view",
      "type": "function"
    },
    {
      "inputs": [
        {
          "internalType": "uint256",
          "name": "_id",
          "type": "uint256"
        }
      ],
      "name": "rejectDonation",
      "outputs": [],
      "stateMutability": "nonpayable",
      "type": "function"
    },
    {
      "inputs": [
        {
          "internalType": "uint256",
          "name": "",
          "type": "uint256"
        }
      ],
      "name": "users",
      "outputs": [
        {
          "internalType": "uint256",
          "name": "id",
          "type": "uint256"
        },
        {
          "internalType": "address",
          "name": "_address",
          "type": "address"
        },
        {
          "internalType": "string",
          "name": "userType",
          "type": "string"
        },
        {
          "internalType": "string",
          "name": "country",
          "type": "string"
        },
        {
          "internalType": "string",
          "name": "city",
          "type": "string"
        },
        {
          "internalType": "string",
          "name": "email",
          "type": "string"
        },
        {
          "internalType": "string",
          "name": "residenceAddress",
          "type": "string"
        },
        {
          "internalType": "bool",
          "name": "isRegistered",
          "type": "bool"
        },
        {
          "internalType": "string",
          "name": "website",
          "type": "string"
        },
        {
          "internalType": "string",
          "name": "facebookUrl",
          "type": "string"
        },
        {
          "internalType": "string",
          "name": "twitterUrl",
          "type": "string"
        },
        {
          "internalType": "string",
          "name": "instagramUrl",
          "type": "string"
        },
        {
          "internalType": "string",
          "name": "youtubeUrl",
          "type": "string"
        },
        {
          "internalType": "string",
          "name": "hash",
          "type": "string"
        }
      ],
      "stateMutability": "view",
      "type": "function"
    },
    {
      "inputs": [],
      "name": "usersCount",
      "outputs": [
        {
          "internalType": "uint256",
          "name": "",
          "type": "uint256"
        }
      ],
      "stateMutability": "view",
      "type": "function"
    }
  ],
  "bytecode": "0x60806040523480156200001157600080fd5b5060405162005d4c38038062005d4c833981016040819052620000349162000077565b600580546001600160a01b039092166001600160a01b031992831617905560008054909116739326bfa02add2366b30bacb125260af641031331179055620000a7565b60006020828403121562000089578081fd5b81516001600160a01b0381168114620000a0578182fd5b9392505050565b615c9580620000b76000396000f3fe6080604052600436106100ef5760003560e01c80630e50cee5146100f45780632abfab4d1461012c57806332536a5314610150578063365b98b2146101655780633776eac61461019f5780633f27607d146101c157806343ae959c146101fb57806351c7bd4b14610211578063568fefbf146102315780635fc2a547146102af5780636ba13a82146102dc5780637b3e5e7b146102f2578063873138f314610308578063bb27e0ce1461032a578063c33743151461033f578063c69f34a314610361578063c6e251a914610381578063cac83cb114610394578063d8251a14146103b4578063ef07a81f146103c7575b600080fd5b34801561010057600080fd5b5061011461010f3660046150e7565b6103f4565b60405161012393929190615825565b60405180910390f35b34801561013857600080fd5b5061014260075481565b604051908152602001610123565b61016361015e3660046152ca565b6104a3565b005b34801561017157600080fd5b50610185610180366004615291565b6108e6565b6040516101239e9d9c9b9a999897969594939291906159a1565b3480156101ab57600080fd5b506101b4610f36565b6040516101239190615703565b3480156101cd57600080fd5b506101e16101dc366004615291565b611a56565b6040516101239e9d9c9b9a999897969594939291906158d0565b34801561020757600080fd5b5061014260065481565b34801561021d57600080fd5b5061016361022c366004615291565b612459565b34801561023d57600080fd5b5061028661024c3660046152a9565b600260208181526000938452604080852090915291835291208054600182015492820154600390920154909291906001600160a01b031684565b604080519485526020850193909352918301526001600160a01b03166060820152608001610123565b3480156102bb57600080fd5b506102cf6102ca366004615291565b6127ea565b6040516101239190615764565b3480156102e857600080fd5b5061014260085481565b3480156102fe57600080fd5b5061014260095481565b34801561031457600080fd5b5061031d612952565b6040516101239190615892565b34801561033657600080fd5b50610142612a98565b34801561034b57600080fd5b50610354612b2a565b60405161012391906157d1565b34801561036d57600080fd5b5061016361037c366004615291565b613294565b61016361038f366004615103565b613391565b3480156103a057600080fd5b506101636103af366004615291565b6139c9565b6101636103c2366004615291565b613a64565b3480156103d357600080fd5b506103e76103e2366004615291565b61405f565b604051610123919061587f565b6004602052600090815260409020805460018201805460ff909216929161041a90615bc5565b80601f016020809104026020016040519081016040528092919081815260200182805461044690615bc5565b80156104935780601f1061046857610100808354040283529160200191610493565b820191906000526020600020905b81548152906001019060200180831161047657829003601f168201915b5050505050908060020154905083565b6000831180156104b557506007548311155b6104da5760405162461bcd60e51b81526004016104d190615850565b60405180910390fd5b6000838152600160205260409020601a810154610100900460ff16156104ff57600080fd5b601d81015460ff61010090910416151560011461051b57600080fd5b601c810154421161052b57600080fd5b6005546040516001600160a01b039091169081903480156108fc02916000818181858888f19350505050158015610566573d6000803e3d6000fd5b50601b8201849055601c8201839055601a8201805461ff0019166101001790556000858152600160208190526040909120835481558184015491810180546001600160a01b03199081166001600160a01b03948516179091556002808601805491840191825560038088015490850180549094169516949094179091556004808601805487959392850191906105fb90615bc5565b610606929190614b3f565b50600382018160030190805461061b90615bc5565b610626929190614b3f565b50600482018160040190805461063b90615bc5565b610646929190614b3f565b50600582018160050190805461065b90615bc5565b610666929190614b3f565b50600682018160060190805461067b90615bc5565b610686929190614b3f565b50600782810154908201805460ff191660ff909216151591909117905560088083018054918301916106b790615bc5565b6106c2929190614b3f565b5060098201816009019080546106d790615bc5565b6106e2929190614b3f565b50600a820181600a019080546106f790615bc5565b610702929190614b3f565b50600b820181600b0190805461071790615bc5565b610722929190614b3f565b50600c820181600c0190805461073790615bc5565b610742929190614b3f565b50600d820181600d0190805461075790615bc5565b610762929190614b3f565b505050601082015481601001556011820154816011015560128201548160120155601382015481601301556014820154816014015560158201816015019080546107ab90615bc5565b6107b6929190614b3f565b5060168201816016019080546107cb90615bc5565b6107d6929190614b3f565b5060178201816017019080546107eb90615bc5565b6107f6929190614b3f565b50601882018160180190805461080b90615bc5565b610816929190614b3f565b50601982018160190190805461082b90615bc5565b610836929190614b3f565b50601a8281018054918301805460ff938416151560ff198083168217845593546101009081900486161515810261ff001992831661ffff199485161717909355601b8088015490870155601c8088015490870155601d808801805491880180549288161515838816811782559154869004881615159095029216921691909117179055601e8085015490840155601f93840154939092018054939091161515929091169190911790555050505050565b60036020526000908152604090208054600182015460028301805492936001600160a01b039092169261091890615bc5565b80601f016020809104026020016040519081016040528092919081815260200182805461094490615bc5565b80156109915780601f1061096657610100808354040283529160200191610991565b820191906000526020600020905b81548152906001019060200180831161097457829003601f168201915b5050505050908060030180546109a690615bc5565b80601f01602080910402602001604051908101604052809291908181526020018280546109d290615bc5565b8015610a1f5780601f106109f457610100808354040283529160200191610a1f565b820191906000526020600020905b815481529060010190602001808311610a0257829003601f168201915b505050505090806004018054610a3490615bc5565b80601f0160208091040260200160405190810160405280929190818152602001828054610a6090615bc5565b8015610aad5780601f10610a8257610100808354040283529160200191610aad565b820191906000526020600020905b815481529060010190602001808311610a9057829003601f168201915b505050505090806005018054610ac290615bc5565b80601f0160208091040260200160405190810160405280929190818152602001828054610aee90615bc5565b8015610b3b5780601f10610b1057610100808354040283529160200191610b3b565b820191906000526020600020905b815481529060010190602001808311610b1e57829003601f168201915b505050505090806006018054610b5090615bc5565b80601f0160208091040260200160405190810160405280929190818152602001828054610b7c90615bc5565b8015610bc95780601f10610b9e57610100808354040283529160200191610bc9565b820191906000526020600020905b815481529060010190602001808311610bac57829003601f168201915b5050506007840154600885018054949560ff909216949193509150610bed90615bc5565b80601f0160208091040260200160405190810160405280929190818152602001828054610c1990615bc5565b8015610c665780601f10610c3b57610100808354040283529160200191610c66565b820191906000526020600020905b815481529060010190602001808311610c4957829003601f168201915b505050505090806009018054610c7b90615bc5565b80601f0160208091040260200160405190810160405280929190818152602001828054610ca790615bc5565b8015610cf45780601f10610cc957610100808354040283529160200191610cf4565b820191906000526020600020905b815481529060010190602001808311610cd757829003601f168201915b50505050509080600a018054610d0990615bc5565b80601f0160208091040260200160405190810160405280929190818152602001828054610d3590615bc5565b8015610d825780601f10610d5757610100808354040283529160200191610d82565b820191906000526020600020905b815481529060010190602001808311610d6557829003601f168201915b50505050509080600b018054610d9790615bc5565b80601f0160208091040260200160405190810160405280929190818152602001828054610dc390615bc5565b8015610e105780601f10610de557610100808354040283529160200191610e10565b820191906000526020600020905b815481529060010190602001808311610df357829003601f168201915b50505050509080600c018054610e2590615bc5565b80601f0160208091040260200160405190810160405280929190818152602001828054610e5190615bc5565b8015610e9e5780601f10610e7357610100808354040283529160200191610e9e565b820191906000526020600020905b815481529060010190602001808311610e8157829003601f168201915b50505050509080600d018054610eb390615bc5565b80601f0160208091040260200160405190810160405280929190818152602001828054610edf90615bc5565b8015610f2c5780601f10610f0157610100808354040283529160200191610f2c565b820191906000526020600020905b815481529060010190602001808311610f0f57829003601f168201915b505050505090508e565b600754606090600080826001600160401b03811115610f6557634e487b7160e01b600052604160045260246000fd5b604051908082528060200260200182016040528015610f9e57816020015b610f8b614bc6565b815260200190600190039081610f835790505b50905060005b83811015611a4e576000610fb9826001615b76565b60008181526001602081815260409283902083516101c0808201865282548252938201546001600160a01b039081168285015285519485018652600283018054865260038401549091169385019390935260048201805496975091959094869486820194909390929184019161102e90615bc5565b80601f016020809104026020016040519081016040528092919081815260200182805461105a90615bc5565b80156110a75780601f1061107c576101008083540402835291602001916110a7565b820191906000526020600020905b81548152906001019060200180831161108a57829003601f168201915b505050505081526020016003820180546110c090615bc5565b80601f01602080910402602001604051908101604052809291908181526020018280546110ec90615bc5565b80156111395780601f1061110e57610100808354040283529160200191611139565b820191906000526020600020905b81548152906001019060200180831161111c57829003601f168201915b5050505050815260200160048201805461115290615bc5565b80601f016020809104026020016040519081016040528092919081815260200182805461117e90615bc5565b80156111cb5780601f106111a0576101008083540402835291602001916111cb565b820191906000526020600020905b8154815290600101906020018083116111ae57829003601f168201915b505050505081526020016005820180546111e490615bc5565b80601f016020809104026020016040519081016040528092919081815260200182805461121090615bc5565b801561125d5780601f106112325761010080835404028352916020019161125d565b820191906000526020600020905b81548152906001019060200180831161124057829003601f168201915b5050505050815260200160068201805461127690615bc5565b80601f01602080910402602001604051908101604052809291908181526020018280546112a290615bc5565b80156112ef5780601f106112c4576101008083540402835291602001916112ef565b820191906000526020600020905b8154815290600101906020018083116112d257829003601f168201915b5050509183525050600782015460ff161515602082015260088201805460409092019161131b90615bc5565b80601f016020809104026020016040519081016040528092919081815260200182805461134790615bc5565b80156113945780601f1061136957610100808354040283529160200191611394565b820191906000526020600020905b81548152906001019060200180831161137757829003601f168201915b505050505081526020016009820180546113ad90615bc5565b80601f01602080910402602001604051908101604052809291908181526020018280546113d990615bc5565b80156114265780601f106113fb57610100808354040283529160200191611426565b820191906000526020600020905b81548152906001019060200180831161140957829003601f168201915b50505050508152602001600a8201805461143f90615bc5565b80601f016020809104026020016040519081016040528092919081815260200182805461146b90615bc5565b80156114b85780601f1061148d576101008083540402835291602001916114b8565b820191906000526020600020905b81548152906001019060200180831161149b57829003601f168201915b50505050508152602001600b820180546114d190615bc5565b80601f01602080910402602001604051908101604052809291908181526020018280546114fd90615bc5565b801561154a5780601f1061151f5761010080835404028352916020019161154a565b820191906000526020600020905b81548152906001019060200180831161152d57829003601f168201915b50505050508152602001600c8201805461156390615bc5565b80601f016020809104026020016040519081016040528092919081815260200182805461158f90615bc5565b80156115dc5780601f106115b1576101008083540402835291602001916115dc565b820191906000526020600020905b8154815290600101906020018083116115bf57829003601f168201915b50505050508152602001600d820180546115f590615bc5565b80601f016020809104026020016040519081016040528092919081815260200182805461162190615bc5565b801561166e5780601f106116435761010080835404028352916020019161166e565b820191906000526020600020905b81548152906001019060200180831161165157829003601f168201915b505050505081525050815260200160108201548152602001601182015481526020016012820154815260200160138201548152602001601482015481526020016015820180546116bd90615bc5565b80601f01602080910402602001604051908101604052809291908181526020018280546116e990615bc5565b80156117365780601f1061170b57610100808354040283529160200191611736565b820191906000526020600020905b81548152906001019060200180831161171957829003601f168201915b5050505050815260200160168201805461174f90615bc5565b80601f016020809104026020016040519081016040528092919081815260200182805461177b90615bc5565b80156117c85780601f1061179d576101008083540402835291602001916117c8565b820191906000526020600020905b8154815290600101906020018083116117ab57829003601f168201915b505050505081526020016017820180546117e190615bc5565b80601f016020809104026020016040519081016040528092919081815260200182805461180d90615bc5565b801561185a5780601f1061182f5761010080835404028352916020019161185a565b820191906000526020600020905b81548152906001019060200180831161183d57829003601f168201915b5050505050815260200160188201805461187390615bc5565b80601f016020809104026020016040519081016040528092919081815260200182805461189f90615bc5565b80156118ec5780601f106118c1576101008083540402835291602001916118ec565b820191906000526020600020905b8154815290600101906020018083116118cf57829003601f168201915b5050505050815260200160198201805461190590615bc5565b80601f016020809104026020016040519081016040528092919081815260200182805461193190615bc5565b801561197e5780601f106119535761010080835404028352916020019161197e565b820191906000526020600020905b81548152906001019060200180831161196157829003601f168201915b5050509183525050604080516101008082018352601a85015460ff808216151584529082900481161515602084810191909152601b87015494840194909452601c8601546060840152601d86015480821615156080850152919091048116151560a0830152601e85015460c0830152601f90940154909316151560e084015201528451859087908110611a2157634e487b7160e01b600052603260045260246000fd5b6020908102919091010152611a37600186615b76565b945050508080611a4690615c00565b915050610fa4565b509392505050565b60016020818152600092835260409283902080549281015484516101c081018652600283018054825260038401546001600160a01b0390811695830195909552600484018054969795909316959394919390929184019190611ab790615bc5565b80601f0160208091040260200160405190810160405280929190818152602001828054611ae390615bc5565b8015611b305780601f10611b0557610100808354040283529160200191611b30565b820191906000526020600020905b815481529060010190602001808311611b1357829003601f168201915b50505050508152602001600382018054611b4990615bc5565b80601f0160208091040260200160405190810160405280929190818152602001828054611b7590615bc5565b8015611bc25780601f10611b9757610100808354040283529160200191611bc2565b820191906000526020600020905b815481529060010190602001808311611ba557829003601f168201915b50505050508152602001600482018054611bdb90615bc5565b80601f0160208091040260200160405190810160405280929190818152602001828054611c0790615bc5565b8015611c545780601f10611c2957610100808354040283529160200191611c54565b820191906000526020600020905b815481529060010190602001808311611c3757829003601f168201915b50505050508152602001600582018054611c6d90615bc5565b80601f0160208091040260200160405190810160405280929190818152602001828054611c9990615bc5565b8015611ce65780601f10611cbb57610100808354040283529160200191611ce6565b820191906000526020600020905b815481529060010190602001808311611cc957829003601f168201915b50505050508152602001600682018054611cff90615bc5565b80601f0160208091040260200160405190810160405280929190818152602001828054611d2b90615bc5565b8015611d785780601f10611d4d57610100808354040283529160200191611d78565b820191906000526020600020905b815481529060010190602001808311611d5b57829003601f168201915b5050509183525050600782015460ff1615156020820152600882018054604090920191611da490615bc5565b80601f0160208091040260200160405190810160405280929190818152602001828054611dd090615bc5565b8015611e1d5780601f10611df257610100808354040283529160200191611e1d565b820191906000526020600020905b815481529060010190602001808311611e0057829003601f168201915b50505050508152602001600982018054611e3690615bc5565b80601f0160208091040260200160405190810160405280929190818152602001828054611e6290615bc5565b8015611eaf5780601f10611e8457610100808354040283529160200191611eaf565b820191906000526020600020905b815481529060010190602001808311611e9257829003601f168201915b50505050508152602001600a82018054611ec890615bc5565b80601f0160208091040260200160405190810160405280929190818152602001828054611ef490615bc5565b8015611f415780601f10611f1657610100808354040283529160200191611f41565b820191906000526020600020905b815481529060010190602001808311611f2457829003601f168201915b50505050508152602001600b82018054611f5a90615bc5565b80601f0160208091040260200160405190810160405280929190818152602001828054611f8690615bc5565b8015611fd35780601f10611fa857610100808354040283529160200191611fd3565b820191906000526020600020905b815481529060010190602001808311611fb657829003601f168201915b50505050508152602001600c82018054611fec90615bc5565b80601f016020809104026020016040519081016040528092919081815260200182805461201890615bc5565b80156120655780601f1061203a57610100808354040283529160200191612065565b820191906000526020600020905b81548152906001019060200180831161204857829003601f168201915b50505050508152602001600d8201805461207e90615bc5565b80601f01602080910402602001604051908101604052809291908181526020018280546120aa90615bc5565b80156120f75780601f106120cc576101008083540402835291602001916120f7565b820191906000526020600020905b8154815290600101906020018083116120da57829003601f168201915b5050505050815250509080601001549080601101549080601201549080601301549080601401549080601501805461212e90615bc5565b80601f016020809104026020016040519081016040528092919081815260200182805461215a90615bc5565b80156121a75780601f1061217c576101008083540402835291602001916121a7565b820191906000526020600020905b81548152906001019060200180831161218a57829003601f168201915b5050505050908060160180546121bc90615bc5565b80601f01602080910402602001604051908101604052809291908181526020018280546121e890615bc5565b80156122355780601f1061220a57610100808354040283529160200191612235565b820191906000526020600020905b81548152906001019060200180831161221857829003601f168201915b50505050509080601701805461224a90615bc5565b80601f016020809104026020016040519081016040528092919081815260200182805461227690615bc5565b80156122c35780601f10612298576101008083540402835291602001916122c3565b820191906000526020600020905b8154815290600101906020018083116122a657829003601f168201915b5050505050908060180180546122d890615bc5565b80601f016020809104026020016040519081016040528092919081815260200182805461230490615bc5565b80156123515780601f1061232657610100808354040283529160200191612351565b820191906000526020600020905b81548152906001019060200180831161233457829003601f168201915b50505050509080601901805461236690615bc5565b80601f016020809104026020016040519081016040528092919081815260200182805461239290615bc5565b80156123df5780601f106123b4576101008083540402835291602001916123df565b820191906000526020600020905b8154815290600101906020018083116123c257829003601f168201915b5050604080516101008082018352601a88015460ff8082161515845290829004811615156020840152601b89015493830193909352601c8801546060830152601d88015480841615156080840152048216151560a0820152601e87015460c0820152601f9096015416151560e086015250919291508f9050565b60008111801561246b57506007548111155b6124875760405162461bcd60e51b81526004016104d190615850565b6000818152600160208190526040909120601d8101805461ffff19169055601f8101805460ff19168317905590810180546001600160a01b03198082166001600160a01b0392831617909255600383018054928316929091169190911790556004810180548291829160028301918291819061250290615bc5565b61250d929190614b3f565b50600382018160030190805461252290615bc5565b61252d929190614b3f565b50600482018160040190805461254290615bc5565b61254d929190614b3f565b50600582018160050190805461256290615bc5565b61256d929190614b3f565b50600682018160060190805461258290615bc5565b61258d929190614b3f565b50600782810154908201805460ff191660ff909216151591909117905560088083018054918301916125be90615bc5565b6125c9929190614b3f565b5060098201816009019080546125de90615bc5565b6125e9929190614b3f565b50600a820181600a019080546125fe90615bc5565b612609929190614b3f565b50600b820181600b0190805461261e90615bc5565b612629929190614b3f565b50600c820181600c0190805461263e90615bc5565b612649929190614b3f565b50600d820181600d0190805461265e90615bc5565b612669929190614b3f565b505050601082015481601001556011820154816011015560128201548160120155601382015481601301556014820154816014015560158201816015019080546126b290615bc5565b6126bd929190614b3f565b5060168201816016019080546126d290615bc5565b6126dd929190614b3f565b5060178201816017019080546126f290615bc5565b6126fd929190614b3f565b50601882018160180190805461271290615bc5565b61271d929190614b3f565b50601982018160190190805461273290615bc5565b61273d929190614b3f565b50601a8281018054918301805460ff938416151560ff198083168217845593546101009081900486161515810261ff001992831661ffff199485161717909355601b8088015490870155601c8088015490870155601d808801805491880180549288161515838816811782559154869004881615159095029216921691909117179055601e8085015490840155601f93840154939092018054939091161515929091169190911790555050565b60008181526001602052604081206010015460609180826001600160401b0381111561282657634e487b7160e01b600052604160045260246000fd5b60405190808252806020026020018201604052801561288b57816020015b612878604051806080016040528060008152602001600081526020016000815260200160006001600160a01b031681525090565b8152602001906001900390816128445790505b50905060005b838110156129495760006128a6826001615b76565b6000888152600260208181526040808420858552825292839020835160808101855281548152600182015492810192909252918201549281019290925260038101546001600160a01b0316606083015285519293509185908790811061291c57634e487b7160e01b600052603260045260246000fd5b6020908102919091010152612932600186615b76565b94505050808061294190615c00565b915050612891565b50949350505050565b612978604051806060016040528060001515815260200160608152602001600081525090565b3360009081526004602052604090205460ff16151560011415612a5f5733600090815260046020908152604091829020825160608101909352805460ff161515835260018101805491928401916129ce90615bc5565b80601f01602080910402602001604051908101604052809291908181526020018280546129fa90615bc5565b8015612a475780601f10612a1c57610100808354040283529160200191612a47565b820191906000526020600020905b815481529060010190602001808311612a2a57829003601f168201915b50505050508152602001600282015481525050905090565b33600090815260046020908152604091829020825160608101909352805460ff161515835260018101805491928401916129ce90615bc5565b6000805460408051633fabe5a360e21b8152905183926001600160a01b03169163feaf968c9160048083019260a0929190829003018186803b158015612add57600080fd5b505afa158015612af1573d6000803e3d6000fd5b505050506040513d601f19601f82011682018060405250810190612b1591906152f5565b505050915050612b2481614aca565b91505090565b600854606090600080826001600160401b03811115612b5957634e487b7160e01b600052604160045260246000fd5b604051908082528060200260200182016040528015612b9257816020015b612b7f614c88565b815260200190600190039081612b775790505b50905060005b83811015611a4e576000612bad826001615b76565b60008181526003602090815260409182902082516101c0810184528154815260018201546001600160a01b0316928101929092526002810180549495509093919284929084019190612bfe90615bc5565b80601f0160208091040260200160405190810160405280929190818152602001828054612c2a90615bc5565b8015612c775780601f10612c4c57610100808354040283529160200191612c77565b820191906000526020600020905b815481529060010190602001808311612c5a57829003601f168201915b50505050508152602001600382018054612c9090615bc5565b80601f0160208091040260200160405190810160405280929190818152602001828054612cbc90615bc5565b8015612d095780601f10612cde57610100808354040283529160200191612d09565b820191906000526020600020905b815481529060010190602001808311612cec57829003601f168201915b50505050508152602001600482018054612d2290615bc5565b80601f0160208091040260200160405190810160405280929190818152602001828054612d4e90615bc5565b8015612d9b5780601f10612d7057610100808354040283529160200191612d9b565b820191906000526020600020905b815481529060010190602001808311612d7e57829003601f168201915b50505050508152602001600582018054612db490615bc5565b80601f0160208091040260200160405190810160405280929190818152602001828054612de090615bc5565b8015612e2d5780601f10612e0257610100808354040283529160200191612e2d565b820191906000526020600020905b815481529060010190602001808311612e1057829003601f168201915b50505050508152602001600682018054612e4690615bc5565b80601f0160208091040260200160405190810160405280929190818152602001828054612e7290615bc5565b8015612ebf5780601f10612e9457610100808354040283529160200191612ebf565b820191906000526020600020905b815481529060010190602001808311612ea257829003601f168201915b5050509183525050600782015460ff1615156020820152600882018054604090920191612eeb90615bc5565b80601f0160208091040260200160405190810160405280929190818152602001828054612f1790615bc5565b8015612f645780601f10612f3957610100808354040283529160200191612f64565b820191906000526020600020905b815481529060010190602001808311612f4757829003601f168201915b50505050508152602001600982018054612f7d90615bc5565b80601f0160208091040260200160405190810160405280929190818152602001828054612fa990615bc5565b8015612ff65780601f10612fcb57610100808354040283529160200191612ff6565b820191906000526020600020905b815481529060010190602001808311612fd957829003601f168201915b50505050508152602001600a8201805461300f90615bc5565b80601f016020809104026020016040519081016040528092919081815260200182805461303b90615bc5565b80156130885780601f1061305d57610100808354040283529160200191613088565b820191906000526020600020905b81548152906001019060200180831161306b57829003601f168201915b50505050508152602001600b820180546130a190615bc5565b80601f01602080910402602001604051908101604052809291908181526020018280546130cd90615bc5565b801561311a5780601f106130ef5761010080835404028352916020019161311a565b820191906000526020600020905b8154815290600101906020018083116130fd57829003601f168201915b50505050508152602001600c8201805461313390615bc5565b80601f016020809104026020016040519081016040528092919081815260200182805461315f90615bc5565b80156131ac5780601f10613181576101008083540402835291602001916131ac565b820191906000526020600020905b81548152906001019060200180831161318f57829003601f168201915b50505050508152602001600d820180546131c590615bc5565b80601f01602080910402602001604051908101604052809291908181526020018280546131f190615bc5565b801561323e5780601f106132135761010080835404028352916020019161323e565b820191906000526020600020905b81548152906001019060200180831161322157829003601f168201915b50505050508152505084868151811061326757634e487b7160e01b600052603260045260246000fd5b602090810291909101015261327d600186615b76565b94505050808061328c90615c00565b915050612b98565b6000811180156132a657506007548111155b6132c25760405162461bcd60e51b81526004016104d190615850565b6000818152600160205260409020601d810154610100900460ff16156132e757600080fd5b601d81015460ff16156132f957600080fd5b601d8101805461ffff1916610101179055601f8101805460ff1916905542601e8201556000828152600160208190526040909120825481558183015491810180546001600160a01b039384166001600160a01b03199182161790915560028085018054918401918255600380870154908501805491909616931692909217909355600480850180548695928501919061250290615bc5565b3361339b57600080fd5b600780549060006133ab83615c00565b9091555050600754600081815260016020819052604090912091825581810180546001600160a01b031916331790556008546133e691615b76565b600881905560028201556003810180546001600160a01b0319163317905560408084015101518051613422916004840191602090910190614d02565b506040830151606001518051613442916005840191602090910190614d02565b506040830151608001518051613462916006840191602090910190614d02565b50604083015160a001518051613482916007840191602090910190614d02565b50604083015160c0015180516134a2916008840191602090910190614d02565b5060098101805460ff191660011790556040830151610100015180516134d291600a840191602090910190614d02565b506040830151610120015180516134f391600b840191602090910190614d02565b5060408301516101400151805161351491600c840191602090910190614d02565b5060408301516101600151805161353591600d840191602090910190614d02565b5060408301516101800151805161355691600e840191602090910190614d02565b5060408301516101a00151805161357791600f840191602090910190614d02565b50600880546000818152600360209081526040808320938455600190930180546001600160a01b03191633179055868301518301519354825291902082516135c9936002909201929190910190614d02565b50604080840151606001516008546000908152600360208181529390912082516135f99491909201920190614d02565b50826040015160800151600360006008548152602001908152602001600020600401908051906020019061362e929190614d02565b50826040015160a001516003600060085481526020019081526020016000206005019080519060200190613663929190614d02565b50826040015160c001516003600060085481526020019081526020016000206006019080519060200190613698929190614d02565b50600880546000908152600360209081526040808320600701805460ff1916600117905586810151610100015184548452922082516136df94919091019290910190614d02565b50826040015161012001516003600060085481526020019081526020016000206009019080519060200190613715929190614d02565b5082604001516101400151600360006008548152602001908152602001600020600a01908051906020019061374b929190614d02565b5082604001516101600151600360006008548152602001908152602001600020600b019080519060200190613781929190614d02565b5082604001516101800151600360006008548152602001908152602001600020600c0190805190602001906137b7929190614d02565b5082604001516101a00151600360006008548152602001908152602001600020600d0190805190602001906137ed929190614d02565b5033600090815260046020908152604091829020805460ff191660019081178255868401519093015180516138289492909201920190614d02565b5060085433600090815260046020908152604082206002019290925560118301819055601083015542601283015560c0840151601383015560e0840151601483015561010084015180516138829260158501920190614d02565b50610120830151805161389f916016840191602090910190614d02565b5061014083015180516138bc916017840191602090910190614d02565b5061010083015180516138d9916015840191602090910190614d02565b5061016083015180516138f6916018840191602090910190614d02565b506101808301518051613913916019840191602090910190614d02565b50601a8101805461ffff19908116909155601d820180549091169055601f8101805460ff191690556000601e8201819055601b8201819055601c8201556007546006546009546012840154601385015460148601546040517f7c8a17aaa539b5bb8a8ea1700d5c6e2008e7baa2a6f82e7cd29308dbba896d7d966139bc969095339591949093919290919060158b019060168c019060178d019060188e019060198f0190615ab3565b60405180910390a1505050565b6000811180156139db57506007548111155b6139f75760405162461bcd60e51b81526004016104d190615850565b6000818152600160208190526040909120601a8101805461ff001916905590810180546001600160a01b03198082166001600160a01b0392831617909255600383018054928316929091169190911790556004810180548291829160028301918291819061250290615bc5565b600081118015613a7657506007548111155b613a7f57600080fd5b60008181526001602052604090206014810154601182015410613aac57601a8101805460ff191660011790555b60018101546001600160a01b03166011600a6000613aca8383614b20565b905060646000613ada8284614b20565b90506000613ae83483614b20565b90506001600160a01b0387166108fc613b013484614b33565b6040518115909202916000818181858888f19350505050158015613b29573d6000803e3d6000fd5b506005546040516001600160a01b0390911690819083156108fc029084906000818181858888f19350505050158015613b66573d6000803e3d6000fd5b5034600954613b759190615b76565b6009556011890154613b88903490615b76565b60118a01556010890154613b9d906001615b76565b60108a015560068054906000613bb283615c00565b91905055508860100154600260008b60000154815260200190815260200160002060008b6010015481526020019081526020016000206000018190555034600260008b60000154815260200190815260200160002060008b6010015481526020019081526020016000206001018190555042600260008b60000154815260200190815260200160002060008b6010015481526020019081526020016000206002018190555033600260008b60000154815260200190815260200160002060008b60100154815260200190815260200160002060030160006101000a8154816001600160a01b0302191690836001600160a01b0316021790555088600160008c8152602001908152602001600020600082015481600001556001820160009054906101000a90046001600160a01b03168160010160006101000a8154816001600160a01b0302191690836001600160a01b031602179055506002820181600201600082015481600001556001820160009054906101000a90046001600160a01b03168160010160006101000a8154816001600160a01b0302191690836001600160a01b031602179055506002820181600201908054613d6f90615bc5565b613d7a929190614b3f565b506003820181600301908054613d8f90615bc5565b613d9a929190614b3f565b506004820181600401908054613daf90615bc5565b613dba929190614b3f565b506005820181600501908054613dcf90615bc5565b613dda929190614b3f565b506006820181600601908054613def90615bc5565b613dfa929190614b3f565b50600782810154908201805460ff191660ff90921615159190911790556008808301805491830191613e2b90615bc5565b613e36929190614b3f565b506009820181600901908054613e4b90615bc5565b613e56929190614b3f565b50600a820181600a01908054613e6b90615bc5565b613e76929190614b3f565b50600b820181600b01908054613e8b90615bc5565b613e96929190614b3f565b50600c820181600c01908054613eab90615bc5565b613eb6929190614b3f565b50600d820181600d01908054613ecb90615bc5565b613ed6929190614b3f565b50505060108201548160100155601182015481601101556012820154816012015560138201548160130155601482015481601401556015820181601501908054613f1f90615bc5565b613f2a929190614b3f565b506016820181601601908054613f3f90615bc5565b613f4a929190614b3f565b506017820181601701908054613f5f90615bc5565b613f6a929190614b3f565b506018820181601801908054613f7f90615bc5565b613f8a929190614b3f565b506019820181601901908054613f9f90615bc5565b613faa929190614b3f565b50601a8281018054918301805460ff938416151560ff198083168217845593546101009081900486161515810261ff001992831661ffff199485161717909355601b8088015490870155601c8088015490870155601d808801805491880180549288161515838816811782559154869004881615159095029216921691909117179055601e8085015490840155601f938401549390920180549390911615159290911691909117905550505050505050505050565b614067614bc6565b600082815260016020526040902054821415614ac55760008281526001602081815260409283902083516101c0808201865282548252938201546001600160a01b039081168285015285519485018652600283018054865260038401549091169385019390935260048201805491959294868401949093909290840191906140ee90615bc5565b80601f016020809104026020016040519081016040528092919081815260200182805461411a90615bc5565b80156141675780601f1061413c57610100808354040283529160200191614167565b820191906000526020600020905b81548152906001019060200180831161414a57829003601f168201915b5050505050815260200160038201805461418090615bc5565b80601f01602080910402602001604051908101604052809291908181526020018280546141ac90615bc5565b80156141f95780601f106141ce576101008083540402835291602001916141f9565b820191906000526020600020905b8154815290600101906020018083116141dc57829003601f168201915b5050505050815260200160048201805461421290615bc5565b80601f016020809104026020016040519081016040528092919081815260200182805461423e90615bc5565b801561428b5780601f106142605761010080835404028352916020019161428b565b820191906000526020600020905b81548152906001019060200180831161426e57829003601f168201915b505050505081526020016005820180546142a490615bc5565b80601f01602080910402602001604051908101604052809291908181526020018280546142d090615bc5565b801561431d5780601f106142f25761010080835404028352916020019161431d565b820191906000526020600020905b81548152906001019060200180831161430057829003601f168201915b5050505050815260200160068201805461433690615bc5565b80601f016020809104026020016040519081016040528092919081815260200182805461436290615bc5565b80156143af5780601f10614384576101008083540402835291602001916143af565b820191906000526020600020905b81548152906001019060200180831161439257829003601f168201915b5050509183525050600782015460ff16151560208201526008820180546040909201916143db90615bc5565b80601f016020809104026020016040519081016040528092919081815260200182805461440790615bc5565b80156144545780601f1061442957610100808354040283529160200191614454565b820191906000526020600020905b81548152906001019060200180831161443757829003601f168201915b5050505050815260200160098201805461446d90615bc5565b80601f016020809104026020016040519081016040528092919081815260200182805461449990615bc5565b80156144e65780601f106144bb576101008083540402835291602001916144e6565b820191906000526020600020905b8154815290600101906020018083116144c957829003601f168201915b50505050508152602001600a820180546144ff90615bc5565b80601f016020809104026020016040519081016040528092919081815260200182805461452b90615bc5565b80156145785780601f1061454d57610100808354040283529160200191614578565b820191906000526020600020905b81548152906001019060200180831161455b57829003601f168201915b50505050508152602001600b8201805461459190615bc5565b80601f01602080910402602001604051908101604052809291908181526020018280546145bd90615bc5565b801561460a5780601f106145df5761010080835404028352916020019161460a565b820191906000526020600020905b8154815290600101906020018083116145ed57829003601f168201915b50505050508152602001600c8201805461462390615bc5565b80601f016020809104026020016040519081016040528092919081815260200182805461464f90615bc5565b801561469c5780601f106146715761010080835404028352916020019161469c565b820191906000526020600020905b81548152906001019060200180831161467f57829003601f168201915b50505050508152602001600d820180546146b590615bc5565b80601f01602080910402602001604051908101604052809291908181526020018280546146e190615bc5565b801561472e5780601f106147035761010080835404028352916020019161472e565b820191906000526020600020905b81548152906001019060200180831161471157829003601f168201915b5050505050815250508152602001601082015481526020016011820154815260200160128201548152602001601382015481526020016014820154815260200160158201805461477d90615bc5565b80601f01602080910402602001604051908101604052809291908181526020018280546147a990615bc5565b80156147f65780601f106147cb576101008083540402835291602001916147f6565b820191906000526020600020905b8154815290600101906020018083116147d957829003601f168201915b5050505050815260200160168201805461480f90615bc5565b80601f016020809104026020016040519081016040528092919081815260200182805461483b90615bc5565b80156148885780601f1061485d57610100808354040283529160200191614888565b820191906000526020600020905b81548152906001019060200180831161486b57829003601f168201915b505050505081526020016017820180546148a190615bc5565b80601f01602080910402602001604051908101604052809291908181526020018280546148cd90615bc5565b801561491a5780601f106148ef5761010080835404028352916020019161491a565b820191906000526020600020905b8154815290600101906020018083116148fd57829003601f168201915b5050505050815260200160188201805461493390615bc5565b80601f016020809104026020016040519081016040528092919081815260200182805461495f90615bc5565b80156149ac5780601f10614981576101008083540402835291602001916149ac565b820191906000526020600020905b81548152906001019060200180831161498f57829003601f168201915b505050505081526020016019820180546149c590615bc5565b80601f01602080910402602001604051908101604052809291908181526020018280546149f190615bc5565b8015614a3e5780601f10614a1357610100808354040283529160200191614a3e565b820191906000526020600020905b815481529060010190602001808311614a2157829003601f168201915b5050509183525050604080516101008082018352601a85015460ff808216151584529082900481161515602084810191909152601b87015494840194909452601c8601546060840152601d86015480821615156080850152919091048116151560a0830152601e85015460c0830152601f90940154909316151560e0840152015292915050565b919050565b600080821215614b1c5760405162461bcd60e51b815260206004820181905260248201527f53616665436173743a2076616c7565206d75737420626520706f73697469766560448201526064016104d1565b5090565b6000614b2c8284615b8e565b9392505050565b6000614b2c8284615bae565b828054614b4b90615bc5565b90600052602060002090601f016020900481019282614b6d5760008555614bba565b82601f10614b7e5780548555614bba565b82800160010185558215614bba57600052602060002091601f016020900482015b82811115614bba578254825591600101919060010190614b9f565b50614b1c929150614d76565b604080516101c08101825260008082526020820152908101614be6614c88565b815260200160008152602001600081526020016000815260200160008152602001600081526020016060815260200160608152602001606081526020016060815260200160608152602001614c836040518061010001604052806000151581526020016000151581526020016000815260200160008152602001600015158152602001600015158152602001600081526020016000151581525090565b905290565b604051806101c001604052806000815260200160006001600160a01b0316815260200160608152602001606081526020016060815260200160608152602001606081526020016000151581526020016060815260200160608152602001606081526020016060815260200160608152602001606081525090565b828054614d0e90615bc5565b90600052602060002090601f016020900481019282614d305760008555614bba565b82601f10614d4957805160ff1916838001178555614bba565b82800160010185558215614bba579182015b82811115614bba578251825591602001919060010190614d5b565b5b80821115614b1c5760008155600101614d77565b8035614ac581615c47565b80358015158114614ac557600080fd5b600082601f830112614db6578081fd5b81356001600160401b0380821115614dd057614dd0615c31565b604051601f8301601f19908116603f01168101908282118183101715614df857614df8615c31565b81604052838152866020858801011115614e10578485fd5b8360208701602083013792830160200193909352509392505050565b6000610100808385031215614e3f578182fd5b604051908101906001600160401b0382118183101715614e6157614e61615c31565b81604052809250614e7184614d96565b8152614e7f60208501614d96565b60208201526040840135604082015260608401356060820152614ea460808501614d96565b6080820152614eb560a08501614d96565b60a082015260c084013560c0820152614ed060e08501614d96565b60e0820152505092915050565b60006101c08284031215614eef578081fd5b614ef7615b4d565b905081358152614f0960208301614d8b565b602082015260408201356001600160401b0380821115614f2857600080fd5b614f3485838601614da6565b60408401526060840135915080821115614f4d57600080fd5b614f5985838601614da6565b60608401526080840135915080821115614f7257600080fd5b614f7e85838601614da6565b608084015260a0840135915080821115614f9757600080fd5b614fa385838601614da6565b60a084015260c0840135915080821115614fbc57600080fd5b614fc885838601614da6565b60c0840152614fd960e08501614d96565b60e084015261010091508184013581811115614ff457600080fd5b61500086828701614da6565b83850152506101209150818401358181111561501b57600080fd5b61502786828701614da6565b83850152506101409150818401358181111561504257600080fd5b61504e86828701614da6565b83850152506101609150818401358181111561506957600080fd5b61507586828701614da6565b83850152506101809150818401358181111561509057600080fd5b61509c86828701614da6565b83850152506101a0915081840135818111156150b757600080fd5b6150c386828701614da6565b8385015250505092915050565b80516001600160501b0381168114614ac557600080fd5b6000602082840312156150f8578081fd5b8135614b2c81615c47565b60008060408385031215615115578081fd5b82356001600160401b038082111561512b578283fd5b908401906102a0828703121561513f578283fd5b615147615b4d565b8235815261515760208401614d8b565b602082015260408301358281111561516d578485fd5b61517988828601614edd565b604083015250606083013560608201526080830135608082015260a083013560a082015260c083013560c082015260e083013560e082015261010080840135838111156151c4578586fd5b6151d089828701614da6565b82840152505061012080840135838111156151e9578586fd5b6151f589828701614da6565b828401525050610140808401358381111561520e578586fd5b61521a89828701614da6565b8284015250506101608084013583811115615233578586fd5b61523f89828701614da6565b8284015250506101808084013583811115615258578586fd5b61526489828701614da6565b8284015250506101a0915061527b87838501614e2c565b9181019190915295602094909401359450505050565b6000602082840312156152a2578081fd5b5035919050565b600080604083850312156152bb578182fd5b50508035926020909101359150565b6000806000606084860312156152de578081fd5b505081359360208301359350604090920135919050565b600080600080600060a0868803121561530c578081fd5b615315866150d0565b9450602086015193506040860151925060608601519150615338608087016150d0565b90509295509295909350565b6001600160a01b03169052565b60008151808452815b818110156153765760208185018101518683018201520161535a565b818111156153875782602083870101525b50601f01601f19169290920160200192915050565b8054600090600181811c90808316806153b657607f831692505b60208084108214156153d657634e487b7160e01b86526022600452602486fd5b838852602088018280156153f157600181146154025761542d565b60ff1987168252828201975061542d565b60008981526020902060005b878110156154275781548482015290860190840161540e565b83019850505b5050505050505092915050565b60006102a08251845260208301516154556020860182615344565b50604083015181604086015261546d828601826155a3565b915050606083015160608501526080830151608085015260a083015160a085015260c083015160c085015260e083015160e085015261010080840151858303828701526154ba8382615351565b9250505061012080840151858303828701526154d68382615351565b9250505061014080840151858303828701526154f28382615351565b92505050610160808401518583038287015261550e8382615351565b92505050610180808401518583038287015261552a8382615351565b925050506101a0808401516155418287018261554b565b5090949350505050565b805115158252602081015115156020830152604081015160408301526060810151606083015260808101511515608083015260a0810151151560a083015260c081015160c083015260e0810151151560e08301525050565b60006101c08251845260208301516155be6020860182615344565b5060408301518160408601526155d682860182615351565b915050606083015184820360608601526155f08282615351565b9150506080830151848203608086015261560a8282615351565b91505060a083015184820360a08601526156248282615351565b91505060c083015184820360c086015261563e8282615351565b91505060e083015161565460e086018215159052565b50610100808401518583038287015261566d8382615351565b9250505061012080840151858303828701526156898382615351565b9250505061014080840151858303828701526156a58382615351565b9250505061016080840151858303828701526156c18382615351565b9250505061018080840151858303828701526156dd8382615351565b925050506101a080840151858303828701526156f98382615351565b9695505050505050565b6000602080830181845280855180835260408601915060408160051b8701019250838701855b8281101561575757603f1988860301845261574585835161543a565b94509285019290850190600101615729565b5092979650505050505050565b602080825282518282018190526000919060409081850190868401855b828110156157c457815180518552868101518786015285810151868601526060908101516001600160a01b03169085015260809093019290850190600101615781565b5091979650505050505050565b6000602080830181845280855180835260408601915060408160051b8701019250838701855b8281101561575757603f198886030184526158138583516155a3565b945092850192908501906001016157f7565b83151581526060602082015260006158406060830185615351565b9050826040830152949350505050565b602080825260159082015274191bdb985d1a5bdb881a59081b9bdd081d985b1a59605a1b604082015260600190565b602081526000614b2c602083018461543a565b6020815281511515602082015260006020830151606060408401526158ba6080840182615351565b9050604084015160608401528091505092915050565b8e81526158e0602082018f615344565b6102a0604082015260006158f86102a083018f6155a3565b8d60608401528c60808401528b60a08401528a60c08401528960e0840152828103610100840152615929818a615351565b905082810361012084015261593e8189615351565b90508281036101408401526159538188615351565b90508281036101608401526159688187615351565b905082810361018084015261597d8186615351565b91505061598e6101a083018461554b565b9f9e505050505050505050505050505050565b8e81526159b1602082018f615344565b6101c0604082015260006159c96101c083018f615351565b82810360608401526159db818f615351565b905082810360808401526159ef818e615351565b905082810360a0840152615a03818d615351565b905082810360c0840152615a17818c615351565b8a151560e08501529050828103610100840152615a34818a615351565b9050828103610120840152615a498189615351565b9050828103610140840152615a5e8188615351565b9050828103610160840152615a738187615351565b9050828103610180840152615a888186615351565b90508281036101a0840152615a9d8185615351565b9150509f9e505050505050505050505050505050565b60006101808e835260018060a01b038e1660208401528c60408401528b60608401528a60808401528960a08401528860c08401528060e0840152615af98184018961539c565b9050828103610100840152615b0e818861539c565b9050828103610120840152615b23818761539c565b9050828103610140840152615b38818661539c565b905082810361016084015261598e818561539c565b6040516101c081016001600160401b0381118282101715615b7057615b70615c31565b60405290565b60008219821115615b8957615b89615c1b565b500190565b600082615ba957634e487b7160e01b81526012600452602481fd5b500490565b600082821015615bc057615bc0615c1b565b500390565b600181811c90821680615bd957607f821691505b60208210811415615bfa57634e487b7160e01b600052602260045260246000fd5b50919050565b6000600019821415615c1457615c14615c1b565b5060010190565b634e487b7160e01b600052601160045260246000fd5b634e487b7160e01b600052604160045260246000fd5b6001600160a01b0381168114615c5c57600080fd5b5056fea2646970667358221220fbe1b8bb1536ecfd5ae521990b97c8628e8abc8d52970b77b8458b7c58a4fa2964736f6c63430008040033",
  "linkReferences": {},
  "deployedLinkReferences": {}
}